{
  "_format": "hh-sol-artifact-1",
  "contractName": "VaultUsageExample",
  "sourceName": "contracts/examples/VaultUsageExample.sol",
  "abi": [
    {
      "inputs": [
        {
          "internalType": "address",
          "name": "_factory",
          "type": "address"
        },
        {
          "internalType": "address",
          "name": "_usdcVault",
          "type": "address"
        },
        {
          "internalType": "address",
          "name": "_wethVault",
          "type": "address"
        },
        {
          "internalType": "address",
          "name": "_strategy",
          "type": "address"
        },
        {
          "internalType": "address",
          "name": "_usdc",
          "type": "address"
        },
        {
          "internalType": "address payable",
          "name": "_weth",
          "type": "address"
        }
      ],
      "stateMutability": "nonpayable",
      "type": "constructor"
    },
    {
      "anonymous": false,
      "inputs": [
        {
          "indexed": false,
          "internalType": "string",
          "name": "step",
          "type": "string"
        },
        {
          "indexed": false,
          "internalType": "uint256",
          "name": "amount",
          "type": "uint256"
        },
        {
          "indexed": false,
          "internalType": "address",
          "name": "user",
          "type": "address"
        },
        {
          "indexed": false,
          "internalType": "string",
          "name": "details",
          "type": "string"
        }
      ],
      "name": "ExampleStep",
      "type": "event"
    },
    {
      "anonymous": false,
      "inputs": [
        {
          "indexed": false,
          "internalType": "string",
          "name": "action",
          "type": "string"
        },
        {
          "indexed": false,
          "internalType": "uint256",
          "name": "amountIn",
          "type": "uint256"
        },
        {
          "indexed": false,
          "internalType": "uint256",
          "name": "amountOut",
          "type": "uint256"
        }
      ],
      "name": "PoolInteraction",
      "type": "event"
    },
    {
      "inputs": [],
      "name": "advancedLiquidityTest",
      "outputs": [],
      "stateMutability": "nonpayable",
      "type": "function"
    },
    {
      "inputs": [],
      "name": "emergencyWithdraw",
      "outputs": [],
      "stateMutability": "nonpayable",
      "type": "function"
    },
    {
      "inputs": [],
      "name": "factory",
      "outputs": [
        {
          "internalType": "contract VaultFactorySlim",
          "name": "",
          "type": "address"
        }
      ],
      "stateMutability": "view",
      "type": "function"
    },
    {
      "inputs": [
        {
          "internalType": "address",
          "name": "user",
          "type": "address"
        }
      ],
      "name": "getStatusString",
      "outputs": [
        {
          "internalType": "string",
          "name": "",
          "type": "string"
        }
      ],
      "stateMutability": "view",
      "type": "function"
    },
    {
      "inputs": [],
      "name": "getStrategyMetrics",
      "outputs": [
        {
          "internalType": "uint256",
          "name": "totalDeposits0",
          "type": "uint256"
        },
        {
          "internalType": "uint256",
          "name": "totalDeposits1",
          "type": "uint256"
        },
        {
          "internalType": "uint256",
          "name": "currentBalance0",
          "type": "uint256"
        },
        {
          "internalType": "uint256",
          "name": "currentBalance1",
          "type": "uint256"
        },
        {
          "internalType": "uint256",
          "name": "lastHarvestTime",
          "type": "uint256"
        },
        {
          "internalType": "bool",
          "name": "hasPool",
          "type": "bool"
        }
      ],
      "stateMutability": "view",
      "type": "function"
    },
    {
      "inputs": [
        {
          "internalType": "address",
          "name": "user",
          "type": "address"
        }
      ],
      "name": "getSystemStatus",
      "outputs": [
        {
          "components": [
            {
              "internalType": "uint256",
              "name": "userUsdcShares",
              "type": "uint256"
            },
            {
              "internalType": "uint256",
              "name": "userWethShares",
              "type": "uint256"
            },
            {
              "internalType": "uint256",
              "name": "strategyBalance",
              "type": "uint256"
            },
            {
              "internalType": "uint256",
              "name": "vaultUsdcBalance",
              "type": "uint256"
            },
            {
              "internalType": "uint256",
              "name": "vaultWethBalance",
              "type": "uint256"
            },
            {
              "internalType": "uint256",
              "name": "totalVaultValue",
              "type": "uint256"
            },
            {
              "internalType": "bool",
              "name": "hasPool",
              "type": "bool"
            },
            {
              "internalType": "address",
              "name": "poolAddress",
              "type": "address"
            }
          ],
          "internalType": "struct VaultUsageExample.SystemStatus",
          "name": "status",
          "type": "tuple"
        }
      ],
      "stateMutability": "view",
      "type": "function"
    },
    {
      "inputs": [],
      "name": "runCompleteExample",
      "outputs": [],
      "stateMutability": "nonpayable",
      "type": "function"
    },
    {
      "inputs": [
        {
          "internalType": "address",
          "name": "tokenIn",
          "type": "address"
        },
        {
          "internalType": "address",
          "name": "tokenOut",
          "type": "address"
        },
        {
          "internalType": "uint256",
          "name": "amountIn",
          "type": "uint256"
        }
      ],
      "name": "simulateSwap",
      "outputs": [
        {
          "internalType": "uint256",
          "name": "amountOut",
          "type": "uint256"
        }
      ],
      "stateMutability": "nonpayable",
      "type": "function"
    },
    {
      "inputs": [],
      "name": "strategy",
      "outputs": [
        {
          "internalType": "contract EulerSwapStrategy",
          "name": "",
          "type": "address"
        }
      ],
      "stateMutability": "view",
      "type": "function"
    },
    {
      "inputs": [],
      "name": "usdc",
      "outputs": [
        {
          "internalType": "contract MockUSDC",
          "name": "",
          "type": "address"
        }
      ],
      "stateMutability": "view",
      "type": "function"
    },
    {
      "inputs": [],
      "name": "usdcVault",
      "outputs": [
        {
          "internalType": "contract Vault",
          "name": "",
          "type": "address"
        }
      ],
      "stateMutability": "view",
      "type": "function"
    },
    {
      "inputs": [],
      "name": "weth",
      "outputs": [
        {
          "internalType": "contract MockWETH",
          "name": "",
          "type": "address"
        }
      ],
      "stateMutability": "view",
      "type": "function"
    },
    {
      "inputs": [],
      "name": "wethVault",
      "outputs": [
        {
          "internalType": "contract Vault",
          "name": "",
          "type": "address"
        }
      ],
      "stateMutability": "view",
      "type": "function"
    }
  ],
  "bytecode": "0x60803461010d57601f61261738819003918201601f19168301916001600160401b038311848410176101125780849260c09460405283398101031261010d5761004781610128565b9061005460208201610128565b61006060408301610128565b61006c60608401610128565b9160a061007b60808601610128565b9401516001600160a01b038116959086900361010d57600080546001600160a01b03199081166001600160a01b03938416179091556001805482169383169390931790925560028054831693821693909317909255600380548216938316939093179092556004805483169390911692909217909155600580549091169190911790556040516124da908161013d8239f35b600080fd5b634e487b7160e01b600052604160045260246000fd5b51906001600160a01b038216820361010d5756fe6080604052600436101561001257600080fd5b6000803560e01c8063115b0e0e1461199b5780632655886e14610e1b5780632ede5ad614610d2b5780633c4d09fc1461079f5780633e413bee146107785780633fc8cef31461075157806345c397eb1461072a578063a8c62e7614610703578063be93981f146106dc578063c45a0155146106b6578063db2e21bc14610492578063e45a956e146104185763e65ffdd6146100ac57600080fd5b34610415576020600319360112610415576101bf6103bc601e600e6103d09460146100dd6100d86119e1565b611e91565b9160136100ea845161231b565b93816100f9602083015161231b565b93610107604084015161231b565b9060c061011760a086015161231b565b940151156103d45750604e604051610130604082611a5d565b600781527f43726561746564000000000000000000000000000000000000000000000000006020820152955b816040519d8e809b7f3d3d3d205641554c542053595354454d20535441545553203d3d3d0a0000000060208301527f557365722055534443205368617265733a200000000000000000000000000000603c830152602081519485930191016119f7565b89017f0a00000000000000000000000000000000000000000000000000000000000000838201527f557365722057455448205368617265733a200000000000000000000000000000604f8201526102208251809360206061850191016119f7565b01017f0a00000000000000000000000000000000000000000000000000000000000000838201527f53747261746567792042616c616e63653a200000000000000000000000000000878201526102808251809360206026850191016119f7565b01017f0a00000000000000000000000000000000000000000000000000000000000000838201527f546f74616c205661756c742056616c75653a2000000000000000000000000000858201526102e08251809360206027850191016119f7565b01017f0a00000000000000000000000000000000000000000000000000000000000000838201527f506f6f6c205374617475733a200000000000000000000000000000000000000060158201526103418251809360206022850191016119f7565b01017f0a00000000000000000000000000000000000000000000000000000000000000838201527f45756c65725377617020496e746567726174696f6e3a20416374697665000000600f82015203017ffffffffffffffffffffffffffffffffffffffffffffffffffffffffffffffffe810184520182611a5d565b604051918291602083526020830190611a1a565b0390f35b50604e6040516103e5604082611a5d565b600b81527f4e6f74204372656174656400000000000000000000000000000000000000000060208201529561015c565b80fd5b5034610415576020600319360112610415576101006104386100d86119e1565b6001600160a01b0360e060405192805184526020810151602085015260408101516040850152606081015160608501526080810151608085015260a081015160a085015260c0810151151560c085015201511660e0820152f35b5034610415578060031936011261041557806001600160a01b03600154166001600160a01b036003541690803b156106b257604080517fb5eb73600000000000000000000000000000000000000000000000000000000081526001600160a01b0393909316600484015260248301526000604483015290919081908390606490829084905af19182610699575b50506105f157600161052f611dbf565b6308c379a01461054d575b6105415780f35b604051903d90823e3d90fd5b610555611ddd565b80610561575b5061053a565b90507f2fe73da55570bf27ddd87dd5e7885136977e169186dce08f3615da45ce0872dc82916001600160a01b03600354166105e860405192839260808452601560808501527f456d657267656e63792045786974204661696c6564000000000000000000000060a0850152876020850152604084015260c0606084015260c0830190611a1a565b0390a13861055b565b7f2fe73da55570bf27ddd87dd5e7885136977e169186dce08f3615da45ce0872dc6101006001600160a01b03600354166040519060808252600e60808301527f456d657267656e6379204578697400000000000000000000000000000000000060a0830152846020830152604082015260c06060820152601860c08201527f456d657267656e6379206578697420636f6d706c65746564000000000000000060e0820152a180f35b816106a391611a5d565b6106ae57813861051f565b5080fd5b5050fd5b50346104155780600319360112610415576001600160a01b036020915416604051908152f35b503461041557806003193601126104155760206001600160a01b0360025416604051908152f35b503461041557806003193601126104155760206001600160a01b0360035416604051908152f35b503461041557806003193601126104155760206001600160a01b0360015416604051908152f35b503461041557806003193601126104155760206001600160a01b0360055416604051908152f35b503461041557806003193601126104155760206001600160a01b0360045416604051908152f35b5034610415578060031936011261041557806001600160a01b0360045416803b15610d13578180916024604051809481937f579158970000000000000000000000000000000000000000000000000000000083526402540be40060048401525af18015610c0d57610d16575b506001600160a01b0360055416803b15610d13578180916024604051809481937f57915897000000000000000000000000000000000000000000000000000000008352674563918244f4000060048401525af18015610c0d57610cfe575b5060206001600160a01b036004541660446001600160a01b036001541660405194859384927f095ea7b300000000000000000000000000000000000000000000000000000000845260048401526401dcd6500060248401525af18015610c0d57610cc7575b508060206001600160a01b036005541660446001600160a01b036002541660405194859384927f095ea7b30000000000000000000000000000000000000000000000000000000084526004840152673782dace9d90000060248401525af18015610c0d57610c90575b508060206001600160a01b03600154166044604051809481937f6e553f650000000000000000000000000000000000000000000000000000000083526401dcd6500060048401523360248401525af18015610c0d57610c61575b508060206001600160a01b03600254166044604051809481937f6e553f65000000000000000000000000000000000000000000000000000000008352673782dace9d90000060048401523360248401525af18015610c0d57610c32575b508060405164012a05f2006020820152671bc16d674ec8000060408201526001606082015260608152610a22608082611a5d565b6001600160a01b0360015416906001600160a01b036003541690823b15610c2d57610a97928492836040518096819582947fbd07fdac00000000000000000000000000000000000000000000000000000000845260048401526401a13b86006024840152606060448401526064830190611a1a565b03925af18015610c0d57610c18575b50506001600160a01b03600454166001600160a01b0360055416604051917f115b0e0e000000000000000000000000000000000000000000000000000000008352600483015260248201526305f5e100604482015260208160648185305af18015610c0d57610bd9575b507f2fe73da55570bf27ddd87dd5e7885136977e169186dce08f3615da45ce0872dc61012060405160808152601660808201527f416476616e636564205465737420436f6d706c6574650000000000000000000060a08201526401a13b8600602082015233604082015260c06060820152602860c08201527f4c61726765206c6971756964697479206465706c6f796d656e7420616e64207360e08201527f7761702074657374000000000000000000000000000000000000000000000000610100820152a180f35b6020813d602011610c05575b81610bf260209383611a5d565b81010312610c005751610b10565b600080fd5b3d9150610be5565b6040513d84823e3d90fd5b81610c2291611a5d565b610415578038610aa6565b505050fd5b6020813d602011610c59575b81610c4b60209383611a5d565b81010312610c0057516109ee565b3d9150610c3e565b6020813d602011610c88575b81610c7a60209383611a5d565b81010312610c005751610991565b3d9150610c6d565b6020813d602011610cbf575b81610ca960209383611a5d565b810103126106ae57610cba90611db2565b610937565b3d9150610c9c565b6020813d602011610cf6575b81610ce060209383611a5d565b810103126106ae57610cf190611db2565b6108ce565b3d9150610cd3565b81610d0891611a5d565b610415578038610869565b50fd5b81610d2091611a5d565b61041557803861080b565b5034610415578060031936011261041557600460c06001600160a01b0360035416604051928380927f2ede5ad60000000000000000000000000000000000000000000000000000000082525afa8015610c0d5782918384859186938795610db5575b5060c096506040519586526020860152604085015260608401526080830152151560a0820152f35b9550505050505060c0813d60c011610e13575b81610dd560c09383611a5d565b810103126106ae5760c091508051906020810151916040820151916060810151610e0660a060808401519301611db2565b9294939091929338610d8d565b3d9150610dc8565b5034610415578060031936011261041557806001600160a01b0360045416803b15610d13578180916024604051809581937f5791589700000000000000000000000000000000000000000000000000000000835264012a05f20060048401525af1801561198e5761197e575b90506001600160a01b0360055416803b15610d13578180916024604051809481937f57915897000000000000000000000000000000000000000000000000000000008352671bc16d674ec8000060048401525af18015610c0d57611969575b505030330361183d575b7f2fe73da55570bf27ddd87dd5e7885136977e169186dce08f3615da45ce0872dc61010060405160808152600f60808201527f546f6b656e73204163717569726564000000000000000000000000000000000060a0820152671bc16d6878cdf200602082015233604082015260c06060820152601b60c08201527f476f74207465737420746f6b656e732066726f6d20666175636574000000000060e0820152a18060206001600160a01b036004541660446001600160a01b036001541660405194859384927f095ea7b30000000000000000000000000000000000000000000000000000000084526004840152637735940060248401525af18015610c0d57611806575b508060206001600160a01b036005541660446001600160a01b036002541660405194859384927f095ea7b30000000000000000000000000000000000000000000000000000000084526004840152670de0b6b3a764000060248401525af18015610c0d576117cf575b50808060206001600160a01b03600154166044604051809481937f6e553f65000000000000000000000000000000000000000000000000000000008352637735940060048401523360248401525af1908115610c0d57829161179a575b5060206001600160a01b03600254166044604051809581937f6e553f65000000000000000000000000000000000000000000000000000000008352670de0b6b3a764000060048401523360248401525af191821561178f578392611759575b506111497f2fe73da55570bf27ddd87dd5e7885136977e169186dce08f3615da45ce0872dc9261010092611e55565b6040519060808252601360808301527f4465706f736974656420746f205661756c74730000000000000000000000000060a0830152602082015233604082015260c06060820152601560c08201527f5265636569766564207661756c7420736861726573000000000000000000000060e0820152a1604051633b9aca0060208201526706f05b59d3b20000604082015260016060820152606081526111ef608082611a5d565b816001600160a01b0360015416916001600160a01b036003541690833b1561175557611264938392836040518097819582947fbd07fdac00000000000000000000000000000000000000000000000000000000845260048401526359682f006024840152606060448401526064830190611a1a565b03925af19182611740575b505061166b57600161127f611dbf565b6308c379a0146115c3575b610541575b806001600160a01b03600154166001600160a01b036003541690803b156106b257604080517fd2b3d6ce0000000000000000000000000000000000000000000000000000000081526001600160a01b0393909316600484015260248301526000604483015290919081908390606490829084905af191826115ae575b50506114dd57600161131b611dbf565b6308c379a014611439575b610541575b7f2fe73da55570bf27ddd87dd5e7885136977e169186dce08f3615da45ce0872dc61135533611e91565b60a081015160c090910151156113fb57604051611373604082611a5d565b601981527f506f6f6c2063726561746564207375636365737366756c6c79000000000000006020820152905b6113f560405192839260808452601960808501527f436f6d706c657465204578616d706c652046696e69736865640000000000000060a0850152602084015233604084015260c0606084015260c0830190611a1a565b0390a180f35b604051611409604082611a5d565b600f81527f4e6f20706f6f6c2063726561746564000000000000000000000000000000000060208201529061139f565b611441611ddd565b8061144d575b50611326565b90507f2fe73da55570bf27ddd87dd5e7885136977e169186dce08f3615da45ce0872dc82916001600160a01b03600354166114d460405192839260808452600e60808501527f48617276657374204661696c656400000000000000000000000000000000000060a0850152876020850152604084015260c0606084015260c0830190611a1a565b0390a138611447565b7f2fe73da55570bf27ddd87dd5e7885136977e169186dce08f3615da45ce0872dc6101206001600160a01b03600354166040519060808252601160808301527f486172766573746564205265776172647300000000000000000000000000000060a0830152846020830152604082015260c06060820152602760c08201527f5375636365737366756c6c79206861727665737465642073747261746567792060e08201527f7265776172647300000000000000000000000000000000000000000000000000610100820152a161132b565b816115b891611a5d565b6106ae57813861130b565b6115cb611ddd565b806115d7575b5061128a565b90507f2fe73da55570bf27ddd87dd5e7885136977e169186dce08f3615da45ce0872dc82916001600160a01b036003541661166260405192839260808452601a60808501527f5374726174656779204465706c6f796d656e74204661696c656400000000000060a08501526359682f006020850152604084015260c0606084015260c0830190611a1a565b0390a1386115d1565b7f2fe73da55570bf27ddd87dd5e7885136977e169186dce08f3615da45ce0872dc6101206001600160a01b03600354166040519060808252601460808301527f4465706c6f79656420746f20537472617465677900000000000000000000000060a08301526359682f006020830152604082015260c06060820152602460c08201527f46756e6473206465706c6f79656420746f2045756c657253776170207374726160e08201527f7465677900000000000000000000000000000000000000000000000000000000610100820152a161128f565b8161174a91611a5d565b6106ae57813861126f565b8280fd5b91506020823d602011611787575b8161177460209383611a5d565b81010312610c005790519061114961111a565b3d9150611767565b6040513d85823e3d90fd5b9150506020813d6020116117c7575b816117b660209383611a5d565b81010312610c0057819051386110bb565b3d91506117a9565b6020813d6020116117fe575b816117e860209383611a5d565b810103126106ae576117f990611db2565b61105e565b3d91506117db565b6020813d602011611835575b8161181f60209383611a5d565b810103126106ae5761183090611db2565b610ff5565b3d9150611812565b8060206001600160a01b03600454166044604051809481937fa9059cbb00000000000000000000000000000000000000000000000000000000835233600484015264012a05f20060248401525af18015610c0d57611932575b508060206001600160a01b03600554166044604051809481937fa9059cbb000000000000000000000000000000000000000000000000000000008352336004840152671bc16d674ec8000060248401525af18015610c0d576118f9575b50610ef0565b6020813d60201161192a575b8161191260209383611a5d565b810103126106ae5761192390611db2565b50386118f3565b3d9150611905565b6020813d602011611961575b8161194b60209383611a5d565b810103126106ae5761195c90611db2565b611896565b3d915061193e565b8161197391611a5d565b610415578038610ee6565b61198791611a5d565b3881610e87565b50604051903d90823e3d90fd5b5034610415576060600319360112610415576119b56119e1565b90602435906001600160a01b03821682036104155760206119d96044358486611aff565b604051908152f35b600435906001600160a01b0382168203610c0057565b60005b838110611a0a5750506000910152565b81810151838201526020016119fa565b907fffffffffffffffffffffffffffffffffffffffffffffffffffffffffffffffe0601f602093611a56815180928187528780880191016119f7565b0116010190565b90601f7fffffffffffffffffffffffffffffffffffffffffffffffffffffffffffffffe0910116810190811067ffffffffffffffff821117611a9e57604052565b7f4e487b7100000000000000000000000000000000000000000000000000000000600052604160045260246000fd5b9190826080910312610c005781516001600160a01b0381168103610c0057916020810151916060604083015192015190565b929190600093600460806001600160a01b0360035416604051928380927f60246c880000000000000000000000000000000000000000000000000000000082525afa8015611d6c576001600160a01b0391600091611d3a575b50168015611cc95760846020926001600160a01b03928360405196879586947f8e0dc28d000000000000000000000000000000000000000000000000000000008652166004850152166024830152866044830152600160648301525afa60009181611c95575b50611c2c575060a07f983c7c1af31e2daca546f8f478602efb06d5894db36561f31dc5b9996d73d06c916040519060608252600c60608301527f51756f7465204661696c656400000000000000000000000000000000000000006080830152602082015260006040820152a1565b925060a07f983c7c1af31e2daca546f8f478602efb06d5894db36561f31dc5b9996d73d06c91846040519160608352600e60608401527f537761702053696d756c61746564000000000000000000000000000000000000608084015260208301526040820152a1565b90916020823d602011611cc1575b81611cb060209383611a5d565b810103126104155750519038611bbe565b3d9150611ca3565b5050507f983c7c1af31e2daca546f8f478602efb06d5894db36561f31dc5b9996d73d06c91925060a0906040519060608252600b60608301527f53776170204661696c65640000000000000000000000000000000000000000006080830152602082015260006040820152a1600090565b611d5c915060803d608011611d65575b611d548183611a5d565b810190611acd565b50505038611b58565b503d611d4a565b6040513d6000823e3d90fd5b67ffffffffffffffff8111611a9e57601f017fffffffffffffffffffffffffffffffffffffffffffffffffffffffffffffffe01660200190565b51908115158203610c0057565b60009060033d11611dcc57565b905060046000803e60005160e01c90565b600060443d10611e44576040516003193d016004823e8051913d602484011167ffffffffffffffff841117611e4f578282019283519167ffffffffffffffff8311611e47576003193d85010160208487010111611e475750611e4492910160200190611a5d565b90565b949350505050565b92915050565b91908201809211611e6257565b7f4e487b7100000000000000000000000000000000000000000000000000000000600052601160045260246000fd5b9060405191610100830183811067ffffffffffffffff821117611a9e576040526000835260208301906000825260408401916000835260608501906000825260808601926000845260a08701916000835260c08801956000875260e089019560008752896001600160a01b0360015416946001600160a01b03604051917f70a0823100000000000000000000000000000000000000000000000000000000835216918260048301526020826024818a5afa918215611d6c576000926122e7575b50526001600160a01b036002541693604051917f70a082310000000000000000000000000000000000000000000000000000000083526004830152602082602481885afa918215611d6c576000926122b3575b50526001600160a01b036003541695604051927f12065fe00000000000000000000000000000000000000000000000000000000084526020846004818b5afa908115611d6c5760009161227e575b602494505260206001600160a01b0360045416604051948580927f70a082310000000000000000000000000000000000000000000000000000000082528960048301525afa908115611d6c57600091612249575b602493505260206001600160a01b0360055416604051938480927f70a082310000000000000000000000000000000000000000000000000000000082528760048301525afa918215611d6c57600092612212575b509260209160049452604051938480927f01e1d1140000000000000000000000000000000000000000000000000000000082525afa918215611d6c576000926121dd575b50906020600492604051938480927f01e1d1140000000000000000000000000000000000000000000000000000000082525afa918215611d6c576000926121a3575b509161213160049492608094611e55565b9052604051928380927f60246c880000000000000000000000000000000000000000000000000000000082525afa8015611d6c576001600160a01b0391600091612181575b501691821515905252565b61219a915060803d608011611d6557611d548183611a5d565b50505038612176565b939150916020843d6020116121d5575b816121c060209383611a5d565b81010312610c00579251909291612131612120565b3d91506121b3565b91506020823d60201161220a575b816121f860209383611a5d565b81010312610c005790519060206120de565b3d91506121eb565b9150926020823d602011612241575b8161222e60209383611a5d565b81010312610c005790519092600461209a565b3d9150612221565b90506020833d602011612276575b8161226460209383611a5d565b81010312610c00576024925190612046565b3d9150612257565b90506020843d6020116122ab575b8161229960209383611a5d565b81010312610c00576024935190611ff2565b3d915061228c565b9091506020813d6020116122df575b816122cf60209383611a5d565b81010312610c0057519038611fa4565b3d91506122c2565b9091506020813d602011612313575b8161230360209383611a5d565b81010312610c0057519038611f51565b3d91506122f6565b801561246857600081805b612432575061233481611d78565b906123426040519283611a5d565b8082527fffffffffffffffffffffffffffffffffffffffffffffffffffffffffffffffe061236f82611d78565b013660208401375b8092801561242b577fffffffffffffffffffffffffffffffffffffffffffffffffffffffffffffffff8201918211611e62578193600a82066030019283603011611e6257845111156123fc57601f7fff00000000000000000000000000000000000000000000000000000000000000600a9460f81b1660001a91850101530491612377565b7f4e487b7100000000000000000000000000000000000000000000000000000000600052603260045260246000fd5b5050905090565b907fffffffffffffffffffffffffffffffffffffffffffffffffffffffffffffffff8114611e62576001600a9101910480612326565b50604051612477604082611a5d565b600181527f300000000000000000000000000000000000000000000000000000000000000060208201529056fea2646970667358221220a66b57941300767a802740f3d85c890c56dba04bcb9b7956965fdcdfe3bbe96c64736f6c634300081c0033",
  "linkReferences": {},
  "deployedLinkReferences": {}
}