{
  "_format": "hh-sol-artifact-1",
  "contractName": "EulerSwapStrategy",
  "sourceName": "contracts/strategies/EulerSwapStrategy.sol",
  "abi": [
    {
      "inputs": [
        {
          "internalType": "address",
          "name": "_vault",
          "type": "address"
        },
        {
          "internalType": "address",
          "name": "_eulerSwapFactory",
          "type": "address"
        },
        {
          "internalType": "address",
          "name": "_token0",
          "type": "address"
        },
        {
          "internalType": "address",
          "name": "_token1",
          "type": "address"
        },
        {
          "internalType": "address",
          "name": "_eVault0",
          "type": "address"
        },
        {
          "internalType": "address",
          "name": "_eVault1",
          "type": "address"
        }
      ],
      "stateMutability": "nonpayable",
      "type": "constructor"
    },
    {
      "inputs": [
        {
          "internalType": "bytes",
          "name": "reason",
          "type": "bytes"
        }
      ],
      "name": "ClaimFailed",
      "type": "error"
    },
    {
      "inputs": [
        {
          "internalType": "bytes",
          "name": "reason",
          "type": "bytes"
        }
      ],
      "name": "DepositFailed",
      "type": "error"
    },
    {
      "inputs": [
        {
          "internalType": "bytes",
          "name": "reason",
          "type": "bytes"
        }
      ],
      "name": "GetBalanceFailed",
      "type": "error"
    },
    {
      "inputs": [],
      "name": "InvalidAmount",
      "type": "error"
    },
    {
      "inputs": [],
      "name": "InvalidTokenAddress",
      "type": "error"
    },
    {
      "inputs": [],
      "name": "InvalidTokens",
      "type": "error"
    },
    {
      "inputs": [],
      "name": "NoUnderlyingBalance",
      "type": "error"
    },
    {
      "inputs": [],
      "name": "NoVaultSet",
      "type": "error"
    },
    {
      "inputs": [],
      "name": "OnlyVault",
      "type": "error"
    },
    {
      "inputs": [],
      "name": "PoolAlreadyExists",
      "type": "error"
    },
    {
      "inputs": [],
      "name": "PoolNotFound",
      "type": "error"
    },
    {
      "inputs": [],
      "name": "StrategyPaused",
      "type": "error"
    },
    {
      "inputs": [
        {
          "internalType": "bytes",
          "name": "reason",
          "type": "bytes"
        }
      ],
      "name": "WithdrawFailed",
      "type": "error"
    },
    {
      "anonymous": false,
      "inputs": [
        {
          "indexed": false,
          "internalType": "uint256",
          "name": "amount",
          "type": "uint256"
        }
      ],
      "name": "Claim",
      "type": "event"
    },
    {
      "anonymous": false,
      "inputs": [
        {
          "indexed": false,
          "internalType": "bytes",
          "name": "reason",
          "type": "bytes"
        }
      ],
      "name": "ClaimRewardsFailed",
      "type": "event"
    },
    {
      "anonymous": false,
      "inputs": [
        {
          "indexed": false,
          "internalType": "uint256",
          "name": "amount",
          "type": "uint256"
        }
      ],
      "name": "Deposit",
      "type": "event"
    },
    {
      "anonymous": false,
      "inputs": [
        {
          "indexed": false,
          "internalType": "uint256",
          "name": "balance",
          "type": "uint256"
        },
        {
          "indexed": false,
          "internalType": "bytes",
          "name": "data",
          "type": "bytes"
        }
      ],
      "name": "EmergencyExited",
      "type": "event"
    },
    {
      "anonymous": false,
      "inputs": [
        {
          "indexed": false,
          "internalType": "uint256",
          "name": "amount",
          "type": "uint256"
        },
        {
          "indexed": false,
          "internalType": "bytes",
          "name": "data",
          "type": "bytes"
        }
      ],
      "name": "Executed",
      "type": "event"
    },
    {
      "anonymous": false,
      "inputs": [
        {
          "indexed": false,
          "internalType": "uint256",
          "name": "amount0",
          "type": "uint256"
        },
        {
          "indexed": false,
          "internalType": "uint256",
          "name": "amount1",
          "type": "uint256"
        }
      ],
      "name": "FeesCollected",
      "type": "event"
    },
    {
      "anonymous": false,
      "inputs": [
        {
          "indexed": false,
          "internalType": "bytes",
          "name": "data",
          "type": "bytes"
        }
      ],
      "name": "Harvested",
      "type": "event"
    },
    {
      "anonymous": false,
      "inputs": [
        {
          "indexed": false,
          "internalType": "uint256",
          "name": "amount0",
          "type": "uint256"
        },
        {
          "indexed": false,
          "internalType": "uint256",
          "name": "amount1",
          "type": "uint256"
        }
      ],
      "name": "LiquidityAdded",
      "type": "event"
    },
    {
      "anonymous": false,
      "inputs": [
        {
          "indexed": false,
          "internalType": "uint256",
          "name": "amount0",
          "type": "uint256"
        },
        {
          "indexed": false,
          "internalType": "uint256",
          "name": "amount1",
          "type": "uint256"
        }
      ],
      "name": "LiquidityRemoved",
      "type": "event"
    },
    {
      "anonymous": false,
      "inputs": [
        {
          "indexed": false,
          "internalType": "bool",
          "name": "isPaused",
          "type": "bool"
        }
      ],
      "name": "PausedState",
      "type": "event"
    },
    {
      "anonymous": false,
      "inputs": [
        {
          "indexed": true,
          "internalType": "address",
          "name": "pool",
          "type": "address"
        },
        {
          "indexed": false,
          "internalType": "address",
          "name": "token0",
          "type": "address"
        },
        {
          "indexed": false,
          "internalType": "address",
          "name": "token1",
          "type": "address"
        }
      ],
      "name": "PoolCreated",
      "type": "event"
    },
    {
      "anonymous": false,
      "inputs": [
        {
          "indexed": true,
          "internalType": "address",
          "name": "token",
          "type": "address"
        }
      ],
      "name": "RewardTokenAdded",
      "type": "event"
    },
    {
      "anonymous": false,
      "inputs": [
        {
          "indexed": true,
          "internalType": "bytes32",
          "name": "role",
          "type": "bytes32"
        },
        {
          "indexed": true,
          "internalType": "bytes32",
          "name": "previousAdminRole",
          "type": "bytes32"
        },
        {
          "indexed": true,
          "internalType": "bytes32",
          "name": "newAdminRole",
          "type": "bytes32"
        }
      ],
      "name": "RoleAdminChanged",
      "type": "event"
    },
    {
      "anonymous": false,
      "inputs": [
        {
          "indexed": true,
          "internalType": "bytes32",
          "name": "role",
          "type": "bytes32"
        },
        {
          "indexed": true,
          "internalType": "address",
          "name": "account",
          "type": "address"
        },
        {
          "indexed": true,
          "internalType": "address",
          "name": "sender",
          "type": "address"
        }
      ],
      "name": "RoleGranted",
      "type": "event"
    },
    {
      "anonymous": false,
      "inputs": [
        {
          "indexed": true,
          "internalType": "bytes32",
          "name": "role",
          "type": "bytes32"
        },
        {
          "indexed": true,
          "internalType": "address",
          "name": "account",
          "type": "address"
        },
        {
          "indexed": true,
          "internalType": "address",
          "name": "sender",
          "type": "address"
        }
      ],
      "name": "RoleRevoked",
      "type": "event"
    },
    {
      "anonymous": false,
      "inputs": [
        {
          "indexed": true,
          "internalType": "address",
          "name": "token",
          "type": "address"
        },
        {
          "indexed": false,
          "internalType": "uint256",
          "name": "amount",
          "type": "uint256"
        }
      ],
      "name": "TokensForwarded",
      "type": "event"
    },
    {
      "anonymous": false,
      "inputs": [
        {
          "indexed": false,
          "internalType": "address",
          "name": "vault",
          "type": "address"
        }
      ],
      "name": "VaultSet",
      "type": "event"
    },
    {
      "anonymous": false,
      "inputs": [
        {
          "indexed": false,
          "internalType": "uint256",
          "name": "amount",
          "type": "uint256"
        }
      ],
      "name": "Withdraw",
      "type": "event"
    },
    {
      "inputs": [],
      "name": "DEFAULT_ADMIN_ROLE",
      "outputs": [
        {
          "internalType": "bytes32",
          "name": "",
          "type": "bytes32"
        }
      ],
      "stateMutability": "view",
      "type": "function"
    },
    {
      "inputs": [],
      "name": "VAULT_ROLE",
      "outputs": [
        {
          "internalType": "bytes32",
          "name": "",
          "type": "bytes32"
        }
      ],
      "stateMutability": "view",
      "type": "function"
    },
    {
      "inputs": [
        {
          "internalType": "address",
          "name": "tokenAddress",
          "type": "address"
        }
      ],
      "name": "addRewardToken",
      "outputs": [],
      "stateMutability": "nonpayable",
      "type": "function"
    },
    {
      "inputs": [
        {
          "internalType": "bytes",
          "name": "data",
          "type": "bytes"
        }
      ],
      "name": "claimRewards",
      "outputs": [],
      "stateMutability": "nonpayable",
      "type": "function"
    },
    {
      "inputs": [],
      "name": "claimSelector",
      "outputs": [
        {
          "internalType": "bytes4",
          "name": "",
          "type": "bytes4"
        }
      ],
      "stateMutability": "pure",
      "type": "function"
    },
    {
      "inputs": [],
      "name": "deploymentTime",
      "outputs": [
        {
          "internalType": "uint256",
          "name": "",
          "type": "uint256"
        }
      ],
      "stateMutability": "view",
      "type": "function"
    },
    {
      "inputs": [],
      "name": "depositSelector",
      "outputs": [
        {
          "internalType": "bytes4",
          "name": "",
          "type": "bytes4"
        }
      ],
      "stateMutability": "pure",
      "type": "function"
    },
    {
      "inputs": [],
      "name": "eVault0",
      "outputs": [
        {
          "internalType": "address",
          "name": "",
          "type": "address"
        }
      ],
      "stateMutability": "view",
      "type": "function"
    },
    {
      "inputs": [],
      "name": "eVault1",
      "outputs": [
        {
          "internalType": "address",
          "name": "",
          "type": "address"
        }
      ],
      "stateMutability": "view",
      "type": "function"
    },
    {
      "inputs": [
        {
          "internalType": "bytes",
          "name": "data",
          "type": "bytes"
        }
      ],
      "name": "emergencyExit",
      "outputs": [],
      "stateMutability": "nonpayable",
      "type": "function"
    },
    {
      "inputs": [],
      "name": "eulerSwapFactory",
      "outputs": [
        {
          "internalType": "address",
          "name": "",
          "type": "address"
        }
      ],
      "stateMutability": "view",
      "type": "function"
    },
    {
      "inputs": [],
      "name": "eulerSwapPool",
      "outputs": [
        {
          "internalType": "address",
          "name": "",
          "type": "address"
        }
      ],
      "stateMutability": "view",
      "type": "function"
    },
    {
      "inputs": [
        {
          "internalType": "uint256",
          "name": "amount",
          "type": "uint256"
        },
        {
          "internalType": "bytes",
          "name": "data",
          "type": "bytes"
        }
      ],
      "name": "execute",
      "outputs": [],
      "stateMutability": "nonpayable",
      "type": "function"
    },
    {
      "inputs": [],
      "name": "getBalance",
      "outputs": [
        {
          "internalType": "uint256",
          "name": "",
          "type": "uint256"
        }
      ],
      "stateMutability": "view",
      "type": "function"
    },
    {
      "inputs": [],
      "name": "getBalanceSelector",
      "outputs": [
        {
          "internalType": "bytes4",
          "name": "",
          "type": "bytes4"
        }
      ],
      "stateMutability": "pure",
      "type": "function"
    },
    {
      "inputs": [],
      "name": "getPoolInfo",
      "outputs": [
        {
          "internalType": "address",
          "name": "pool",
          "type": "address"
        },
        {
          "internalType": "uint256",
          "name": "reserve0",
          "type": "uint256"
        },
        {
          "internalType": "uint256",
          "name": "reserve1",
          "type": "uint256"
        },
        {
          "internalType": "uint256",
          "name": "totalValue",
          "type": "uint256"
        }
      ],
      "stateMutability": "view",
      "type": "function"
    },
    {
      "inputs": [
        {
          "internalType": "bytes32",
          "name": "role",
          "type": "bytes32"
        }
      ],
      "name": "getRoleAdmin",
      "outputs": [
        {
          "internalType": "bytes32",
          "name": "",
          "type": "bytes32"
        }
      ],
      "stateMutability": "view",
      "type": "function"
    },
    {
      "inputs": [],
      "name": "getStrategyMetrics",
      "outputs": [
        {
          "internalType": "uint256",
          "name": "totalDeposits0",
          "type": "uint256"
        },
        {
          "internalType": "uint256",
          "name": "totalDeposits1",
          "type": "uint256"
        },
        {
          "internalType": "uint256",
          "name": "currentBalance0",
          "type": "uint256"
        },
        {
          "internalType": "uint256",
          "name": "currentBalance1",
          "type": "uint256"
        },
        {
          "internalType": "uint256",
          "name": "lastHarvestTime",
          "type": "uint256"
        },
        {
          "internalType": "bool",
          "name": "hasPool",
          "type": "bool"
        }
      ],
      "stateMutability": "view",
      "type": "function"
    },
    {
      "inputs": [
        {
          "internalType": "bytes32",
          "name": "role",
          "type": "bytes32"
        },
        {
          "internalType": "address",
          "name": "account",
          "type": "address"
        }
      ],
      "name": "grantRole",
      "outputs": [],
      "stateMutability": "nonpayable",
      "type": "function"
    },
    {
      "inputs": [
        {
          "internalType": "bytes",
          "name": "data",
          "type": "bytes"
        }
      ],
      "name": "harvest",
      "outputs": [],
      "stateMutability": "nonpayable",
      "type": "function"
    },
    {
      "inputs": [
        {
          "internalType": "bytes32",
          "name": "role",
          "type": "bytes32"
        },
        {
          "internalType": "address",
          "name": "account",
          "type": "address"
        }
      ],
      "name": "hasRole",
      "outputs": [
        {
          "internalType": "bool",
          "name": "",
          "type": "bool"
        }
      ],
      "stateMutability": "view",
      "type": "function"
    },
    {
      "inputs": [
        {
          "internalType": "address",
          "name": "token",
          "type": "address"
        }
      ],
      "name": "knownRewardTokens",
      "outputs": [
        {
          "internalType": "bool",
          "name": "",
          "type": "bool"
        }
      ],
      "stateMutability": "view",
      "type": "function"
    },
    {
      "inputs": [],
      "name": "lastHarvest",
      "outputs": [
        {
          "internalType": "uint256",
          "name": "",
          "type": "uint256"
        }
      ],
      "stateMutability": "view",
      "type": "function"
    },
    {
      "inputs": [],
      "name": "paused",
      "outputs": [
        {
          "internalType": "bool",
          "name": "",
          "type": "bool"
        }
      ],
      "stateMutability": "view",
      "type": "function"
    },
    {
      "inputs": [],
      "name": "poolParams",
      "outputs": [
        {
          "internalType": "address",
          "name": "vault0",
          "type": "address"
        },
        {
          "internalType": "address",
          "name": "vault1",
          "type": "address"
        },
        {
          "internalType": "address",
          "name": "eulerAccount",
          "type": "address"
        },
        {
          "internalType": "uint112",
          "name": "equilibriumReserve0",
          "type": "uint112"
        },
        {
          "internalType": "uint112",
          "name": "equilibriumReserve1",
          "type": "uint112"
        },
        {
          "internalType": "uint256",
          "name": "priceX",
          "type": "uint256"
        },
        {
          "internalType": "uint256",
          "name": "priceY",
          "type": "uint256"
        },
        {
          "internalType": "uint256",
          "name": "concentrationX",
          "type": "uint256"
        },
        {
          "internalType": "uint256",
          "name": "concentrationY",
          "type": "uint256"
        },
        {
          "internalType": "uint256",
          "name": "fee",
          "type": "uint256"
        },
        {
          "internalType": "uint256",
          "name": "protocolFee",
          "type": "uint256"
        },
        {
          "internalType": "address",
          "name": "protocolFeeRecipient",
          "type": "address"
        }
      ],
      "stateMutability": "view",
      "type": "function"
    },
    {
      "inputs": [],
      "name": "protocol",
      "outputs": [
        {
          "internalType": "address",
          "name": "",
          "type": "address"
        }
      ],
      "stateMutability": "view",
      "type": "function"
    },
    {
      "inputs": [
        {
          "internalType": "bytes4",
          "name": "selector",
          "type": "bytes4"
        },
        {
          "internalType": "bytes",
          "name": "params",
          "type": "bytes"
        }
      ],
      "name": "queryProtocol",
      "outputs": [
        {
          "internalType": "bytes",
          "name": "",
          "type": "bytes"
        }
      ],
      "stateMutability": "view",
      "type": "function"
    },
    {
      "inputs": [
        {
          "internalType": "bytes32",
          "name": "role",
          "type": "bytes32"
        },
        {
          "internalType": "address",
          "name": "account",
          "type": "address"
        }
      ],
      "name": "renounceRole",
      "outputs": [],
      "stateMutability": "nonpayable",
      "type": "function"
    },
    {
      "inputs": [
        {
          "internalType": "bytes32",
          "name": "role",
          "type": "bytes32"
        },
        {
          "internalType": "address",
          "name": "account",
          "type": "address"
        }
      ],
      "name": "revokeRole",
      "outputs": [],
      "stateMutability": "nonpayable",
      "type": "function"
    },
    {
      "inputs": [],
      "name": "rewardTokensList",
      "outputs": [
        {
          "internalType": "address[]",
          "name": "",
          "type": "address[]"
        }
      ],
      "stateMutability": "view",
      "type": "function"
    },
    {
      "inputs": [
        {
          "internalType": "bool",
          "name": "_paused",
          "type": "bool"
        }
      ],
      "name": "setPaused",
      "outputs": [],
      "stateMutability": "nonpayable",
      "type": "function"
    },
    {
      "inputs": [
        {
          "internalType": "address",
          "name": "_vault",
          "type": "address"
        }
      ],
      "name": "setVault",
      "outputs": [],
      "stateMutability": "nonpayable",
      "type": "function"
    },
    {
      "inputs": [
        {
          "internalType": "bytes4",
          "name": "interfaceId",
          "type": "bytes4"
        }
      ],
      "name": "supportsInterface",
      "outputs": [
        {
          "internalType": "bool",
          "name": "",
          "type": "bool"
        }
      ],
      "stateMutability": "view",
      "type": "function"
    },
    {
      "inputs": [],
      "name": "token0",
      "outputs": [
        {
          "internalType": "address",
          "name": "",
          "type": "address"
        }
      ],
      "stateMutability": "view",
      "type": "function"
    },
    {
      "inputs": [],
      "name": "token1",
      "outputs": [
        {
          "internalType": "address",
          "name": "",
          "type": "address"
        }
      ],
      "stateMutability": "view",
      "type": "function"
    },
    {
      "inputs": [],
      "name": "totalDeposited0",
      "outputs": [
        {
          "internalType": "uint256",
          "name": "",
          "type": "uint256"
        }
      ],
      "stateMutability": "view",
      "type": "function"
    },
    {
      "inputs": [],
      "name": "totalDeposited1",
      "outputs": [
        {
          "internalType": "uint256",
          "name": "",
          "type": "uint256"
        }
      ],
      "stateMutability": "view",
      "type": "function"
    },
    {
      "inputs": [],
      "name": "underlyingToken",
      "outputs": [
        {
          "internalType": "address",
          "name": "",
          "type": "address"
        }
      ],
      "stateMutability": "view",
      "type": "function"
    },
    {
      "inputs": [],
      "name": "vault",
      "outputs": [
        {
          "internalType": "address",
          "name": "",
          "type": "address"
        }
      ],
      "stateMutability": "view",
      "type": "function"
    },
    {
      "inputs": [],
      "name": "withdrawSelector",
      "outputs": [
        {
          "internalType": "bytes4",
          "name": "",
          "type": "bytes4"
        }
      ],
      "stateMutability": "pure",
      "type": "function"
    }
  ],
  "bytecode": "0x60a0806040523461043e5760c0816139cb803803809161001f8285610443565b83398101031261043e576100328161047c565b61003e6020830161047c565b9061004b6040840161047c565b6100576060850161047c565b9161007060a06100696080880161047c565b960161047c565b60016000556001600160a01b03909116938415610409576001600160a01b03169182156103d2576001600160a01b031694851515806103c0575b1561038a576001600160a01b03169283151580610378575b1561034157600280546001600160a01b031990811687179091556004805482169094179093556005805484169096179095556006805483166001600160a01b03968716179055600780548316841790556008805490921694169384179055426080819052600b553360009081527fa6eef7e35abe7026729641147f7915573c7e97b47efa546f5f6e3230263bcb4960209081526040822054919492909160ff1615610305575b6000805160206139ab83398151915285526001825260408520848652825260ff604086205416156102b0575b60055460405163095ea7b360e01b81526004810192909252851960248301529094859160449183916001600160a01b03165af190811561028957600093602092610295575b5060065460405163095ea7b360e01b81526004810192909252841960248301529093849160449183916001600160a01b03165af1908115610289577fe7ae49f883c825b05681b3e00e8be6fdea9ed2a8a45e4c6ecb9390fc44cce6159260209261025e575b50604051908152a16040516134e290816104a98239608051816102870152f35b61027d90833d8511610282575b6102758183610443565b810190610490565b61023e565b503d61026b565b6040513d6000823e3d90fd5b6102ab90833d8511610282576102758183610443565b6101d9565b6000805160206139ab83398151915285526001825260408520848652825260408520600160ff1982541617905533846000805160206139ab83398151915260008051602061398b8339815191528880a4610194565b8480526001808352604080872033808952908552908720805460ff1916909217909155808660008051602061398b8339815191528180a4610168565b60405162461bcd60e51b815260206004820152600f60248201526e496e76616c696420655661756c747360881b6044820152606490fd5b506001600160a01b03821615156100c2565b60405162461bcd60e51b815260206004820152600e60248201526d496e76616c696420746f6b656e7360901b6044820152606490fd5b506001600160a01b03841615156100aa565b60405162461bcd60e51b815260206004820152600f60248201526e496e76616c696420666163746f727960881b6044820152606490fd5b60405162461bcd60e51b815260206004820152600d60248201526c125b9d985b1a59081d985d5b1d609a1b6044820152606490fd5b600080fd5b601f909101601f19168101906001600160401b0382119082101761046657604052565b634e487b7160e01b600052604160045260246000fd5b51906001600160a01b038216820361043e57565b9081602091031261043e5751801515810361043e579056fe608080604052600436101561001357600080fd5b60003560e01c90816301ffc9a7146120d15750806309f99b99146120b35780630dfe168114611ebc57806312065fe01461209857806316c38b3c1461200057806319706b3814611f495780631c03e6cc14611f18578063248a9ca314611ee35780632495a59914611ebc5780632c1c12761461194f5780632c354142146119315780632ede5ad6146116c25780632f2ff15d146115dd57806332872f90146115b657806336568abe146114fd57806338c1d467146114a8578063504ee05a1461146d57806359efcb15146109f05780635c975abb146109ca5780635d2e04701461098f57806360246c88146108b0578063633f14ef146108525780636817031b146106ba578063870240b31461067f578063870e4bef146106445780638b2bf5891461061d5780638ce744261461061d57806391d14854146105cf57806398c4f1ac14610594578063a217fddf14610578578063ce5c7f61146104dd578063d21220a7146104b6578063d547741f1461046f578063e190febc14610383578063ea8ec92a146102aa578063ecda10f51461026f578063ee854b7c14610248578063f131b23514610221578063f1a392da146102035763fbfa77cf146101d757600080fd5b346101fe5760006003193601126101fe5760206001600160a01b0360025416604051908152f35b600080fd5b346101fe5760006003193601126101fe576020600b54604051908152f35b346101fe5760006003193601126101fe5760206001600160a01b0360045416604051908152f35b346101fe5760006003193601126101fe5760206001600160a01b0360085416604051908152f35b346101fe5760006003193601126101fe5760206040517f00000000000000000000000000000000000000000000000000000000000000008152f35b346101fe5760006003193601126101fe576040516102c9606082612249565b600281526020810160403682376001600160a01b03600554168251156103545781526001600160a01b036006541682516001101561035457604083929301526040519182916020830190602084525180915260408301919060005b818110610332575050500390f35b82516001600160a01b0316845285945060209384019390920191600101610324565b7f4e487b7100000000000000000000000000000000000000000000000000000000600052603260045260246000fd5b346101fe5760206003193601126101fe5760043567ffffffffffffffff81116101fe576103b49036906004016121d3565b906001600160a01b036002541633141580610436575b61040c577fac04581c930eefb60cf2509de6e2388cbcde488697b9c13ca8dc5cddc8171860916104076040519283926020845260208401916124e5565b0390a1005b7f8d1af8bd0000000000000000000000000000000000000000000000000000000060005260046000fd5b503360009081527f81ca3e78767fe7984cabec333f0414457dbe87b59d50ac066de98618b846bf81602052604090205460ff16156103ca565b346101fe5760406003193601126101fe576104b460043561048e6121bd565b906104af6104aa82600052600160205260016040600020015490565b612db3565b612ec3565b005b346101fe5760006003193601126101fe5760206001600160a01b0360065416604051908152f35b346101fe5760206003193601126101fe5760043567ffffffffffffffff81116101fe5761050e9036906004016121d3565b6001600160a01b03600254163314158061053f575b61040c5761053891610533612dfd565b612802565b6001600055005b503360009081527f81ca3e78767fe7984cabec333f0414457dbe87b59d50ac066de98618b846bf81602052604090205460ff1615610523565b346101fe5760006003193601126101fe57602060405160008152f35b346101fe5760006003193601126101fe5760206040517f31e0210044b4f6757ce6aa31f9c6e8d4896d24a755014887391a926c5224d9598152f35b346101fe5760406003193601126101fe576105e86121bd565b60043560005260016020526001600160a01b0360406000209116600052602052602060ff604060002054166040519015158152f35b346101fe5760006003193601126101fe5760206001600160a01b0360035416604051908152f35b346101fe5760006003193601126101fe5760206040517f12065fe0000000000000000000000000000000000000000000000000000000008152f35b346101fe5760006003193601126101fe5760206040517fce5c7f61000000000000000000000000000000000000000000000000000000008152f35b346101fe5760206003193601126101fe576001600160a01b036106db6121a7565b6106e3612c93565b16801561082857600280547fffffffffffffffffffffffff0000000000000000000000000000000000000000168217905560008181527f81ca3e78767fe7984cabec333f0414457dbe87b59d50ac066de98618b846bf8160209081526040909120547fe7ae49f883c825b05681b3e00e8be6fdea9ed2a8a45e4c6ecb9390fc44cce615929060ff161561077a575b604051908152a1005b7f31e0210044b4f6757ce6aa31f9c6e8d4896d24a755014887391a926c5224d959600052600182526040600020816000528252604060002060017fffffffffffffffffffffffffffffffffffffffffffffffffffffffffffffff0082541617905533817f31e0210044b4f6757ce6aa31f9c6e8d4896d24a755014887391a926c5224d9597f2f8788117e7eff1d82e926ec794901d17c78024a50270940304540a733656f0d600080a4610771565b7f1eb00b060000000000000000000000000000000000000000000000000000000060005260046000fd5b346101fe5760406003193601126101fe5761086b61216b565b60243567ffffffffffffffff81116101fe576108ac916108926108989236906004016121d3565b9161259e565b604051918291602083526020830190612224565b0390f35b346101fe5760006003193601126101fe5760806000806001600160a01b036003541691826108f9575b6108e16122b7565b91604051938452602084015260408301526060820152f35b6040517f0902f1ac0000000000000000000000000000000000000000000000000000000081529150606082600481865afa8092829361095b575b506109425750506000806108d9565b6dffffffffffffffffffffffffffff80911691166108d9565b909250610980915060603d606011610988575b6109788183612249565b810190612538565b509185610933565b503d61096e565b346101fe5760006003193601126101fe5760206040517f2c1c1276000000000000000000000000000000000000000000000000000000008152f35b346101fe5760006003193601126101fe57602060ff60025460a01c166040519015158152f35b346101fe5760406003193601126101fe5760043560243567ffffffffffffffff81116101fe57610a249036906004016121d3565b916002546001600160a01b03811633141580611434575b61040c5760a01c60ff1661140a57610a51612dfd565b80156113e05760608284810103126101fe5781356020830135610a766040850161219a565b83610a81838561227b565b036113e057821515806113c2575b82151591826113a4575b80611391575b610f14575b6003546001600160a01b031615610d4e576001600160a01b036003541615610d2457610c86575b610b66575b937f38f8a0c92f4c5b0b6877f878cb4c0c8d348a47b76d716c8e78f425043df9515b6040610b5c937f2e733a17851169f232b3859260eb3ad2a086afd54e999eb4ea9afb7791702e419782519182526020820152a15b7f4d6ce1e535dbade1c23defba91e23b8f791ce5edc0cc320257a2b364e4e384266020604051858152a160405193849384612506565b0390a16001600055005b6008546040517f6e553f650000000000000000000000000000000000000000000000000000000081526004810183905230602482015290602090829060449082906000906001600160a01b03165af18015610c7a57610c26575b50937f38f8a0c92f4c5b0b6877f878cb4c0c8d348a47b76d716c8e78f425043df9515b6040610b5c9387610c177f2e733a17851169f232b3859260eb3ad2a086afd54e999eb4ea9afb7791702e4199600a5461227b565b600a5593975093505050610ad0565b94906020863d602011610c72575b81610c4160209383612249565b810103126101fe579094507f38f8a0c92f4c5b0b6877f878cb4c0c8d348a47b76d716c8e78f425043df9515b610bc0565b3d9150610c34565b6040513d6000823e3d90fd5b6007546040517f6e553f650000000000000000000000000000000000000000000000000000000081526004810185905230602482015290602090829060449082906000906001600160a01b03165af18015610c7a57610cf5575b50610ced8360095461227b565b600955610acb565b6020813d602011610d1c575b81610d0e60209383612249565b810103126101fe5751610ce0565b3d9150610d01565b7f76ecffc00000000000000000000000000000000000000000000000000000000060005260046000fd5b92909192610e70575b50610d88575b50610b5c7f2e733a17851169f232b3859260eb3ad2a086afd54e999eb4ea9afb7791702e4193610b26565b6008546040517f6e553f650000000000000000000000000000000000000000000000000000000081526004810183905230602482015290602090829060449082906000906001600160a01b03165af18015610c7a57610e1e575b507f2e733a17851169f232b3859260eb3ad2a086afd54e999eb4ea9afb7791702e4193610e14610b5c92600a5461227b565b600a559350610d5d565b936020853d602011610e68575b81610e3860209383612249565b810103126101fe5793507f2e733a17851169f232b3859260eb3ad2a086afd54e999eb4ea9afb7791702e41610de2565b3d9150610e2b565b6007546040517f6e553f65000000000000000000000000000000000000000000000000000000008152600481018390523060248201529190602090839060449082906000906001600160a01b03165af18015610c7a57610ee1575b610ed8915060095461227b565b60095585610d57565b6020823d602011610f0c575b81610efa60209383612249565b810103126101fe57610ed89150610ecb565b3d9150610eed565b6001600160a01b0360035416611367576001600160a01b03600754166001600160a01b03600854166dffffffffffffffffffffffffffff8616906dffffffffffffffffffffffffffff861692604051610180810181811067ffffffffffffffff8211176113385760009161016091604052838152846020820152306040820152856060820152866080820152670de0b6b3a764000060a0820152670de0b6b3a764000060c0820152670de0b6b3a764000060e0820152670de0b6b3a7640000610100820152610bb86101208201528261014082015201527fffffffffffffffffffffffff0000000000000000000000000000000000000000600c541617600c557fffffffffffffffffffffffff0000000000000000000000000000000000000000600d541617600d55307fffffffffffffffffffffffff0000000000000000000000000000000000000000600e541617600e55600f54817fffffffff000000000000000000000000000000000000000000000000000000007bffffffffffffffffffffffffffff00000000000000000000000000008860701b1692161717600f55670de0b6b3a7640000601055670de0b6b3a7640000601155670de0b6b3a7640000601255670de0b6b3a7640000601355610bb860145560006015557fffffffffffffffffffffffff000000000000000000000000000000000000000060165416601655604051906040820182811067ffffffffffffffff821117611338576020926dffffffffffffffffffffffffffff926101e492604052815283810194855260006001600160a01b0360045416604051868101903060601b825242603482015260348152611185605482612249565b5190208560405198899788967fa5c1bb460000000000000000000000000000000000000000000000000000000088526001600160a01b03600c541660048901526001600160a01b03600d541660248901526001600160a01b03600e5416604489015281600f5481811660648b015260701c16608489015260105460a489015260115460c489015260125460e48901526013546101048901526014546101248901526015546101448901526001600160a01b0360165416610164890152511661018487015251166101a48501526101c48401525af180916000916112ef575b5090611270575b50610aa4565b6001600160a01b0316807fffffffffffffffffffffffff000000000000000000000000000000000000000060035416176003557f9c5d829b9b23efc461f9aeef91979ec04bb903feb3bee4f26d22114abfc7335b60406001600160a01b03600554166001600160a01b036006541682519182526020820152a28761126a565b6020813d602011611330575b8161130860209383612249565b8101031261132c5751906001600160a01b0382168203611329575089611263565b80fd5b5080fd5b3d91506112fb565b7f4e487b7100000000000000000000000000000000000000000000000000000000600052604160045260246000fd5b7f031193220000000000000000000000000000000000000000000000000000000060005260046000fd5b506001600160a01b036003541615610a9f565b6113bd846001600160a01b036006541630903390612f6e565b610a99565b6113db846001600160a01b036005541630903390612f6e565b610a8f565b7f2c5211c60000000000000000000000000000000000000000000000000000000060005260046000fd5b7fe628b9490000000000000000000000000000000000000000000000000000000060005260046000fd5b503360009081527f81ca3e78767fe7984cabec333f0414457dbe87b59d50ac066de98618b846bf81602052604090205460ff1615610a3b565b346101fe5760006003193601126101fe5760206040517f59efcb15000000000000000000000000000000000000000000000000000000008152f35b346101fe5760206003193601126101fe5760206114c36121a7565b6001600160a01b03806005541691169081149081156114e8575b506040519015158152f35b90506001600160a01b036006541614826114dd565b346101fe5760406003193601126101fe576115166121bd565b336001600160a01b03821603611532576104b490600435612ec3565b60846040517f08c379a000000000000000000000000000000000000000000000000000000000815260206004820152602f60248201527f416363657373436f6e74726f6c3a2063616e206f6e6c792072656e6f756e636560448201527f20726f6c657320666f722073656c6600000000000000000000000000000000006064820152fd5b346101fe5760006003193601126101fe5760206001600160a01b0360075416604051908152f35b346101fe5760406003193601126101fe576004356115f96121bd565b906116156104aa82600052600160205260016040600020015490565b80600052600160205260406000206001600160a01b03831660005260205260ff604060002054161561164357005b80600052600160205260406000206001600160a01b038316600052602052604060002060017fffffffffffffffffffffffffffffffffffffffffffffffffffffffffffffff008254161790556001600160a01b03339216907f2f8788117e7eff1d82e926ec794901d17c78024a50270940304540a733656f0d600080a4005b346101fe5760006003193601126101fe57600954600a54906001600160a01b0360075416916040517f70a08231000000000000000000000000000000000000000000000000000000008152306004820152602081602481875afa908115610c7a576000916118ff575b506001600160a01b036008541693604051917f70a08231000000000000000000000000000000000000000000000000000000008352306004840152602083602481895afa928315610c7a576000936118cb575b5080156118c1576020906024604051809481937f07a2d13a00000000000000000000000000000000000000000000000000000000835260048301525afa908115610c7a5760009161188f575b50905b8015611883576020906024604051809781937f07a2d13a00000000000000000000000000000000000000000000000000000000835260048301525afa8015610c7a57600090611850575b60c094505b600b54916001600160a01b0360035416151593604051958652602086015260408501526060840152608083015260a0820152f35b506020843d60201161187b575b8161186a60209383612249565b810103126101fe5760c09351611817565b3d915061185d565b5060c09350600061181c565b90506020813d6020116118b9575b816118aa60209383612249565b810103126101fe5751856117ca565b3d915061189d565b50506000906117cd565b90926020823d6020116118f7575b816118e660209383612249565b81010312611329575051918661177e565b3d91506118d9565b906020823d602011611929575b8161191960209383612249565b810103126113295750518461172b565b3d915061190c565b346101fe5760006003193601126101fe576020600a54604051908152f35b346101fe5760206003193601126101fe5760043567ffffffffffffffff81116101fe576119809036906004016121d3565b906001600160a01b036002541633141580611e83575b61040c576119a2612dfd565b6001600160a01b036007541691604051927f70a08231000000000000000000000000000000000000000000000000000000008452306004850152602084602481845afa938415610c7a57600094611e4c575b509260249360206001600160a01b0360085416604051968780927f70a082310000000000000000000000000000000000000000000000000000000082523060048301525afa948515610c7a57600095611e18575b5081611d1d575b5083611c00575b6001600160a01b03600554166040517f70a08231000000000000000000000000000000000000000000000000000000008152306004820152602081602481855afa908115610c7a57600091611bcd575b509060249160206001600160a01b0360065416604051948580927f70a082310000000000000000000000000000000000000000000000000000000082523060048301525afa928315610c7a57600093611b97575b5092611b45927f33707543538a74978cfbe255a9a187ce79ed7695a03a48d36b5a3cf8b569aa52979285610b5c96611b7a575b505080611b52575b5060006009556000600a5561227b565b9160405193849384612506565b611b74906001600160a01b03600654166001600160a01b036002541690612e6c565b87611b35565b611b90916001600160a01b036002541690612e6c565b8880611b2d565b90926020823d602011611bc5575b81611bb260209383612249565b8101031261132957505191610b5c611afa565b3d9150611ba5565b906020823d602011611bf8575b81611be760209383612249565b810103126113295750516024611aa6565b3d9150611bda565b6001600160a01b03600854166040517f07a2d13a000000000000000000000000000000000000000000000000000000008152856004820152602081602481855afa908115610c7a57600091611ce9575b506002546040517fb460af9400000000000000000000000000000000000000000000000000000000815260048101929092526001600160a01b0316602482015230604482015290602090829081600081606481015b03925af18015610c7a57611cba575b50611a56565b611cdb9060203d602011611ce2575b611cd38183612249565b81019061226c565b5084611cb4565b503d611cc9565b90506020813d602011611d15575b81611d0460209383612249565b810103126101fe5751611ca5611c50565b3d9150611cf7565b6040517f07a2d13a000000000000000000000000000000000000000000000000000000008152826004820152602081602481855afa908115610c7a57600091611de4575b506002546040517fb460af9400000000000000000000000000000000000000000000000000000000815260048101929092526001600160a01b0316602482015230604482015290602090829081600081606481015b03925af18015610c7a5715611a4f57611ddd9060203d602011611ce257611cd38183612249565b5084611a4f565b90506020813d602011611e10575b81611dff60209383612249565b810103126101fe5751611db6611d61565b3d9150611df2565b90946020823d602011611e44575b81611e3360209383612249565b810103126113295750519385611a48565b3d9150611e26565b6020813d602011611e7b575b81611e6560209383612249565b81010312611e775751935060246119f4565b8480fd5b3d9150611e58565b503360009081527f81ca3e78767fe7984cabec333f0414457dbe87b59d50ac066de98618b846bf81602052604090205460ff1615611996565b346101fe5760006003193601126101fe5760206001600160a01b0360055416604051908152f35b346101fe5760206003193601126101fe576020611f10600435600052600160205260016040600020015490565b604051908152f35b346101fe5760206003193601126101fe576001600160a01b03611f396121a7565b611f41612c93565b161561082857005b346101fe5760006003193601126101fe576101806001600160a01b03600c54166001600160a01b03600d54166001600160a01b03600e5416600f5460105460115460125490601354926dffffffffffffffffffffffffffff60145495601554976001600160a01b0360165416996040519b8c5260208c015260408b015281811660608b015260701c16608089015260a088015260c087015260e0860152610100850152610120840152610140830152610160820152f35b346101fe5760206003193601126101fe576004358015158091036101fe5760207f6c44c1c6e888a23752ec9c1d8f194bfb0ea295ccdb49b3da95d5be50c9db97699161204a612c93565b6002547fffffffffffffffffffffff00ffffffffffffffffffffffffffffffffffffffff74ff00000000000000000000000000000000000000008360a01b16911617600255604051908152a1005b346101fe5760006003193601126101fe576020611f106122b7565b346101fe5760006003193601126101fe576020600954604051908152f35b346101fe5760206003193601126101fe576020907fffffffff0000000000000000000000000000000000000000000000000000000061210e61216b565b167f7965db0b000000000000000000000000000000000000000000000000000000008114908115612141575b5015158152f35b7f01ffc9a7000000000000000000000000000000000000000000000000000000009150148361213a565b600435907fffffffff00000000000000000000000000000000000000000000000000000000821682036101fe57565b359081151582036101fe57565b600435906001600160a01b03821682036101fe57565b602435906001600160a01b03821682036101fe57565b9181601f840112156101fe5782359167ffffffffffffffff83116101fe57602083818601950101116101fe57565b60005b8381106122145750506000910152565b8181015183820152602001612204565b90601f19601f60209361224281518092818752878088019101612201565b0116010190565b90601f601f19910116810190811067ffffffffffffffff82111761133857604052565b908160209103126101fe575190565b9190820180921161228857565b7f4e487b7100000000000000000000000000000000000000000000000000000000600052601160045260246000fd5b6001600160a01b03600754166040517f70a08231000000000000000000000000000000000000000000000000000000008152306004820152602081602481855afa908115610c7a576000916124b3575b506001600160a01b036008541691604051917f70a08231000000000000000000000000000000000000000000000000000000008352306004840152602083602481875afa928315610c7a5760009361247f575b508015612475576020906024604051809481937f07a2d13a00000000000000000000000000000000000000000000000000000000835260048301525afa908115610c7a57600091612443575b50905b8015612435576020906024604051809581937f07a2d13a00000000000000000000000000000000000000000000000000000000835260048301525afa8015610c7a57600090612401575b6123fe92509061227b565b90565b506020823d60201161242d575b8161241b60209383612249565b810103126101fe576123fe91516123f3565b3d915061240e565b506123fe915060009061227b565b90506020813d60201161246d575b8161245e60209383612249565b810103126101fe5751386123a6565b3d9150612451565b50506000906123a9565b90926020823d6020116124ab575b8161249a60209383612249565b81010312611329575051913861235a565b3d915061248d565b906020823d6020116124dd575b816124cd60209383612249565b8101031261132957505138612307565b3d91506124c0565b601f8260209493601f19938186528686013760008582860101520116010190565b6040906123fe9492815281602082015201916124e5565b51906dffffffffffffffffffffffffffff821682036101fe57565b908160609103126101fe5761254c8161251d565b91604061255b6020840161251d565b92015163ffffffff811681036101fe5790565b67ffffffffffffffff811161133857601f01601f191660200190565b35906001600160a01b03821682036101fe57565b90916001600160a01b03600354169182156127e3577fffffffff00000000000000000000000000000000000000000000000000000000167f0902f1ac000000000000000000000000000000000000000000000000000000008114612728577f8e0dc28d000000000000000000000000000000000000000000000000000000001461263a57505050604051612633602082612249565b6000815290565b82608091810103126101fe576001600160a01b03608460209261265c8561258a565b9061266885870161258a565b9560406126776060830161219a565b91868251998a9889977f8e0dc28d00000000000000000000000000000000000000000000000000000000895216600488015216602486015201356044840152151560648301525afa600091816126f4575b506126dc5750604051612633602082612249565b604051906020820152602081526123fe604082612249565b9091506020813d602011612720575b8161271060209383612249565b810103126101fe575190386126c8565b3d9150612703565b505060049150606090604051928380927f0902f1ac0000000000000000000000000000000000000000000000000000000082525afa60009182918291816127bb575b5061278057505050604051612633602082612249565b6dffffffffffffffffffffffffffff63ffffffff928160405195166020860152166040840152166060820152606081526123fe608082612249565b915092506127d8915060603d606011610988576109788183612249565b91929091903861276a565b50505050604051612633602082612249565b9190820391821161228857565b6001600160a01b036003541615612c8f576001600160a01b0360075416916040517f70a08231000000000000000000000000000000000000000000000000000000008152306004820152602081602481875afa908115610c7a57600091612c5d575b506001600160a01b0360085416604051917f70a08231000000000000000000000000000000000000000000000000000000008352306004840152602083602481855afa928315610c7a57600093612c29575b508015612c2057604051907f07a2d13a0000000000000000000000000000000000000000000000000000000082526004820152602081602481895afa908115610c7a57600091612bee575b50915b8015612be4576020906024604051809481937f07a2d13a00000000000000000000000000000000000000000000000000000000835260048301525afa908115610c7a57600091612bb2575b50905b60095460009181811115612baa5761296a92506127f5565b905b600a5460009181811115612ba25761298492506127f5565b935b811580158091612b99575b6129d8575b5050507fac04581c930eefb60cf2509de6e2388cbcde488697b9c13ca8dc5cddc817186092506129d36040519283926020845260208401916124e5565b0390a1565b612b19575b5083612a41575b60407f49d512bf9cb224241c05691e73eb9fab078cf350c7dbcbcf66788f1fc0cc8b0b917fac04581c930eefb60cf2509de6e2388cbcde488697b9c13ca8dc5cddc81718609542600b5582519182526020820152a1388080612996565b6008546002546040517fb460af94000000000000000000000000000000000000000000000000000000008152600481018790526001600160a01b039182166024820152306044820152929160209184916064918391600091165af1908115610c7a577fac04581c930eefb60cf2509de6e2388cbcde488697b9c13ca8dc5cddc8171860957f49d512bf9cb224241c05691e73eb9fab078cf350c7dbcbcf66788f1fc0cc8b0b93604093612afa575b5095509150506129e4565b612b129060203d602011611ce257611cd38183612249565b5038612aef565b6002546040517fb460af94000000000000000000000000000000000000000000000000000000008152600481018490526001600160a01b03909116602482015230604482015290602090829060649082906000905af18015610c7a57156129dd57612b929060203d602011611ce257611cd38183612249565b50386129dd565b50851515612991565b505093612986565b50509061296c565b90506020813d602011612bdc575b81612bcd60209383612249565b810103126101fe57513861294f565b3d9150612bc0565b5050600090612952565b90506020813d602011612c18575b81612c0960209383612249565b810103126101fe575138612901565b3d9150612bfc565b50600091612904565b90926020823d602011612c55575b81612c4460209383612249565b8101031261132957505191386128b6565b3d9150612c37565b906020823d602011612c87575b81612c7760209383612249565b8101031261132957505138612864565b3d9150612c6a565b5050565b3360009081527fa6eef7e35abe7026729641147f7915573c7e97b47efa546f5f6e3230263bcb49602052604090205460ff1615612ccc57565b612daf612cd833613120565b612d756011612ce76000613309565b9260376040519485927f416363657373436f6e74726f6c3a206163636f756e74200000000000000000006020850152612d298151809260208688019101612201565b83017f206973206d697373696e6720726f6c652000000000000000000000000000000083820152612d64825180936020604885019101612201565b01010301601f198101835282612249565b6040519182917f08c379a0000000000000000000000000000000000000000000000000000000008352602060048401526024830190612224565b0390fd5b80600052600160205260406000206001600160a01b03331660005260205260ff6040600020541615612de25750565b612daf90612d756011612ce7612df733613120565b93613309565b600260005414612e0e576002600055565b60646040517f08c379a000000000000000000000000000000000000000000000000000000000815260206004820152601f60248201527f5265656e7472616e637947756172643a207265656e7472616e742063616c6c006044820152fd5b612ec1926001600160a01b03604051937fa9059cbb000000000000000000000000000000000000000000000000000000006020860152166024840152604483015260448252612ebc606483612249565b612fc8565b565b80600052600160205260406000206001600160a01b03831660005260205260ff60406000205416612ef2575050565b80600052600160205260406000206001600160a01b03831660005260205260406000207fffffffffffffffffffffffffffffffffffffffffffffffffffffffffffffff0081541690556001600160a01b03339216907ff6391f5c32d9c69d2a47ea670b442974b53935d1edc7fd64eb21e047a839171b600080a4565b9091926001600160a01b03612ec19481604051957f23b872dd000000000000000000000000000000000000000000000000000000006020880152166024860152166044840152606483015260648252612ebc608483612249565b6001600160a01b0361304a911691604092600080855193612fe98786612249565b602085527f5361666545524332303a206c6f772d6c6576656c2063616c6c206661696c6564602086015260208151910182855af13d15613107573d9161302e8361256e565b9261303b87519485612249565b83523d6000602085013e6133e0565b80519081159182156130e4575b5050156130615750565b608490517f08c379a000000000000000000000000000000000000000000000000000000000815260206004820152602a60248201527f5361666545524332303a204552433230206f7065726174696f6e20646964206e60448201527f6f742073756363656564000000000000000000000000000000000000000000006064820152fd5b81925090602091810103126101fe576020015180151581036101fe573880613057565b6060916133e0565b908151811015610354570160200190565b60009061312d602a61256e565b9161313b6040519384612249565b602a8352613149602a61256e565b601f196020850191013682378351156132dc57603090538251600110156132af576078602184015350602960005b600182116131e65750506131885790565b60646040517f08c379a000000000000000000000000000000000000000000000000000000000815260206004820152602060248201527f537472696e67733a20686578206c656e67746820696e73756666696369656e746044820152fd5b9091600f81166010811015613282577f3031323334353637383961626364656600000000000000000000000000000000901a613222848661310f565b5360041c918015613255577fffffffffffffffffffffffffffffffffffffffffffffffffffffffffffffffff0190613177565b6024827f4e487b710000000000000000000000000000000000000000000000000000000081526011600452fd5b6024837f4e487b710000000000000000000000000000000000000000000000000000000081526032600452fd5b807f4e487b7100000000000000000000000000000000000000000000000000000000602492526032600452fd5b6024827f4e487b710000000000000000000000000000000000000000000000000000000081526032600452fd5b600090613316604261256e565b916133246040519384612249565b60428352613332604261256e565b601f196020850191013682378351156132dc57603090538251600110156132af576078602184015350604160005b600182116133715750506131885790565b9091600f81166010811015613282577f3031323334353637383961626364656600000000000000000000000000000000901a6133ad848661310f565b5360041c918015613255577fffffffffffffffffffffffffffffffffffffffffffffffffffffffffffffffff0190613360565b9192901561345b57508151156133f4575090565b3b156133fd5790565b60646040517f08c379a000000000000000000000000000000000000000000000000000000000815260206004820152601d60248201527f416464726573733a2063616c6c20746f206e6f6e2d636f6e74726163740000006044820152fd5b82519091501561346e5750805190602001fd5b612daf906040519182917f08c379a000000000000000000000000000000000000000000000000000000000835260206004840152602483019061222456fea2646970667358221220cb87d339febc618a7241191a885b2a71d5eb062778c192824be6998539d0547a64736f6c634300081c00332f8788117e7eff1d82e926ec794901d17c78024a50270940304540a733656f0d31e0210044b4f6757ce6aa31f9c6e8d4896d24a755014887391a926c5224d959",
  "linkReferences": {},
  "deployedLinkReferences": {}
}