{
  "_format": "hh-sol-artifact-1",
  "contractName": "Vault",
  "sourceName": "contracts/core/Vault.sol",
  "abi": [
    {
      "inputs": [
        {
          "internalType": "contract IERC20",
          "name": "_asset",
          "type": "address"
        },
        {
          "internalType": "string",
          "name": "_name",
          "type": "string"
        },
        {
          "internalType": "string",
          "name": "_symbol",
          "type": "string"
        },
        {
          "internalType": "address",
          "name": "_manager",
          "type": "address"
        },
        {
          "internalType": "address",
          "name": "_agent",
          "type": "address"
        }
      ],
      "stateMutability": "nonpayable",
      "type": "constructor"
    },
    {
      "inputs": [],
      "name": "ExecutionFailed",
      "type": "error"
    },
    {
      "inputs": [],
      "name": "InsufficientBalance",
      "type": "error"
    },
    {
      "inputs": [],
      "name": "InvalidAddress",
      "type": "error"
    },
    {
      "inputs": [],
      "name": "InvalidAmount",
      "type": "error"
    },
    {
      "inputs": [],
      "name": "InvalidStrategy",
      "type": "error"
    },
    {
      "inputs": [],
      "name": "StrategyAlreadyExists",
      "type": "error"
    },
    {
      "inputs": [],
      "name": "StrategyDoesNotExist",
      "type": "error"
    },
    {
      "anonymous": false,
      "inputs": [
        {
          "indexed": true,
          "internalType": "address",
          "name": "owner",
          "type": "address"
        },
        {
          "indexed": true,
          "internalType": "address",
          "name": "spender",
          "type": "address"
        },
        {
          "indexed": false,
          "internalType": "uint256",
          "name": "value",
          "type": "uint256"
        }
      ],
      "name": "Approval",
      "type": "event"
    },
    {
      "anonymous": false,
      "inputs": [
        {
          "indexed": true,
          "internalType": "address",
          "name": "sender",
          "type": "address"
        },
        {
          "indexed": true,
          "internalType": "address",
          "name": "owner",
          "type": "address"
        },
        {
          "indexed": false,
          "internalType": "uint256",
          "name": "assets",
          "type": "uint256"
        },
        {
          "indexed": false,
          "internalType": "uint256",
          "name": "shares",
          "type": "uint256"
        }
      ],
      "name": "Deposit",
      "type": "event"
    },
    {
      "anonymous": false,
      "inputs": [
        {
          "indexed": true,
          "internalType": "address",
          "name": "previousOwner",
          "type": "address"
        },
        {
          "indexed": true,
          "internalType": "address",
          "name": "newOwner",
          "type": "address"
        }
      ],
      "name": "OwnershipTransferred",
      "type": "event"
    },
    {
      "anonymous": false,
      "inputs": [
        {
          "indexed": true,
          "internalType": "bytes32",
          "name": "role",
          "type": "bytes32"
        },
        {
          "indexed": true,
          "internalType": "bytes32",
          "name": "previousAdminRole",
          "type": "bytes32"
        },
        {
          "indexed": true,
          "internalType": "bytes32",
          "name": "newAdminRole",
          "type": "bytes32"
        }
      ],
      "name": "RoleAdminChanged",
      "type": "event"
    },
    {
      "anonymous": false,
      "inputs": [
        {
          "indexed": true,
          "internalType": "bytes32",
          "name": "role",
          "type": "bytes32"
        },
        {
          "indexed": true,
          "internalType": "address",
          "name": "account",
          "type": "address"
        },
        {
          "indexed": true,
          "internalType": "address",
          "name": "sender",
          "type": "address"
        }
      ],
      "name": "RoleGranted",
      "type": "event"
    },
    {
      "anonymous": false,
      "inputs": [
        {
          "indexed": true,
          "internalType": "bytes32",
          "name": "role",
          "type": "bytes32"
        },
        {
          "indexed": true,
          "internalType": "address",
          "name": "account",
          "type": "address"
        },
        {
          "indexed": true,
          "internalType": "address",
          "name": "sender",
          "type": "address"
        }
      ],
      "name": "RoleRevoked",
      "type": "event"
    },
    {
      "anonymous": false,
      "inputs": [
        {
          "indexed": true,
          "internalType": "address",
          "name": "strategy",
          "type": "address"
        }
      ],
      "name": "StrategyAdded",
      "type": "event"
    },
    {
      "anonymous": false,
      "inputs": [
        {
          "indexed": true,
          "internalType": "address",
          "name": "strategy",
          "type": "address"
        },
        {
          "indexed": false,
          "internalType": "uint256",
          "name": "recovered",
          "type": "uint256"
        }
      ],
      "name": "StrategyEmergencyExit",
      "type": "event"
    },
    {
      "anonymous": false,
      "inputs": [
        {
          "indexed": true,
          "internalType": "address",
          "name": "strategy",
          "type": "address"
        },
        {
          "indexed": false,
          "internalType": "uint256",
          "name": "amount",
          "type": "uint256"
        },
        {
          "indexed": false,
          "internalType": "bytes",
          "name": "data",
          "type": "bytes"
        }
      ],
      "name": "StrategyExecuted",
      "type": "event"
    },
    {
      "anonymous": false,
      "inputs": [
        {
          "indexed": true,
          "internalType": "address",
          "name": "strategy",
          "type": "address"
        },
        {
          "indexed": false,
          "internalType": "bytes",
          "name": "data",
          "type": "bytes"
        }
      ],
      "name": "StrategyHarvested",
      "type": "event"
    },
    {
      "anonymous": false,
      "inputs": [
        {
          "indexed": true,
          "internalType": "address",
          "name": "strategy",
          "type": "address"
        }
      ],
      "name": "StrategyRemoved",
      "type": "event"
    },
    {
      "anonymous": false,
      "inputs": [
        {
          "indexed": true,
          "internalType": "address",
          "name": "from",
          "type": "address"
        },
        {
          "indexed": true,
          "internalType": "address",
          "name": "to",
          "type": "address"
        },
        {
          "indexed": false,
          "internalType": "uint256",
          "name": "value",
          "type": "uint256"
        }
      ],
      "name": "Transfer",
      "type": "event"
    },
    {
      "anonymous": false,
      "inputs": [
        {
          "indexed": true,
          "internalType": "address",
          "name": "sender",
          "type": "address"
        },
        {
          "indexed": true,
          "internalType": "address",
          "name": "receiver",
          "type": "address"
        },
        {
          "indexed": true,
          "internalType": "address",
          "name": "owner",
          "type": "address"
        },
        {
          "indexed": false,
          "internalType": "uint256",
          "name": "assets",
          "type": "uint256"
        },
        {
          "indexed": false,
          "internalType": "uint256",
          "name": "shares",
          "type": "uint256"
        }
      ],
      "name": "Withdraw",
      "type": "event"
    },
    {
      "inputs": [],
      "name": "AGENT_ROLE",
      "outputs": [
        {
          "internalType": "bytes32",
          "name": "",
          "type": "bytes32"
        }
      ],
      "stateMutability": "view",
      "type": "function"
    },
    {
      "inputs": [],
      "name": "DEFAULT_ADMIN_ROLE",
      "outputs": [
        {
          "internalType": "bytes32",
          "name": "",
          "type": "bytes32"
        }
      ],
      "stateMutability": "view",
      "type": "function"
    },
    {
      "inputs": [],
      "name": "MANAGER_ROLE",
      "outputs": [
        {
          "internalType": "bytes32",
          "name": "",
          "type": "bytes32"
        }
      ],
      "stateMutability": "view",
      "type": "function"
    },
    {
      "inputs": [
        {
          "internalType": "address",
          "name": "_strategy",
          "type": "address"
        }
      ],
      "name": "addStrategy",
      "outputs": [],
      "stateMutability": "nonpayable",
      "type": "function"
    },
    {
      "inputs": [
        {
          "internalType": "address",
          "name": "owner",
          "type": "address"
        },
        {
          "internalType": "address",
          "name": "spender",
          "type": "address"
        }
      ],
      "name": "allowance",
      "outputs": [
        {
          "internalType": "uint256",
          "name": "",
          "type": "uint256"
        }
      ],
      "stateMutability": "view",
      "type": "function"
    },
    {
      "inputs": [
        {
          "internalType": "address",
          "name": "spender",
          "type": "address"
        },
        {
          "internalType": "uint256",
          "name": "amount",
          "type": "uint256"
        }
      ],
      "name": "approve",
      "outputs": [
        {
          "internalType": "bool",
          "name": "",
          "type": "bool"
        }
      ],
      "stateMutability": "nonpayable",
      "type": "function"
    },
    {
      "inputs": [],
      "name": "asset",
      "outputs": [
        {
          "internalType": "address",
          "name": "",
          "type": "address"
        }
      ],
      "stateMutability": "view",
      "type": "function"
    },
    {
      "inputs": [
        {
          "internalType": "address",
          "name": "account",
          "type": "address"
        }
      ],
      "name": "balanceOf",
      "outputs": [
        {
          "internalType": "uint256",
          "name": "",
          "type": "uint256"
        }
      ],
      "stateMutability": "view",
      "type": "function"
    },
    {
      "inputs": [
        {
          "internalType": "uint256",
          "name": "shares",
          "type": "uint256"
        }
      ],
      "name": "convertToAssets",
      "outputs": [
        {
          "internalType": "uint256",
          "name": "",
          "type": "uint256"
        }
      ],
      "stateMutability": "view",
      "type": "function"
    },
    {
      "inputs": [
        {
          "internalType": "uint256",
          "name": "assets",
          "type": "uint256"
        }
      ],
      "name": "convertToShares",
      "outputs": [
        {
          "internalType": "uint256",
          "name": "",
          "type": "uint256"
        }
      ],
      "stateMutability": "view",
      "type": "function"
    },
    {
      "inputs": [],
      "name": "decimals",
      "outputs": [
        {
          "internalType": "uint8",
          "name": "",
          "type": "uint8"
        }
      ],
      "stateMutability": "view",
      "type": "function"
    },
    {
      "inputs": [
        {
          "internalType": "address",
          "name": "spender",
          "type": "address"
        },
        {
          "internalType": "uint256",
          "name": "subtractedValue",
          "type": "uint256"
        }
      ],
      "name": "decreaseAllowance",
      "outputs": [
        {
          "internalType": "bool",
          "name": "",
          "type": "bool"
        }
      ],
      "stateMutability": "nonpayable",
      "type": "function"
    },
    {
      "inputs": [
        {
          "internalType": "uint256",
          "name": "assets",
          "type": "uint256"
        },
        {
          "internalType": "address",
          "name": "receiver",
          "type": "address"
        }
      ],
      "name": "deposit",
      "outputs": [
        {
          "internalType": "uint256",
          "name": "",
          "type": "uint256"
        }
      ],
      "stateMutability": "nonpayable",
      "type": "function"
    },
    {
      "inputs": [
        {
          "internalType": "address",
          "name": "_strategy",
          "type": "address"
        },
        {
          "internalType": "uint256",
          "name": "_amount",
          "type": "uint256"
        },
        {
          "internalType": "bytes",
          "name": "_data",
          "type": "bytes"
        }
      ],
      "name": "depositToStrategy",
      "outputs": [],
      "stateMutability": "nonpayable",
      "type": "function"
    },
    {
      "inputs": [
        {
          "internalType": "address",
          "name": "_strategy",
          "type": "address"
        },
        {
          "internalType": "bytes",
          "name": "_data",
          "type": "bytes"
        }
      ],
      "name": "emergencyExit",
      "outputs": [],
      "stateMutability": "nonpayable",
      "type": "function"
    },
    {
      "inputs": [],
      "name": "emergencyExitAll",
      "outputs": [],
      "stateMutability": "nonpayable",
      "type": "function"
    },
    {
      "inputs": [],
      "name": "getAvailableBalance",
      "outputs": [
        {
          "internalType": "uint256",
          "name": "",
          "type": "uint256"
        }
      ],
      "stateMutability": "view",
      "type": "function"
    },
    {
      "inputs": [
        {
          "internalType": "bytes32",
          "name": "role",
          "type": "bytes32"
        }
      ],
      "name": "getRoleAdmin",
      "outputs": [
        {
          "internalType": "bytes32",
          "name": "",
          "type": "bytes32"
        }
      ],
      "stateMutability": "view",
      "type": "function"
    },
    {
      "inputs": [],
      "name": "getStrategies",
      "outputs": [
        {
          "internalType": "address[]",
          "name": "",
          "type": "address[]"
        }
      ],
      "stateMutability": "view",
      "type": "function"
    },
    {
      "inputs": [
        {
          "internalType": "address",
          "name": "_strategy",
          "type": "address"
        }
      ],
      "name": "getStrategyAllocation",
      "outputs": [
        {
          "internalType": "uint256",
          "name": "",
          "type": "uint256"
        }
      ],
      "stateMutability": "view",
      "type": "function"
    },
    {
      "inputs": [
        {
          "internalType": "address",
          "name": "_strategy",
          "type": "address"
        }
      ],
      "name": "getStrategyBalance",
      "outputs": [
        {
          "internalType": "uint256",
          "name": "",
          "type": "uint256"
        }
      ],
      "stateMutability": "view",
      "type": "function"
    },
    {
      "inputs": [],
      "name": "getTotalAllocated",
      "outputs": [
        {
          "internalType": "uint256",
          "name": "",
          "type": "uint256"
        }
      ],
      "stateMutability": "view",
      "type": "function"
    },
    {
      "inputs": [],
      "name": "getTotalStrategyBalances",
      "outputs": [
        {
          "internalType": "uint256",
          "name": "total",
          "type": "uint256"
        }
      ],
      "stateMutability": "view",
      "type": "function"
    },
    {
      "inputs": [
        {
          "internalType": "bytes32",
          "name": "role",
          "type": "bytes32"
        },
        {
          "internalType": "address",
          "name": "account",
          "type": "address"
        }
      ],
      "name": "grantRole",
      "outputs": [],
      "stateMutability": "nonpayable",
      "type": "function"
    },
    {
      "inputs": [],
      "name": "harvestAllStrategies",
      "outputs": [],
      "stateMutability": "nonpayable",
      "type": "function"
    },
    {
      "inputs": [
        {
          "internalType": "address",
          "name": "_strategy",
          "type": "address"
        },
        {
          "internalType": "bytes",
          "name": "_data",
          "type": "bytes"
        }
      ],
      "name": "harvestStrategy",
      "outputs": [],
      "stateMutability": "nonpayable",
      "type": "function"
    },
    {
      "inputs": [
        {
          "internalType": "bytes32",
          "name": "role",
          "type": "bytes32"
        },
        {
          "internalType": "address",
          "name": "account",
          "type": "address"
        }
      ],
      "name": "hasRole",
      "outputs": [
        {
          "internalType": "bool",
          "name": "",
          "type": "bool"
        }
      ],
      "stateMutability": "view",
      "type": "function"
    },
    {
      "inputs": [
        {
          "internalType": "address",
          "name": "spender",
          "type": "address"
        },
        {
          "internalType": "uint256",
          "name": "addedValue",
          "type": "uint256"
        }
      ],
      "name": "increaseAllowance",
      "outputs": [
        {
          "internalType": "bool",
          "name": "",
          "type": "bool"
        }
      ],
      "stateMutability": "nonpayable",
      "type": "function"
    },
    {
      "inputs": [
        {
          "internalType": "address",
          "name": "",
          "type": "address"
        }
      ],
      "name": "isStrategy",
      "outputs": [
        {
          "internalType": "bool",
          "name": "",
          "type": "bool"
        }
      ],
      "stateMutability": "view",
      "type": "function"
    },
    {
      "inputs": [
        {
          "internalType": "address",
          "name": "",
          "type": "address"
        }
      ],
      "name": "maxDeposit",
      "outputs": [
        {
          "internalType": "uint256",
          "name": "",
          "type": "uint256"
        }
      ],
      "stateMutability": "pure",
      "type": "function"
    },
    {
      "inputs": [
        {
          "internalType": "address",
          "name": "",
          "type": "address"
        }
      ],
      "name": "maxMint",
      "outputs": [
        {
          "internalType": "uint256",
          "name": "",
          "type": "uint256"
        }
      ],
      "stateMutability": "pure",
      "type": "function"
    },
    {
      "inputs": [
        {
          "internalType": "address",
          "name": "owner",
          "type": "address"
        }
      ],
      "name": "maxRedeem",
      "outputs": [
        {
          "internalType": "uint256",
          "name": "",
          "type": "uint256"
        }
      ],
      "stateMutability": "view",
      "type": "function"
    },
    {
      "inputs": [
        {
          "internalType": "address",
          "name": "owner",
          "type": "address"
        }
      ],
      "name": "maxWithdraw",
      "outputs": [
        {
          "internalType": "uint256",
          "name": "",
          "type": "uint256"
        }
      ],
      "stateMutability": "view",
      "type": "function"
    },
    {
      "inputs": [
        {
          "internalType": "uint256",
          "name": "shares",
          "type": "uint256"
        },
        {
          "internalType": "address",
          "name": "receiver",
          "type": "address"
        }
      ],
      "name": "mint",
      "outputs": [
        {
          "internalType": "uint256",
          "name": "",
          "type": "uint256"
        }
      ],
      "stateMutability": "nonpayable",
      "type": "function"
    },
    {
      "inputs": [],
      "name": "name",
      "outputs": [
        {
          "internalType": "string",
          "name": "",
          "type": "string"
        }
      ],
      "stateMutability": "view",
      "type": "function"
    },
    {
      "inputs": [],
      "name": "owner",
      "outputs": [
        {
          "internalType": "address",
          "name": "",
          "type": "address"
        }
      ],
      "stateMutability": "view",
      "type": "function"
    },
    {
      "inputs": [
        {
          "internalType": "uint256",
          "name": "assets",
          "type": "uint256"
        }
      ],
      "name": "previewDeposit",
      "outputs": [
        {
          "internalType": "uint256",
          "name": "",
          "type": "uint256"
        }
      ],
      "stateMutability": "view",
      "type": "function"
    },
    {
      "inputs": [
        {
          "internalType": "uint256",
          "name": "shares",
          "type": "uint256"
        }
      ],
      "name": "previewMint",
      "outputs": [
        {
          "internalType": "uint256",
          "name": "",
          "type": "uint256"
        }
      ],
      "stateMutability": "view",
      "type": "function"
    },
    {
      "inputs": [
        {
          "internalType": "uint256",
          "name": "shares",
          "type": "uint256"
        }
      ],
      "name": "previewRedeem",
      "outputs": [
        {
          "internalType": "uint256",
          "name": "",
          "type": "uint256"
        }
      ],
      "stateMutability": "view",
      "type": "function"
    },
    {
      "inputs": [
        {
          "internalType": "uint256",
          "name": "assets",
          "type": "uint256"
        }
      ],
      "name": "previewWithdraw",
      "outputs": [
        {
          "internalType": "uint256",
          "name": "",
          "type": "uint256"
        }
      ],
      "stateMutability": "view",
      "type": "function"
    },
    {
      "inputs": [
        {
          "internalType": "uint256",
          "name": "shares",
          "type": "uint256"
        },
        {
          "internalType": "address",
          "name": "receiver",
          "type": "address"
        },
        {
          "internalType": "address",
          "name": "owner",
          "type": "address"
        }
      ],
      "name": "redeem",
      "outputs": [
        {
          "internalType": "uint256",
          "name": "",
          "type": "uint256"
        }
      ],
      "stateMutability": "nonpayable",
      "type": "function"
    },
    {
      "inputs": [
        {
          "internalType": "address",
          "name": "_strategy",
          "type": "address"
        }
      ],
      "name": "removeStrategy",
      "outputs": [],
      "stateMutability": "nonpayable",
      "type": "function"
    },
    {
      "inputs": [],
      "name": "renounceOwnership",
      "outputs": [],
      "stateMutability": "nonpayable",
      "type": "function"
    },
    {
      "inputs": [
        {
          "internalType": "bytes32",
          "name": "role",
          "type": "bytes32"
        },
        {
          "internalType": "address",
          "name": "account",
          "type": "address"
        }
      ],
      "name": "renounceRole",
      "outputs": [],
      "stateMutability": "nonpayable",
      "type": "function"
    },
    {
      "inputs": [
        {
          "internalType": "address",
          "name": "_agent",
          "type": "address"
        }
      ],
      "name": "revokeAgent",
      "outputs": [],
      "stateMutability": "nonpayable",
      "type": "function"
    },
    {
      "inputs": [
        {
          "internalType": "address",
          "name": "_manager",
          "type": "address"
        }
      ],
      "name": "revokeManager",
      "outputs": [],
      "stateMutability": "nonpayable",
      "type": "function"
    },
    {
      "inputs": [
        {
          "internalType": "bytes32",
          "name": "role",
          "type": "bytes32"
        },
        {
          "internalType": "address",
          "name": "account",
          "type": "address"
        }
      ],
      "name": "revokeRole",
      "outputs": [],
      "stateMutability": "nonpayable",
      "type": "function"
    },
    {
      "inputs": [
        {
          "internalType": "address",
          "name": "_newAgent",
          "type": "address"
        }
      ],
      "name": "setAgent",
      "outputs": [],
      "stateMutability": "nonpayable",
      "type": "function"
    },
    {
      "inputs": [
        {
          "internalType": "address",
          "name": "_newManager",
          "type": "address"
        }
      ],
      "name": "setManager",
      "outputs": [],
      "stateMutability": "nonpayable",
      "type": "function"
    },
    {
      "inputs": [
        {
          "internalType": "uint256",
          "name": "",
          "type": "uint256"
        }
      ],
      "name": "strategies",
      "outputs": [
        {
          "internalType": "address",
          "name": "",
          "type": "address"
        }
      ],
      "stateMutability": "view",
      "type": "function"
    },
    {
      "inputs": [
        {
          "internalType": "address",
          "name": "",
          "type": "address"
        }
      ],
      "name": "strategyAllocations",
      "outputs": [
        {
          "internalType": "uint256",
          "name": "",
          "type": "uint256"
        }
      ],
      "stateMutability": "view",
      "type": "function"
    },
    {
      "inputs": [
        {
          "internalType": "bytes4",
          "name": "interfaceId",
          "type": "bytes4"
        }
      ],
      "name": "supportsInterface",
      "outputs": [
        {
          "internalType": "bool",
          "name": "",
          "type": "bool"
        }
      ],
      "stateMutability": "view",
      "type": "function"
    },
    {
      "inputs": [],
      "name": "symbol",
      "outputs": [
        {
          "internalType": "string",
          "name": "",
          "type": "string"
        }
      ],
      "stateMutability": "view",
      "type": "function"
    },
    {
      "inputs": [],
      "name": "totalAllocated",
      "outputs": [
        {
          "internalType": "uint256",
          "name": "",
          "type": "uint256"
        }
      ],
      "stateMutability": "view",
      "type": "function"
    },
    {
      "inputs": [],
      "name": "totalAssets",
      "outputs": [
        {
          "internalType": "uint256",
          "name": "",
          "type": "uint256"
        }
      ],
      "stateMutability": "view",
      "type": "function"
    },
    {
      "inputs": [],
      "name": "totalSupply",
      "outputs": [
        {
          "internalType": "uint256",
          "name": "",
          "type": "uint256"
        }
      ],
      "stateMutability": "view",
      "type": "function"
    },
    {
      "inputs": [
        {
          "internalType": "address",
          "name": "to",
          "type": "address"
        },
        {
          "internalType": "uint256",
          "name": "amount",
          "type": "uint256"
        }
      ],
      "name": "transfer",
      "outputs": [
        {
          "internalType": "bool",
          "name": "",
          "type": "bool"
        }
      ],
      "stateMutability": "nonpayable",
      "type": "function"
    },
    {
      "inputs": [
        {
          "internalType": "address",
          "name": "from",
          "type": "address"
        },
        {
          "internalType": "address",
          "name": "to",
          "type": "address"
        },
        {
          "internalType": "uint256",
          "name": "amount",
          "type": "uint256"
        }
      ],
      "name": "transferFrom",
      "outputs": [
        {
          "internalType": "bool",
          "name": "",
          "type": "bool"
        }
      ],
      "stateMutability": "nonpayable",
      "type": "function"
    },
    {
      "inputs": [
        {
          "internalType": "address",
          "name": "newOwner",
          "type": "address"
        }
      ],
      "name": "transferOwnership",
      "outputs": [],
      "stateMutability": "nonpayable",
      "type": "function"
    },
    {
      "inputs": [
        {
          "internalType": "uint256",
          "name": "assets",
          "type": "uint256"
        },
        {
          "internalType": "address",
          "name": "receiver",
          "type": "address"
        },
        {
          "internalType": "address",
          "name": "owner",
          "type": "address"
        }
      ],
      "name": "withdraw",
      "outputs": [
        {
          "internalType": "uint256",
          "name": "",
          "type": "uint256"
        }
      ],
      "stateMutability": "nonpayable",
      "type": "function"
    }
  ],
  "bytecode": "0x60c0806040523461068e576143d2803803809161001c8285610693565b8339810160a08282031261068e578151916001600160a01b038316830361068e5760208101516001600160401b03811161068e578261005c9183016106d1565b604082015190926001600160401b03821161068e5761007c9183016106d1565b92610095608061008e60608501610731565b9301610731565b9261009f33610745565b8051906001600160401b03821161058b5760045490600182811c92168015610684575b602083101461056b5781601f849311610614575b50602090601f83116001146105ac576000926105a1575b50508160011b916000199060031b1c1916176004555b83516001600160401b03811161058b57600554600181811c91168015610581575b602082101461056b57601f8111610522575b50602094601f82116001146104bb579481929394956000926104b0575b50508160011b916000199060031b1c1916176005555b6101728161078c565b90156104a8575b60a05260805260016007556001600160a01b0316908115610463576001600160a01b031690811561041e576101ad33610745565b3360009081526000805160206143b2833981519152602052604090205460ff16156103de575b600080516020614332833981519152600081815260066020527f6f33ec38532bdfedd8912126adc1f5918b75385d650da7c642efcc94ef3a60f680549082905590917fbd79b86ffe0ab8e8776151514217cd7cacd52c909f66475c3af44e129f0b00ff8380a4600080516020614352833981519152600081815260066020527f4448119502453e295a09f7d4e8a6a0575d3624c233f99f59abf0835bf259780b80549082905590917fbd79b86ffe0ab8e8776151514217cd7cacd52c909f66475c3af44e129f0b00ff8380a46000818152600080516020614392833981519152602052604090205460ff161561038d575b506000818152600080516020614372833981519152602052604090205460ff161561033c575b604051613ade908161083482396080518181816105e30152818161094e015281816114a10152818161171601528181611cab0152818161258701528181612a00015261319e015260a051816118d90152f35b600081815260008051602061437283398151915260205260408120805460ff19166001179055339190600080516020614352833981519152906000805160206143128339815191529080a4386102ea565b600081815260008051602061439283398151915260205260408120805460ff19166001179055339190600080516020614332833981519152906000805160206143128339815191529080a4386102c4565b3360008181526000805160206143b283398151915260205260408120805460ff1916600117905581906000805160206143128339815191528180a46101d3565b60405162461bcd60e51b815260206004820152601c60248201527f4167656e742063616e6e6f74206265207a65726f2061646472657373000000006044820152606490fd5b60405162461bcd60e51b815260206004820152601e60248201527f4d616e616765722063616e6e6f74206265207a65726f206164647265737300006044820152606490fd5b506012610179565b015190503880610153565b601f198216956005600052806000209160005b88811061050a575083600195969798106104f1575b505050811b01600555610169565b015160001960f88460031b161c191690553880806104e3565b919260206001819286850151815501940192016104ce565b60056000526020600020601f830160051c81019160208410610561575b601f0160051c01905b8181106105555750610136565b60008155600101610548565b909150819061053f565b634e487b7160e01b600052602260045260246000fd5b90607f1690610124565b634e487b7160e01b600052604160045260246000fd5b0151905038806100ed565b600460009081528281209350601f198516905b8181106105fc57509084600195949392106105e3575b505050811b01600455610103565b015160001960f88460031b161c191690553880806105d5565b929360206001819287860151815501950193016105bf565b60046000529091507f8a35acfbc15ff81a39ae7d344fd709f28e8600b4aa8c65c6b64bfe7fe36bd19b601f840160051c8101916020851061067a575b90601f859493920160051c01905b81811061066b57506100d6565b6000815584935060010161065e565b9091508190610650565b91607f16916100c2565b600080fd5b601f909101601f19168101906001600160401b0382119082101761058b57604052565b6001600160401b03811161058b57601f01601f191660200190565b81601f8201121561068e578051906106e8826106b6565b926106f66040519485610693565b8284526020838301011161068e5760005b82811061071c57505060206000918301015290565b80602080928401015182828701015201610707565b51906001600160a01b038216820361068e57565b600080546001600160a01b039283166001600160a01b03198216811783559216907f8be0079c531659141344cd1fd0a4f28419497f9722a3daafe3b4186f6b6457e09080a3565b60008091604051602081019063313ce56760e01b8252600481526107b1602482610693565b51916001600160a01b03165afa3d1561082b573d906107cf826106b6565b916107dd6040519384610693565b82523d6000602084013e5b8061081f575b6107fc575b50600090600090565b60208180518101031261068e576020015160ff81116107f3579060ff6001921690565b506020815110156107ee565b6060906107e856fe6080604052600436101561001257600080fd5b60003560e01c806301e1d1141461232d57806301ffc9a71461228c57806306fdde03146121cd57806307a2d13a1461169e578063095ea7b3146121a75780630a28a47714612189578063175188e814611fd657806318160ddd14611fb85780631997db7614611e78578063223e547914611bb457806322459e1814611b7957806323b872dd14611b41578063248a9ca314611b145780632b9b270914611a415780632e8ebaae14611a025780632f2ff15d1461193b578063313ce567146118c457806336568abe14611825578063377e32e61461173a57806338d52e0f146116f657806339509351146116a3578063402d267d1461089457806345f7f249146114365780634cdad5061461169e5780636e553f651461166b57806370a0823114610442578063715018a6146115fa5780637da6ac0d1461150f578063809dab6a1461145457806382299a5c146114365780638da5cb5b1461140f57806391d14854146113c157806394bf804d1461138e57806395d89b411461126d5780639acf5d3414611233578063a03f51c214611233578063a217fddf14611217578063a457c2d714611158578063a9059cbb14611127578063aaf0b34a14611080578063b3d7f6b914611062578063b460af9414610fe6578063b49a60bb14610f1a578063b5eb736014610e9e578063ba08765214610e0e578063bcf685ed14610cdf578063bd07fdac14610899578063c63d75b614610894578063c6e6f592146103aa578063ce96cb7714610871578063d0ebdbe714610742578063d2b3d6ce1461052d578063d547741f146104e6578063d574ea3d146104a5578063d597cf8914610482578063d905777e14610442578063dd62ed3e146103ea578063ec87621c146103af578063ef8b30f7146103aa5763f2fde38b146102b057600080fd5b346103a55760206003193601126103a5576001600160a01b036102d16123b5565b6102d961328e565b16801561033b576001600160a01b03600054827fffffffffffffffffffffffff0000000000000000000000000000000000000000821617600055167f8be0079c531659141344cd1fd0a4f28419497f9722a3daafe3b4186f6b6457e0600080a3005b608460405162461bcd60e51b815260206004820152602660248201527f4f776e61626c653a206e6577206f776e657220697320746865207a65726f206160448201527f64647265737300000000000000000000000000000000000000000000000000006064820152fd5b600080fd5b6124b3565b346103a55760006003193601126103a55760206040517f241ecf16d79d0f8dbfb92cbc07fe17840425976cf0667f022fe9877caa831b088152f35b346103a55760406003193601126103a5576104036123b5565b6001600160a01b036104136123cb565b911660005260026020526001600160a01b03604060002091166000526020526020604060002054604051908152f35b346103a55760206003193601126103a557602061047a6104606123b5565b6001600160a01b0316600052600160205260406000205490565b604051908152f35b346103a55760206003193601126103a557602061047a6104a06123b5565b612767565b346103a55760206003193601126103a5576004356008548110156103a5576001600160a01b036104d66020926124d1565b90549060031b1c16604051908152f35b346103a55760406003193601126103a55761052b6004356105056123cb565b9061052661052182600052600660205260016040600020015490565b613069565b6130b3565b005b346103a5576001600160a01b036105433661246f565b33841660009081527f4448119502453e295a09f7d4e8a6a0575d3624c233f99f59abf0835bf259780a60205260409020549193909290916105869060ff166126c5565b61058e612cb3565b169182600052600960205260ff6040600020541615610718576040517f70a082310000000000000000000000000000000000000000000000000000000081523060048201526020816024816001600160a01b037f0000000000000000000000000000000000000000000000000000000000000000165afa801561070c576106dd575b50823b156103a5577f17729d434965aef6e046626c2c7086b54e96cd3b6bcbee9a0691b55935673e09916040517fce5c7f610000000000000000000000000000000000000000000000000000000081526020600482015260008180610679602482018688612710565b038183895af190816106cc575b506106ad576106a2604051928392602084526020840191612710565b0390a25b6001600755005b6106c4604051928392602084526020840191612710565b0390a26106a6565b60006106d79161251b565b85610686565b6020813d602011610704575b816106f66020938361251b565b810103126103a55751610610565b3d91506106e9565b6040513d6000823e3d90fd5b7f5737b5dd0000000000000000000000000000000000000000000000000000000060005260046000fd5b346103a55760206003193601126103a5576001600160a01b036107636123b5565b61076b612f6b565b16801561082d5760008181527f6f33ec38532bdfedd8912126adc1f5918b75385d650da7c642efcc94ef3a60f5602052604090205460ff16156107aa57005b60008181527f6f33ec38532bdfedd8912126adc1f5918b75385d650da7c642efcc94ef3a60f560205260408120805460ff191660011790553391907f241ecf16d79d0f8dbfb92cbc07fe17840425976cf0667f022fe9877caa831b08907f2f8788117e7eff1d82e926ec794901d17c78024a50270940304540a733656f0d9080a4005b606460405162461bcd60e51b815260206004820152600f60248201527f496e76616c6964206d616e6167657200000000000000000000000000000000006044820152fd5b346103a55760206003193601126103a557602061047a61088f6123b5565b612748565b6123e1565b346103a55760606003193601126103a5576108b26123b5565b6024359060443567ffffffffffffffff81116103a5576108d6903690600401612441565b3360009081527f4448119502453e295a09f7d4e8a6a0575d3624c233f99f59abf0835bf259780a60205260409020549093906109149060ff166126c5565b61091c612cb3565b6001600160a01b0383169384600052600960205260ff6040600020541615610718578115610cb5576001600160a01b037f000000000000000000000000000000000000000000000000000000000000000016936040517f70a08231000000000000000000000000000000000000000000000000000000008152306004820152602081602481895afa801561070c578491600091610c80575b5010610c565760006040517fdd62ed3e0000000000000000000000000000000000000000000000000000000081523060048201528760248201526020816044818a5afa918215610c4a578092610c12575b5050610ba8576040517f095ea7b30000000000000000000000000000000000000000000000000000000060208201526001600160a01b03909116602482015260448101839052610a6c90610a6681606481015b03601f19810183528261251b565b856135a3565b843b156103a5576040517f59efcb1500000000000000000000000000000000000000000000000000000000815260008180610aac85888860048501612731565b0381838a5af19081610b97575b50610b3a576040517f095ea7b30000000000000000000000000000000000000000000000000000000060208201526024810186905260006044808301919091528152610b109085610b0b60648361251b565b6135a3565b7facfdb4440000000000000000000000000000000000000000000000000000000060005260046000fd5b7fde953c60cd81663917dd703d2f498da2604eccfef3edd2260ea19f0f37f749d993506106a29085600052600a6020526040600020610b7a84825461253e565b9055610b8883600b5461253e565b600b5560405193849384612731565b6000610ba29161251b565b86610ab9565b608460405162461bcd60e51b815260206004820152603660248201527f5361666545524332303a20617070726f76652066726f6d206e6f6e2d7a65726f60448201527f20746f206e6f6e2d7a65726f20616c6c6f77616e6365000000000000000000006064820152fd5b9091506020823d602011610c42575b81610c2e6020938361251b565b81010312610c3f5750518780610a05565b80fd5b3d9150610c21565b604051903d90823e3d90fd5b7ff4d678b80000000000000000000000000000000000000000000000000000000060005260046000fd5b9150506020813d602011610cad575b81610c9c6020938361251b565b810103126103a557839051886109b4565b3d9150610c8f565b7f2c5211c60000000000000000000000000000000000000000000000000000000060005260046000fd5b346103a55760206003193601126103a5576001600160a01b03610d006123b5565b610d08612f6b565b168015610dca5760008181527f4448119502453e295a09f7d4e8a6a0575d3624c233f99f59abf0835bf259780a602052604090205460ff1615610d4757005b60008181527f4448119502453e295a09f7d4e8a6a0575d3624c233f99f59abf0835bf259780a60205260408120805460ff191660011790553391907fcab5a0bfe0b79d2c4b1c2e02599fa044d115b7511f9659307cb4276950967709907f2f8788117e7eff1d82e926ec794901d17c78024a50270940304540a733656f0d9080a4005b606460405162461bcd60e51b815260206004820152600d60248201527f496e76616c6964206167656e74000000000000000000000000000000000000006044820152fd5b346103a557610e1c36612407565b90610e3b826001600160a01b0316600052600160205260406000205490565b8311610e5a578261047a91610e51602095612834565b938491336132e6565b606460405162461bcd60e51b815260206004820152601d60248201527f455243343632363a2072656465656d206d6f7265207468616e206d61780000006044820152fd5b346103a557610eac3661246f565b50503360009081527f6f33ec38532bdfedd8912126adc1f5918b75385d650da7c642efcc94ef3a60f56020526040902054610ee99060ff1661266d565b610ef1612cb3565b6001600160a01b038116600052600960205260ff6040600020541615610718576106a6906129f6565b346103a55760006003193601126103a5576040518060206008549283815201809260086000527ff3f7a9fe364faab93b216da50a3214154f22a0a2b415b23a84c8169e8b636ee39060005b818110610fc75750505081610f7b91038261251b565b6040519182916020830190602084525180915260408301919060005b818110610fa5575050500390f35b82516001600160a01b0316845285945060209384019390920191600101610f97565b82546001600160a01b0316845260209093019260019283019201610f65565b346103a557610ff436612407565b9091610fff82612748565b811161101e576020928161101561047a9361299c565b938492336132e6565b606460405162461bcd60e51b815260206004820152601f60248201527f455243343632363a207769746864726177206d6f7265207468616e206d6178006044820152fd5b346103a55760206003193601126103a557602061047a600435612806565b346103a55760006003193601126103a5573360009081527f6f33ec38532bdfedd8912126adc1f5918b75385d650da7c642efcc94ef3a60f560205260409020546110cc9060ff1661266d565b6110d4612cb3565b60005b6008548110156106a657806001600160a01b036110f56001936124d1565b90549060031b1c1680600052600a602052604060002054611118575b50016110d7565b611121906129f6565b82611111565b346103a55760406003193601126103a55761114d6111436123b5565b6024359033612da6565b602060405160018152f35b346103a55760406003193601126103a5576111716123b5565b6024359033600052600260205260406000206001600160a01b038216600052602052604060002054918083106111ad5761114d92039033612862565b608460405162461bcd60e51b815260206004820152602560248201527f45524332303a2064656372656173656420616c6c6f77616e63652062656c6f7760448201527f207a65726f0000000000000000000000000000000000000000000000000000006064820152fd5b346103a55760006003193601126103a557602060405160008152f35b346103a55760206003193601126103a5576001600160a01b036112546123b5565b16600052600a6020526020604060002054604051908152f35b346103a55760006003193601126103a55760405160006005548060011c90600181168015611384575b6020831081146113575782855290811561133357506001146112d3575b6112cf836112c38185038261251b565b6040519182918261236b565b0390f35b91905060056000527f036b6384b5eca791c62761152d0c79bb0604c104a5fb6f4eb0703f3154bb3db0916000905b808210611319575090915081016020016112c36112b3565b919260018160209254838588010152019101909291611301565b60ff191660208086019190915291151560051b840190910191506112c390506112b3565b6024847f4e487b710000000000000000000000000000000000000000000000000000000081526022600452fd5b91607f1691611296565b346103a55760406003193601126103a557602060043561047a6113af6123cb565b916113b981612806565b809333613140565b346103a55760406003193601126103a5576113da6123cb565b60043560005260066020526001600160a01b0360406000209116600052602052602060ff604060002054166040519015158152f35b346103a55760006003193601126103a55760206001600160a01b0360005416604051908152f35b346103a55760006003193601126103a5576020600b54604051908152f35b346103a55760006003193601126103a5576040517f70a082310000000000000000000000000000000000000000000000000000000081523060048201526020816024816001600160a01b037f0000000000000000000000000000000000000000000000000000000000000000165afa801561070c576000906114dc575b602090604051908152f35b506020813d602011611507575b816114f66020938361251b565b810103126103a557602090516114d1565b3d91506114e9565b346103a55760206003193601126103a5576115286123b5565b611530612f6b565b6001600160a01b03811660009081527f4448119502453e295a09f7d4e8a6a0575d3624c233f99f59abf0835bf259780a602052604090205460ff1661157157005b6001600160a01b031660008181527f4448119502453e295a09f7d4e8a6a0575d3624c233f99f59abf0835bf259780a60205260408120805460ff191690553391907fcab5a0bfe0b79d2c4b1c2e02599fa044d115b7511f9659307cb4276950967709907ff6391f5c32d9c69d2a47ea670b442974b53935d1edc7fd64eb21e047a839171b9080a4005b346103a55760006003193601126103a55761161361328e565b60006001600160a01b0381547fffffffffffffffffffffffff000000000000000000000000000000000000000081168355167f8be0079c531659141344cd1fd0a4f28419497f9722a3daafe3b4186f6b6457e08280a3005b346103a55760406003193601126103a557602060043561047a61168c6123cb565b611695836129c8565b92839133613140565b612397565b346103a55760406003193601126103a55761114d6116bf6123b5565b33600052600260205260406000206001600160a01b0382166000526020526116ef6040600020602435905461253e565b9033612862565b346103a55760006003193601126103a55760206040516001600160a01b037f0000000000000000000000000000000000000000000000000000000000000000168152f35b346103a55760206003193601126103a5576117536123b5565b61175b612f6b565b6001600160a01b03811660009081527f6f33ec38532bdfedd8912126adc1f5918b75385d650da7c642efcc94ef3a60f5602052604090205460ff1661179c57005b6001600160a01b031660008181527f6f33ec38532bdfedd8912126adc1f5918b75385d650da7c642efcc94ef3a60f560205260408120805460ff191690553391907f241ecf16d79d0f8dbfb92cbc07fe17840425976cf0667f022fe9877caa831b08907ff6391f5c32d9c69d2a47ea670b442974b53935d1edc7fd64eb21e047a839171b9080a4005b346103a55760406003193601126103a55761183e6123cb565b336001600160a01b0382160361185a5761052b906004356130b3565b608460405162461bcd60e51b815260206004820152602f60248201527f416363657373436f6e74726f6c3a2063616e206f6e6c792072656e6f756e636560448201527f20726f6c657320666f722073656c6600000000000000000000000000000000006064820152fd5b346103a55760006003193601126103a55760ff7f00000000000000000000000000000000000000000000000000000000000000001660ff811161190c57602090604051908152f35b7f4e487b7100000000000000000000000000000000000000000000000000000000600052601160045260246000fd5b346103a55760406003193601126103a5576004356119576123cb565b9061197361052182600052600660205260016040600020015490565b80600052600660205260406000206001600160a01b03831660005260205260ff60406000205416156119a157005b80600052600660205260406000206001600160a01b0383166000526020526040600020600160ff198254161790556001600160a01b03339216907f2f8788117e7eff1d82e926ec794901d17c78024a50270940304540a733656f0d600080a4005b346103a55760206003193601126103a5576001600160a01b03611a236123b5565b166000526009602052602060ff604060002054166040519015158152f35b346103a55760006003193601126103a557600080600854905b818110611a6c57602083604051908152f35b600460206001600160a01b03611a81846124d1565b90549060031b1c16604051928380927f12065fe00000000000000000000000000000000000000000000000000000000082525afa60009181611ae1575b50611acd575b50600101611a5a565b611ada906001929461253e565b9290611ac4565b90916020823d8211611b0c575b81611afb6020938361251b565b81010312610c3f5750519085611abe565b3d9150611aee565b346103a55760206003193601126103a557602061047a600435600052600660205260016040600020015490565b346103a55760606003193601126103a55761114d611b5d6123b5565b611b656123cb565b60443591611b74833383612d08565b612da6565b346103a55760006003193601126103a55760206040517fcab5a0bfe0b79d2c4b1c2e02599fa044d115b7511f9659307cb42769509677098152f35b346103a55760206003193601126103a557611bcd6123b5565b3360009081527f6f33ec38532bdfedd8912126adc1f5918b75385d650da7c642efcc94ef3a60f56020526040902054611c089060ff1661266d565b6001600160a01b038116908115611e4e5781600052600960205260ff60406000205416611e24576040517f2495a599000000000000000000000000000000000000000000000000000000008152602081600481865afa8091600091611dde575b5090611c98577f4e236e9a0000000000000000000000000000000000000000000000000000000060005260046000fd5b6001600160a01b03166001600160a01b037f0000000000000000000000000000000000000000000000000000000000000000168114908115611dd5575b5015611d91578160005260096020526040600020600160ff198254161790556008549068010000000000000000821015611d6257611d1c826001611d3b94016008556124d1565b9091906001600160a01b038084549260031b9316831b921b1916179055565b7f3f008fd510eae7a9e7bee13513d7b83bef8003d488b5a3d0b0da4de71d6846f1600080a2005b7f4e487b7100000000000000000000000000000000000000000000000000000000600052604160045260246000fd5b606460405162461bcd60e51b815260206004820152601760248201527f5374726174656779206173736574206d69736d617463680000000000000000006044820152fd5b90501583611cd5565b6020813d602011611e1c575b81611df76020938361251b565b81010312611e185751906001600160a01b0382168203610c3f575084611c68565b5080fd5b3d9150611dea565b7fc45546f70000000000000000000000000000000000000000000000000000000060005260046000fd5b7fe6c4247b0000000000000000000000000000000000000000000000000000000060005260046000fd5b346103a55760006003193601126103a5573360009081527f4448119502453e295a09f7d4e8a6a0575d3624c233f99f59abf0835bf259780a6020526040902054611ec49060ff166126c5565b611ecc612cb3565b60005b6008548110156106a6576001600160a01b03611eea826124d1565b90549060031b1c169081600052600a602052604060002054611f11575b6001915001611ecf565b813b156103a5576040517fce5c7f610000000000000000000000000000000000000000000000000000000081526020600482015260006024820181905260019391908160448183865af19081611fa7575b50611f6e575b50611f07565b6040805160208082526000908201527f17729d434965aef6e046626c2c7086b54e96cd3b6bcbee9a0691b55935673e099190a282611f68565b6000611fb29161251b565b84611f62565b346103a55760006003193601126103a5576020600354604051908152f35b346103a55760206003193601126103a557611fef6123b5565b3360009081527f6f33ec38532bdfedd8912126adc1f5918b75385d650da7c642efcc94ef3a60f5602052604090205461202a9060ff1661266d565b6001600160a01b0381169081600052600960205260ff60406000205416156107185781600052600a60205260406000205461217a575b50806000526009602052604060002060ff19815416905560005b600854908181101561217357826001600160a01b03612098836124d1565b90549060031b1c16146120af57600191500161207a565b600019820191821161190c57611d1c6001600160a01b036120d26120e0946124d1565b90549060031b1c16916124d1565b600854801561214457600019016120f6816124d1565b6001600160a01b0382549160031b1b191690556008555b80600052600a602052600060408120557f09a1db4b80c32706328728508c941a6b954f31eb5affd32f236c1fd405f8fea4600080a2005b7f4e487b7100000000000000000000000000000000000000000000000000000000600052603160045260246000fd5b505061210d565b612183906129f6565b81612060565b346103a55760206003193601126103a557602061047a60043561299c565b346103a55760406003193601126103a55761114d6121c36123b5565b6024359033612862565b346103a55760006003193601126103a55760405160006004548060011c90600181168015612282575b602083108114611357578285529081156113335750600114612222576112cf836112c38185038261251b565b91905060046000527f8a35acfbc15ff81a39ae7d344fd709f28e8600b4aa8c65c6b64bfe7fe36bd19b916000905b808210612268575090915081016020016112c36112b3565b919260018160209254838588010152019101909291612250565b91607f16916121f6565b346103a55760206003193601126103a5576004357fffffffff0000000000000000000000000000000000000000000000000000000081168091036103a557807f7965db0b0000000000000000000000000000000000000000000000000000000060209214908115612303575b506040519015158152f35b7f01ffc9a700000000000000000000000000000000000000000000000000000000915014826122f8565b346103a55760006003193601126103a557602061047a61254b565b60005b83811061235b5750506000910152565b818101518382015260200161234b565b601f19601f604093602084526123908151809281602088015260208888019101612348565b0116010190565b346103a55760206003193601126103a557602061047a600435612834565b600435906001600160a01b03821682036103a557565b602435906001600160a01b03821682036103a557565b346103a55760206003193601126103a5576123fa6123b5565b5060206040516000198152f35b60031960609101126103a557600435906024356001600160a01b03811681036103a557906044356001600160a01b03811681036103a55790565b9181601f840112156103a55782359167ffffffffffffffff83116103a557602083818601950101116103a557565b9060406003198301126103a5576004356001600160a01b03811681036103a557916024359067ffffffffffffffff82116103a5576124af91600401612441565b9091565b346103a55760206003193601126103a557602061047a6004356129c8565b6008548110156124ec57600860005260206000200190600090565b7f4e487b7100000000000000000000000000000000000000000000000000000000600052603260045260246000fd5b90601f601f19910116810190811067ffffffffffffffff821117611d6257604052565b9190820180921161190c57565b6040517f70a082310000000000000000000000000000000000000000000000000000000081523060048201526020816024816001600160a01b037f0000000000000000000000000000000000000000000000000000000000000000165afa90811561070c5760009161263b575b50604051907f2b9b2709000000000000000000000000000000000000000000000000000000008252602082600481305afa90811561070c57600091612605575b612602925061253e565b90565b90506020823d602011612633575b816126206020938361251b565b810103126103a5576126029151906125f8565b3d9150612613565b90506020813d602011612665575b816126566020938361251b565b810103126103a55751386125b8565b3d9150612649565b1561267457565b606460405162461bcd60e51b815260206004820152601e60248201527f5661756c743a2063616c6c6572206973206e6f742061206d616e6167657200006044820152fd5b9190820391821161190c57565b156126cc57565b606460405162461bcd60e51b815260206004820152601d60248201527f5661756c743a2063616c6c6572206973206e6f7420616e206167656e740000006044820152fd5b601f8260209493601f19938186528686013760008582860101520116010190565b604090612602949281528160208201520191612710565b6001600160a01b03166000526001602052612602604060002054612834565b6001600160a01b031680600052600960205260ff6040600020541615612800576020600491604051928380927f12065fe00000000000000000000000000000000000000000000000000000000082525afa600091816127cc575b506126025750600090565b9091506020813d6020116127f8575b816127e86020938361251b565b810103126103a5575190386127c1565b3d91506127db565b50600090565b61280e61254b565b906001820180921161190c576003546001810180911161190c57612602926001926134db565b61283c61254b565b906001820180921161190c576003546001810180911161190c57612602926000926134db565b6001600160a01b0316908115612933576001600160a01b03169182156128c95760207f8c5be1e5ebec7d5bd14f71427d1e84f3dd0314c0f7b2291e5b200ac8c7c3b925918360005260028252604060002085600052825280604060002055604051908152a3565b608460405162461bcd60e51b815260206004820152602260248201527f45524332303a20617070726f766520746f20746865207a65726f20616464726560448201527f73730000000000000000000000000000000000000000000000000000000000006064820152fd5b608460405162461bcd60e51b8152602060048201526024808201527f45524332303a20617070726f76652066726f6d20746865207a65726f2061646460448201527f72657373000000000000000000000000000000000000000000000000000000006064820152fd5b60035460019081810180911161190c576129b461254b565b9082820180921161190c57612602936134db565b600354906001820180921161190c576129df61254b565b6001810180911161190c57612602926000926134db565b6001600160a01b037f000000000000000000000000000000000000000000000000000000000000000016906040517f70a08231000000000000000000000000000000000000000000000000000000008152600091306004830152602082602481875afa918215612c55578392612c78575b506001600160a01b031692833b15612c74576040517f2c1c12760000000000000000000000000000000000000000000000000000000081526020600482015260248101849052838160448183895af19081612c60575b50612b2e575050602081837f4704e4554d825fe2d5cbb8c929264a85ae533f0946c3798a9fcccd93524e9bea9352600a82526040812054612b02575b604051908152a2565b838152600a8252612b196040822054600b546126b8565b600b55838152600a8252806040812055612af9565b906020602492604051938480927f70a082310000000000000000000000000000000000000000000000000000000082523060048301525afa918215612c55578392612bff575b50916020917f4704e4554d825fe2d5cbb8c929264a85ae533f0946c3798a9fcccd93524e9bea93808211600014612bf757612bae916126b8565b905b848152600a83526040812054612bcb575b50604051908152a2565b848152600a8352612be26040822054600b546126b8565b600b55848152600a8352604081205538612bc1565b505080612bb0565b9150916020823d602011612c4d575b81612c1b6020938361251b565b810103126103a557905190917f4704e4554d825fe2d5cbb8c929264a85ae533f0946c3798a9fcccd93524e9bea612b74565b3d9150612c0e565b6040513d85823e3d90fd5b84612c6d9195929561251b565b9238612abd565b8280fd5b9091506020813d602011612cab575b81612c946020938361251b565b81010312612c745751906001600160a01b03612a67565b3d9150612c87565b600260075414612cc4576002600755565b606460405162461bcd60e51b815260206004820152601f60248201527f5265656e7472616e637947756172643a207265656e7472616e742063616c6c006044820152fd5b906001600160a01b038216600052600260205260406000206001600160a01b038216600052602052604060002054926000198403612d47575b50505050565b808410612d6257612d59930391612862565b38808080612d41565b606460405162461bcd60e51b815260206004820152601d60248201527f45524332303a20696e73756666696369656e7420616c6c6f77616e63650000006044820152fd5b6001600160a01b0316908115612f01576001600160a01b0316918215612e9757816000526001602052604060002054818110612e2d57817fddf252ad1be2c89b69c2b068fc378daa952ba7f163c4a11628f55a4df523b3ef9260209285600052600184520360406000205584600052600182526040600020818154019055604051908152a3565b608460405162461bcd60e51b815260206004820152602660248201527f45524332303a207472616e7366657220616d6f756e742065786365656473206260448201527f616c616e636500000000000000000000000000000000000000000000000000006064820152fd5b608460405162461bcd60e51b815260206004820152602360248201527f45524332303a207472616e7366657220746f20746865207a65726f206164647260448201527f65737300000000000000000000000000000000000000000000000000000000006064820152fd5b608460405162461bcd60e51b815260206004820152602560248201527f45524332303a207472616e736665722066726f6d20746865207a65726f20616460448201527f64726573730000000000000000000000000000000000000000000000000000006064820152fd5b3360009081527f54cdd369e4e8a8515e52ca72ec816c2101831ad1f18bf44102ed171459c9b4f8602052604090205460ff1615612fa457565b613065612fb0336137ae565b61304d6011612fbf600061395f565b9260376040519485927f416363657373436f6e74726f6c3a206163636f756e742000000000000000000060208501526130018151809260208688019101612348565b83017f206973206d697373696e6720726f6c65200000000000000000000000000000008382015261303c825180936020604885019101612348565b01010301601f19810183528261251b565b60405191829162461bcd60e51b83526004830161236b565b0390fd5b80600052600660205260406000206001600160a01b03331660005260205260ff60406000205416156130985750565b6130659061304d6011612fbf6130ad336137ae565b9361395f565b80600052600660205260406000206001600160a01b03831660005260205260ff604060002054166130e2575050565b80600052600660205260406000206001600160a01b038316600052602052604060002060ff1981541690556001600160a01b03339216907ff6391f5c32d9c69d2a47ea670b442974b53935d1edc7fd64eb21e047a839171b600080a4565b91906001600160a01b03906131c282604051957f23b872dd00000000000000000000000000000000000000000000000000000000602088015216948560248201523060448201528460648201526064815261319c60848261251b565b7f00000000000000000000000000000000000000000000000000000000000000006135a3565b1692831561324a577fdcbc1c05240f31ff3ad067ef1ee35ce4997762752e3a095284754544f4c709d791816131fb60409360035461253e565b600355856000526001602052826000208181540190558560007fddf252ad1be2c89b69c2b068fc378daa952ba7f163c4a11628f55a4df523b3ef60208651858152a382519182526020820152a3565b606460405162461bcd60e51b815260206004820152601f60248201527f45524332303a206d696e7420746f20746865207a65726f2061646472657373006044820152fd5b6001600160a01b036000541633036132a257565b606460405162461bcd60e51b815260206004820152602060248201527f4f776e61626c653a2063616c6c6572206973206e6f7420746865206f776e65726044820152fd5b91936001600160a01b03851694816001600160a01b038516948786036134ca575b5050508415613460578460005260016020526040600020548181106133f6577ffbde797d201c681b91056529119e0b02407c7bb96a4a2c75c01fc9667232c8db92826040936001600160a01b039389600052600160205203846000205580600354036003556000887fddf252ad1be2c89b69c2b068fc378daa952ba7f163c4a11628f55a4df523b3ef60208751858152a383517fa9059cbb0000000000000000000000000000000000000000000000000000000060208201526001600160a01b0383166024820152604481018890526133e79061319c8160648101610a58565b835196875260208701521693a4565b608460405162461bcd60e51b815260206004820152602260248201527f45524332303a206275726e20616d6f756e7420657863656564732062616c616e60448201527f63650000000000000000000000000000000000000000000000000000000000006064820152fd5b608460405162461bcd60e51b815260206004820152602160248201527f45524332303a206275726e2066726f6d20746865207a65726f2061646472657360448201527f73000000000000000000000000000000000000000000000000000000000000006064820152fd5b6134d392612d08565b388181613307565b91906134e88282856136d0565b936003811015613558576001149283613514575b5050506135065790565b6001810180911161190c5790565b909180935015613529570915153880806134fc565b7f4e487b7100000000000000000000000000000000000000000000000000000000600052601260045260246000fd5b7f4e487b7100000000000000000000000000000000000000000000000000000000600052602160045260246000fd5b67ffffffffffffffff8111611d6257601f01601f191660200190565b6001600160a01b036136259116916040926000808551936135c4878661251b565b602085527f5361666545524332303a206c6f772d6c6576656c2063616c6c206661696c6564602086015260208151910182855af13d156136c8573d9161360983613587565b926136168751948561251b565b83523d6000602085013e613a18565b80519081159182156136a5575b50501561363c5750565b6084905162461bcd60e51b815260206004820152602a60248201527f5361666545524332303a204552433230206f7065726174696f6e20646964206e60448201527f6f742073756363656564000000000000000000000000000000000000000000006064820152fd5b81925090602091810103126103a5576020015180151581036103a5573880613632565b606091613a18565b91600019828409928281029283808610950394808603951461378f578483111561374b5782910960018219018216809204600281600302188082026002030280820260020302808202600203028082026002030280820260020302809102600203029360018380600003040190848311900302920304170290565b606460405162461bcd60e51b815260206004820152601560248201527f4d6174683a206d756c446976206f766572666c6f7700000000000000000000006044820152fd5b505080925015613529570490565b9081518110156124ec570160200190565b6000906137bb602a613587565b916137c9604051938461251b565b602a83526137d7602a613587565b601f196020850191013682378351156139325760309053825160011015613905576078602184015350602960005b6001821161385a5750506138165790565b606460405162461bcd60e51b815260206004820152602060248201527f537472696e67733a20686578206c656e67746820696e73756666696369656e746044820152fd5b9091600f811660108110156138d8577f3031323334353637383961626364656600000000000000000000000000000000901a613896848661379d565b5360041c9180156138ab576000190190613805565b6024827f4e487b710000000000000000000000000000000000000000000000000000000081526011600452fd5b6024837f4e487b710000000000000000000000000000000000000000000000000000000081526032600452fd5b807f4e487b7100000000000000000000000000000000000000000000000000000000602492526032600452fd5b6024827f4e487b710000000000000000000000000000000000000000000000000000000081526032600452fd5b60009061396c6042613587565b9161397a604051938461251b565b604283526139886042613587565b601f196020850191013682378351156139325760309053825160011015613905576078602184015350604160005b600182116139c75750506138165790565b9091600f811660108110156138d8577f3031323334353637383961626364656600000000000000000000000000000000901a613a03848661379d565b5360041c9180156138ab5760001901906139b6565b91929015613a795750815115613a2c575090565b3b15613a355790565b606460405162461bcd60e51b815260206004820152601d60248201527f416464726573733a2063616c6c20746f206e6f6e2d636f6e74726163740000006044820152fd5b825190915015613a8c5750805190602001fd5b6130659060405191829162461bcd60e51b83526004830161236b56fea264697066735822122055706d3b3f538bea8ffba836b6ccb9802d191ce2b55140f902e3f0fd73e4562f64736f6c634300081c00332f8788117e7eff1d82e926ec794901d17c78024a50270940304540a733656f0d241ecf16d79d0f8dbfb92cbc07fe17840425976cf0667f022fe9877caa831b08cab5a0bfe0b79d2c4b1c2e02599fa044d115b7511f9659307cb42769509677094448119502453e295a09f7d4e8a6a0575d3624c233f99f59abf0835bf259780a6f33ec38532bdfedd8912126adc1f5918b75385d650da7c642efcc94ef3a60f554cdd369e4e8a8515e52ca72ec816c2101831ad1f18bf44102ed171459c9b4f8",
  "linkReferences": {},
  "deployedLinkReferences": {}
}