{
  "_format": "hh-sol-artifact-1",
  "contractName": "MockWETH",
  "sourceName": "contracts/mocks/MockWETH.sol",
  "abi": [
    {
      "inputs": [],
      "stateMutability": "nonpayable",
      "type": "constructor"
    },
    {
      "anonymous": false,
      "inputs": [
        {
          "indexed": true,
          "internalType": "address",
          "name": "owner",
          "type": "address"
        },
        {
          "indexed": true,
          "internalType": "address",
          "name": "spender",
          "type": "address"
        },
        {
          "indexed": false,
          "internalType": "uint256",
          "name": "value",
          "type": "uint256"
        }
      ],
      "name": "Approval",
      "type": "event"
    },
    {
      "anonymous": false,
      "inputs": [
        {
          "indexed": true,
          "internalType": "address",
          "name": "previousOwner",
          "type": "address"
        },
        {
          "indexed": true,
          "internalType": "address",
          "name": "newOwner",
          "type": "address"
        }
      ],
      "name": "OwnershipTransferred",
      "type": "event"
    },
    {
      "anonymous": false,
      "inputs": [
        {
          "indexed": true,
          "internalType": "address",
          "name": "from",
          "type": "address"
        },
        {
          "indexed": true,
          "internalType": "address",
          "name": "to",
          "type": "address"
        },
        {
          "indexed": false,
          "internalType": "uint256",
          "name": "value",
          "type": "uint256"
        }
      ],
      "name": "Transfer",
      "type": "event"
    },
    {
      "inputs": [
        {
          "internalType": "address",
          "name": "owner",
          "type": "address"
        },
        {
          "internalType": "address",
          "name": "spender",
          "type": "address"
        }
      ],
      "name": "allowance",
      "outputs": [
        {
          "internalType": "uint256",
          "name": "",
          "type": "uint256"
        }
      ],
      "stateMutability": "view",
      "type": "function"
    },
    {
      "inputs": [
        {
          "internalType": "address",
          "name": "spender",
          "type": "address"
        },
        {
          "internalType": "uint256",
          "name": "amount",
          "type": "uint256"
        }
      ],
      "name": "approve",
      "outputs": [
        {
          "internalType": "bool",
          "name": "",
          "type": "bool"
        }
      ],
      "stateMutability": "nonpayable",
      "type": "function"
    },
    {
      "inputs": [
        {
          "internalType": "address",
          "name": "account",
          "type": "address"
        }
      ],
      "name": "balanceOf",
      "outputs": [
        {
          "internalType": "uint256",
          "name": "",
          "type": "uint256"
        }
      ],
      "stateMutability": "view",
      "type": "function"
    },
    {
      "inputs": [
        {
          "internalType": "address[]",
          "name": "recipients",
          "type": "address[]"
        },
        {
          "internalType": "uint256",
          "name": "amount",
          "type": "uint256"
        }
      ],
      "name": "batchFaucet",
      "outputs": [],
      "stateMutability": "nonpayable",
      "type": "function"
    },
    {
      "inputs": [
        {
          "internalType": "uint256",
          "name": "amount",
          "type": "uint256"
        }
      ],
      "name": "burn",
      "outputs": [],
      "stateMutability": "nonpayable",
      "type": "function"
    },
    {
      "inputs": [],
      "name": "decimals",
      "outputs": [
        {
          "internalType": "uint8",
          "name": "",
          "type": "uint8"
        }
      ],
      "stateMutability": "pure",
      "type": "function"
    },
    {
      "inputs": [
        {
          "internalType": "address",
          "name": "spender",
          "type": "address"
        },
        {
          "internalType": "uint256",
          "name": "subtractedValue",
          "type": "uint256"
        }
      ],
      "name": "decreaseAllowance",
      "outputs": [
        {
          "internalType": "bool",
          "name": "",
          "type": "bool"
        }
      ],
      "stateMutability": "nonpayable",
      "type": "function"
    },
    {
      "inputs": [],
      "name": "deposit",
      "outputs": [],
      "stateMutability": "payable",
      "type": "function"
    },
    {
      "inputs": [
        {
          "internalType": "uint256",
          "name": "amount",
          "type": "uint256"
        }
      ],
      "name": "faucet",
      "outputs": [],
      "stateMutability": "nonpayable",
      "type": "function"
    },
    {
      "inputs": [
        {
          "internalType": "address",
          "name": "spender",
          "type": "address"
        },
        {
          "internalType": "uint256",
          "name": "addedValue",
          "type": "uint256"
        }
      ],
      "name": "increaseAllowance",
      "outputs": [
        {
          "internalType": "bool",
          "name": "",
          "type": "bool"
        }
      ],
      "stateMutability": "nonpayable",
      "type": "function"
    },
    {
      "inputs": [
        {
          "internalType": "address",
          "name": "to",
          "type": "address"
        },
        {
          "internalType": "uint256",
          "name": "amount",
          "type": "uint256"
        }
      ],
      "name": "mint",
      "outputs": [],
      "stateMutability": "nonpayable",
      "type": "function"
    },
    {
      "inputs": [],
      "name": "name",
      "outputs": [
        {
          "internalType": "string",
          "name": "",
          "type": "string"
        }
      ],
      "stateMutability": "view",
      "type": "function"
    },
    {
      "inputs": [],
      "name": "owner",
      "outputs": [
        {
          "internalType": "address",
          "name": "",
          "type": "address"
        }
      ],
      "stateMutability": "view",
      "type": "function"
    },
    {
      "inputs": [],
      "name": "renounceOwnership",
      "outputs": [],
      "stateMutability": "nonpayable",
      "type": "function"
    },
    {
      "inputs": [],
      "name": "symbol",
      "outputs": [
        {
          "internalType": "string",
          "name": "",
          "type": "string"
        }
      ],
      "stateMutability": "view",
      "type": "function"
    },
    {
      "inputs": [],
      "name": "totalSupply",
      "outputs": [
        {
          "internalType": "uint256",
          "name": "",
          "type": "uint256"
        }
      ],
      "stateMutability": "view",
      "type": "function"
    },
    {
      "inputs": [
        {
          "internalType": "address",
          "name": "to",
          "type": "address"
        },
        {
          "internalType": "uint256",
          "name": "amount",
          "type": "uint256"
        }
      ],
      "name": "transfer",
      "outputs": [
        {
          "internalType": "bool",
          "name": "",
          "type": "bool"
        }
      ],
      "stateMutability": "nonpayable",
      "type": "function"
    },
    {
      "inputs": [
        {
          "internalType": "address",
          "name": "from",
          "type": "address"
        },
        {
          "internalType": "address",
          "name": "to",
          "type": "address"
        },
        {
          "internalType": "uint256",
          "name": "amount",
          "type": "uint256"
        }
      ],
      "name": "transferFrom",
      "outputs": [
        {
          "internalType": "bool",
          "name": "",
          "type": "bool"
        }
      ],
      "stateMutability": "nonpayable",
      "type": "function"
    },
    {
      "inputs": [
        {
          "internalType": "address",
          "name": "newOwner",
          "type": "address"
        }
      ],
      "name": "transferOwnership",
      "outputs": [],
      "stateMutability": "nonpayable",
      "type": "function"
    },
    {
      "inputs": [
        {
          "internalType": "uint256",
          "name": "amount",
          "type": "uint256"
        }
      ],
      "name": "withdraw",
      "outputs": [],
      "stateMutability": "nonpayable",
      "type": "function"
    },
    {
      "stateMutability": "payable",
      "type": "receive"
    }
  ],
  "bytecode": "0x60806040523461040e57604080519081016001600160401b03811182821017610319576040908152600d82526c2bb930b83832b21022ba3432b960991b602083015280519081016001600160401b038111828210176103195760405260048152630ae8aa8960e31b602082015281516001600160401b03811161031957600354600181811c91168015610404575b60208210146102f957601f811161039f575b50602092601f821160011461033a579281929360009261032f575b50508160011b916000199060031b1c1916176003555b80516001600160401b03811161031957600454600181811c9116801561030f575b60208210146102f957601f8111610294575b50602091601f821160011461023057918192600092610225575b50508160011b916000199060031b1c1916176004555b61013c33610413565b61014533610413565b33156101e05760025469152d02c7e14af680000081018091116101ca57600255336000526000602052604060002069152d02c7e14af6800000815401905560405169152d02c7e14af6800000815260007fddf252ad1be2c89b69c2b068fc378daa952ba7f163c4a11628f55a4df523b3ef60203393a36040516111d1908161045d8239f35b634e487b7160e01b600052601160045260246000fd5b60405162461bcd60e51b815260206004820152601f60248201527f45524332303a206d696e7420746f20746865207a65726f2061646472657373006044820152606490fd5b01519050388061011d565b601f198216926004600052806000209160005b85811061027c57508360019510610263575b505050811b01600455610133565b015160001960f88460031b161c19169055388080610255565b91926020600181928685015181550194019201610243565b60046000527f8a35acfbc15ff81a39ae7d344fd709f28e8600b4aa8c65c6b64bfe7fe36bd19b601f830160051c810191602084106102ef575b601f0160051c01905b8181106102e35750610103565b600081556001016102d6565b90915081906102cd565b634e487b7160e01b600052602260045260246000fd5b90607f16906100f1565b634e487b7160e01b600052604160045260246000fd5b0151905038806100ba565b601f198216936003600052806000209160005b868110610387575083600195961061036e575b505050811b016003556100d0565b015160001960f88460031b161c19169055388080610360565b9192602060018192868501518155019401920161034d565b60036000527fc2575a0e9e593c00f959f8c92f12db2869c3395a3b0502d05e2516446f71f85b601f830160051c810191602084106103fa575b601f0160051c01905b8181106103ee575061009f565b600081556001016103e1565b90915081906103d8565b90607f169061008d565b600080fd5b600580546001600160a01b039283166001600160a01b0319821681179092559091167f8be0079c531659141344cd1fd0a4f28419497f9722a3daafe3b4186f6b6457e0600080a356fe6080806040526004361015610027575b50361561001b57600080fd5b61002534336110ec565b005b60003560e01c90816306fdde0314610a8e57508063095ea7b314610a6857806318160ddd14610a4a57806323b872dd1461094b5780632e1a7d4d146108a7578063313ce5671461088b578063395093511461082b57806340c10f19146107fe57806342966c68146107e1578063579158971461077057806370a0823114610729578063715018a6146106a95780638da5cb5b1461067557806395d89b41146104f2578063a457c2d714610426578063a9059cbb146103f5578063d0e30db0146103df578063d538852214610296578063dd62ed3e146102245763f2fde38b14610110573861000f565b3461021f57602060031936011261021f5773ffffffffffffffffffffffffffffffffffffffff61013e610bb5565b610146611087565b1680156101b55773ffffffffffffffffffffffffffffffffffffffff600554827fffffffffffffffffffffffff0000000000000000000000000000000000000000821617600555167f8be0079c531659141344cd1fd0a4f28419497f9722a3daafe3b4186f6b6457e0600080a3005b608460405162461bcd60e51b815260206004820152602660248201527f4f776e61626c653a206e6577206f776e657220697320746865207a65726f206160448201527f64647265737300000000000000000000000000000000000000000000000000006064820152fd5b600080fd5b3461021f57604060031936011261021f5761023d610bb5565b73ffffffffffffffffffffffffffffffffffffffff61025a610bd8565b9116600052600160205273ffffffffffffffffffffffffffffffffffffffff604060002091166000526020526020604060002054604051908152f35b3461021f57604060031936011261021f5760043567ffffffffffffffff811161021f573660238201121561021f57806004013567ffffffffffffffff811161021f573660248260051b8401011161021f5760243591678ac7230489e8000083116103465760005b8281101561002557600060248260051b840101359073ffffffffffffffffffffffffffffffffffffffff8216820361034357509061033d856001936110ec565b016102fd565b80fd5b608460405162461bcd60e51b815260206004820152602360248201527f4d6f636b574554483a204d61782031302057455448207065722072656369706960448201527f656e7400000000000000000000000000000000000000000000000000000000006064820152fd5b7f4e487b7100000000000000000000000000000000000000000000000000000000600052601160045260246000fd5b600060031936011261021f5761002534336110ec565b3461021f57604060031936011261021f5761041b610411610bb5565b6024359033610d5c565b602060405160018152f35b3461021f57604060031936011261021f5761043f610bb5565b60243590336000526001602052604060002073ffffffffffffffffffffffffffffffffffffffff8216600052602052604060002054918083106104885761041b92039033610c08565b608460405162461bcd60e51b815260206004820152602560248201527f45524332303a2064656372656173656420616c6c6f77616e63652062656c6f7760448201527f207a65726f0000000000000000000000000000000000000000000000000000006064820152fd5b3461021f57600060031936011261021f57604051600090600454918260011c6001841693841561066b575b60208210851461063e57839482855290816000146105fc575060011461059f575b5003601f01601f191681019067ffffffffffffffff8211818310176105705761056c82918260405282610b6b565b0390f35b7f4e487b7100000000000000000000000000000000000000000000000000000000600052604160045260246000fd5b6004600090815291507f8a35acfbc15ff81a39ae7d344fd709f28e8600b4aa8c65c6b64bfe7fe36bd19b5b8183106105e05750508101602001601f1961053e565b60209193508060019154838588010152019101909183926105ca565b7fffffffffffffffffffffffffffffffffffffffffffffffffffffffffffffff001660208581019190915291151560051b84019091019150601f19905061053e565b6024837f4e487b710000000000000000000000000000000000000000000000000000000081526022600452fd5b90607f169061051d565b3461021f57600060031936011261021f57602073ffffffffffffffffffffffffffffffffffffffff60055416604051908152f35b3461021f57600060031936011261021f576106c2611087565b600073ffffffffffffffffffffffffffffffffffffffff6005547fffffffffffffffffffffffff00000000000000000000000000000000000000008116600555167f8be0079c531659141344cd1fd0a4f28419497f9722a3daafe3b4186f6b6457e08280a3005b3461021f57602060031936011261021f5773ffffffffffffffffffffffffffffffffffffffff610757610bb5565b1660005260006020526020604060002054604051908152f35b3461021f57602060031936011261021f57600435678ac7230489e80000811161079d5761002590336110ec565b606460405162461bcd60e51b815260206004820152602060248201527f4d6f636b574554483a204d6178203130205745544820706572206661756365746044820152fd5b3461021f57602060031936011261021f5761002560043533610f3b565b3461021f57604060031936011261021f5761002561081a610bb5565b610822611087565b602435906110ec565b3461021f57604060031936011261021f5761041b610847610bb5565b336000526001602052604060002073ffffffffffffffffffffffffffffffffffffffff821660005260205261088460406000206024359054610bfb565b9033610c08565b3461021f57600060031936011261021f57602060405160128152f35b3461021f57602060031936011261021f5760043533600052600060205280604060002054106109075760008080836108e0829533610f3b565b8181156108fe575b3390f1156108f257005b6040513d6000823e3d90fd5b506108fc6108e8565b606460405162461bcd60e51b815260206004820152601e60248201527f4d6f636b574554483a20496e73756666696369656e742062616c616e636500006044820152fd5b3461021f57606060031936011261021f57610964610bb5565b61096c610bd8565b6044359073ffffffffffffffffffffffffffffffffffffffff83166000526001602052604060002073ffffffffffffffffffffffffffffffffffffffff3316600052602052604060002054927fffffffffffffffffffffffffffffffffffffffffffffffffffffffffffffffff84036109ea575b61041b9350610d5c565b828410610a0657610a018361041b95033383610c08565b6109e0565b606460405162461bcd60e51b815260206004820152601d60248201527f45524332303a20696e73756666696369656e7420616c6c6f77616e63650000006044820152fd5b3461021f57600060031936011261021f576020600254604051908152f35b3461021f57604060031936011261021f5761041b610a84610bb5565b6024359033610c08565b3461021f57600060031936011261021f57600090600354918260011c60018416938415610b61575b60208210851461063e57839482855290816000146105fc5750600114610b04575003601f01601f191681019067ffffffffffffffff8211818310176105705761056c82918260405282610b6b565b6003600090815291507fc2575a0e9e593c00f959f8c92f12db2869c3395a3b0502d05e2516446f71f85b5b818310610b455750508101602001601f1961053e565b6020919350806001915483858801015201910190918392610b2f565b90607f1690610ab6565b9190916020815282519283602083015260005b848110610b9f575050601f19601f8460006040809697860101520116010190565b8060208092840101516040828601015201610b7e565b6004359073ffffffffffffffffffffffffffffffffffffffff8216820361021f57565b6024359073ffffffffffffffffffffffffffffffffffffffff8216820361021f57565b919082018092116103b057565b73ffffffffffffffffffffffffffffffffffffffff16908115610cf35773ffffffffffffffffffffffffffffffffffffffff16918215610c895760207f8c5be1e5ebec7d5bd14f71427d1e84f3dd0314c0f7b2291e5b200ac8c7c3b925918360005260018252604060002085600052825280604060002055604051908152a3565b608460405162461bcd60e51b815260206004820152602260248201527f45524332303a20617070726f766520746f20746865207a65726f20616464726560448201527f73730000000000000000000000000000000000000000000000000000000000006064820152fd5b608460405162461bcd60e51b8152602060048201526024808201527f45524332303a20617070726f76652066726f6d20746865207a65726f2061646460448201527f72657373000000000000000000000000000000000000000000000000000000006064820152fd5b73ffffffffffffffffffffffffffffffffffffffff16908115610ed15773ffffffffffffffffffffffffffffffffffffffff16918215610e6757816000526000602052604060002054818110610dfd57817fddf252ad1be2c89b69c2b068fc378daa952ba7f163c4a11628f55a4df523b3ef9260209285600052600084520360406000205584600052600082526040600020818154019055604051908152a3565b608460405162461bcd60e51b815260206004820152602660248201527f45524332303a207472616e7366657220616d6f756e742065786365656473206260448201527f616c616e636500000000000000000000000000000000000000000000000000006064820152fd5b608460405162461bcd60e51b815260206004820152602360248201527f45524332303a207472616e7366657220746f20746865207a65726f206164647260448201527f65737300000000000000000000000000000000000000000000000000000000006064820152fd5b608460405162461bcd60e51b815260206004820152602560248201527f45524332303a207472616e736665722066726f6d20746865207a65726f20616460448201527f64726573730000000000000000000000000000000000000000000000000000006064820152fd5b73ffffffffffffffffffffffffffffffffffffffff16801561101d5780600052600060205260406000205491808310610fb3576020817fddf252ad1be2c89b69c2b068fc378daa952ba7f163c4a11628f55a4df523b3ef926000958587528684520360408620558060025403600255604051908152a3565b608460405162461bcd60e51b815260206004820152602260248201527f45524332303a206275726e20616d6f756e7420657863656564732062616c616e60448201527f63650000000000000000000000000000000000000000000000000000000000006064820152fd5b608460405162461bcd60e51b815260206004820152602160248201527f45524332303a206275726e2066726f6d20746865207a65726f2061646472657360448201527f73000000000000000000000000000000000000000000000000000000000000006064820152fd5b73ffffffffffffffffffffffffffffffffffffffff6005541633036110a857565b606460405162461bcd60e51b815260206004820152602060248201527f4f776e61626c653a2063616c6c6572206973206e6f7420746865206f776e65726044820152fd5b73ffffffffffffffffffffffffffffffffffffffff16908115611157577fddf252ad1be2c89b69c2b068fc378daa952ba7f163c4a11628f55a4df523b3ef60208261113b600094600254610bfb565b60025584845283825260408420818154019055604051908152a3565b606460405162461bcd60e51b815260206004820152601f60248201527f45524332303a206d696e7420746f20746865207a65726f2061646472657373006044820152fdfea26469706673582212202276f2ffd35bcd5d9c8b82c58b8ffffdae5f06494c200ac15d7f10926a5e5b8b64736f6c634300081c0033",
  "linkReferences": {},
  "deployedLinkReferences": {}
}