{
  "_format": "hh-sol-artifact-1",
  "contractName": "MockUSDC",
  "sourceName": "contracts/mocks/MockUSDC.sol",
  "abi": [
    {
      "inputs": [],
      "stateMutability": "nonpayable",
      "type": "constructor"
    },
    {
      "anonymous": false,
      "inputs": [
        {
          "indexed": true,
          "internalType": "address",
          "name": "owner",
          "type": "address"
        },
        {
          "indexed": true,
          "internalType": "address",
          "name": "spender",
          "type": "address"
        },
        {
          "indexed": false,
          "internalType": "uint256",
          "name": "value",
          "type": "uint256"
        }
      ],
      "name": "Approval",
      "type": "event"
    },
    {
      "anonymous": false,
      "inputs": [
        {
          "indexed": true,
          "internalType": "address",
          "name": "previousOwner",
          "type": "address"
        },
        {
          "indexed": true,
          "internalType": "address",
          "name": "newOwner",
          "type": "address"
        }
      ],
      "name": "OwnershipTransferred",
      "type": "event"
    },
    {
      "anonymous": false,
      "inputs": [
        {
          "indexed": true,
          "internalType": "address",
          "name": "from",
          "type": "address"
        },
        {
          "indexed": true,
          "internalType": "address",
          "name": "to",
          "type": "address"
        },
        {
          "indexed": false,
          "internalType": "uint256",
          "name": "value",
          "type": "uint256"
        }
      ],
      "name": "Transfer",
      "type": "event"
    },
    {
      "inputs": [
        {
          "internalType": "address",
          "name": "owner",
          "type": "address"
        },
        {
          "internalType": "address",
          "name": "spender",
          "type": "address"
        }
      ],
      "name": "allowance",
      "outputs": [
        {
          "internalType": "uint256",
          "name": "",
          "type": "uint256"
        }
      ],
      "stateMutability": "view",
      "type": "function"
    },
    {
      "inputs": [
        {
          "internalType": "address",
          "name": "spender",
          "type": "address"
        },
        {
          "internalType": "uint256",
          "name": "amount",
          "type": "uint256"
        }
      ],
      "name": "approve",
      "outputs": [
        {
          "internalType": "bool",
          "name": "",
          "type": "bool"
        }
      ],
      "stateMutability": "nonpayable",
      "type": "function"
    },
    {
      "inputs": [
        {
          "internalType": "address",
          "name": "account",
          "type": "address"
        }
      ],
      "name": "balanceOf",
      "outputs": [
        {
          "internalType": "uint256",
          "name": "",
          "type": "uint256"
        }
      ],
      "stateMutability": "view",
      "type": "function"
    },
    {
      "inputs": [
        {
          "internalType": "address[]",
          "name": "recipients",
          "type": "address[]"
        },
        {
          "internalType": "uint256",
          "name": "amount",
          "type": "uint256"
        }
      ],
      "name": "batchFaucet",
      "outputs": [],
      "stateMutability": "nonpayable",
      "type": "function"
    },
    {
      "inputs": [
        {
          "internalType": "uint256",
          "name": "amount",
          "type": "uint256"
        }
      ],
      "name": "burn",
      "outputs": [],
      "stateMutability": "nonpayable",
      "type": "function"
    },
    {
      "inputs": [],
      "name": "decimals",
      "outputs": [
        {
          "internalType": "uint8",
          "name": "",
          "type": "uint8"
        }
      ],
      "stateMutability": "pure",
      "type": "function"
    },
    {
      "inputs": [
        {
          "internalType": "address",
          "name": "spender",
          "type": "address"
        },
        {
          "internalType": "uint256",
          "name": "subtractedValue",
          "type": "uint256"
        }
      ],
      "name": "decreaseAllowance",
      "outputs": [
        {
          "internalType": "bool",
          "name": "",
          "type": "bool"
        }
      ],
      "stateMutability": "nonpayable",
      "type": "function"
    },
    {
      "inputs": [
        {
          "internalType": "uint256",
          "name": "amount",
          "type": "uint256"
        }
      ],
      "name": "faucet",
      "outputs": [],
      "stateMutability": "nonpayable",
      "type": "function"
    },
    {
      "inputs": [
        {
          "internalType": "address",
          "name": "spender",
          "type": "address"
        },
        {
          "internalType": "uint256",
          "name": "addedValue",
          "type": "uint256"
        }
      ],
      "name": "increaseAllowance",
      "outputs": [
        {
          "internalType": "bool",
          "name": "",
          "type": "bool"
        }
      ],
      "stateMutability": "nonpayable",
      "type": "function"
    },
    {
      "inputs": [
        {
          "internalType": "address",
          "name": "to",
          "type": "address"
        },
        {
          "internalType": "uint256",
          "name": "amount",
          "type": "uint256"
        }
      ],
      "name": "mint",
      "outputs": [],
      "stateMutability": "nonpayable",
      "type": "function"
    },
    {
      "inputs": [],
      "name": "name",
      "outputs": [
        {
          "internalType": "string",
          "name": "",
          "type": "string"
        }
      ],
      "stateMutability": "view",
      "type": "function"
    },
    {
      "inputs": [],
      "name": "owner",
      "outputs": [
        {
          "internalType": "address",
          "name": "",
          "type": "address"
        }
      ],
      "stateMutability": "view",
      "type": "function"
    },
    {
      "inputs": [],
      "name": "renounceOwnership",
      "outputs": [],
      "stateMutability": "nonpayable",
      "type": "function"
    },
    {
      "inputs": [],
      "name": "symbol",
      "outputs": [
        {
          "internalType": "string",
          "name": "",
          "type": "string"
        }
      ],
      "stateMutability": "view",
      "type": "function"
    },
    {
      "inputs": [],
      "name": "totalSupply",
      "outputs": [
        {
          "internalType": "uint256",
          "name": "",
          "type": "uint256"
        }
      ],
      "stateMutability": "view",
      "type": "function"
    },
    {
      "inputs": [
        {
          "internalType": "address",
          "name": "to",
          "type": "address"
        },
        {
          "internalType": "uint256",
          "name": "amount",
          "type": "uint256"
        }
      ],
      "name": "transfer",
      "outputs": [
        {
          "internalType": "bool",
          "name": "",
          "type": "bool"
        }
      ],
      "stateMutability": "nonpayable",
      "type": "function"
    },
    {
      "inputs": [
        {
          "internalType": "address",
          "name": "from",
          "type": "address"
        },
        {
          "internalType": "address",
          "name": "to",
          "type": "address"
        },
        {
          "internalType": "uint256",
          "name": "amount",
          "type": "uint256"
        }
      ],
      "name": "transferFrom",
      "outputs": [
        {
          "internalType": "bool",
          "name": "",
          "type": "bool"
        }
      ],
      "stateMutability": "nonpayable",
      "type": "function"
    },
    {
      "inputs": [
        {
          "internalType": "address",
          "name": "newOwner",
          "type": "address"
        }
      ],
      "name": "transferOwnership",
      "outputs": [],
      "stateMutability": "nonpayable",
      "type": "function"
    }
  ],
  "bytecode": "0x60806040523461040057604080519081016001600160401b0381118282101761030b57604090815260088252672aa9a21021b7b4b760c11b602083015280519081016001600160401b0381118282101761030b5760405260048152635553444360e01b602082015281516001600160401b03811161030b57600354600181811c911680156103f6575b60208210146102eb57601f8111610391575b50602092601f821160011461032c5792819293600092610321575b50508160011b916000199060031b1c1916176003555b80516001600160401b03811161030b57600454600181811c91168015610301575b60208210146102eb57601f8111610286575b50602091601f821160011461022257918192600092610217575b50508160011b916000199060031b1c1916176004555b61013733610405565b61014033610405565b33156101d25760025466038d7ea4c6800081018091116101bc57600255336000526000602052604060002066038d7ea4c68000815401905560405166038d7ea4c68000815260007fddf252ad1be2c89b69c2b068fc378daa952ba7f163c4a11628f55a4df523b3ef60203393a36040516110f0908161044f8239f35b634e487b7160e01b600052601160045260246000fd5b60405162461bcd60e51b815260206004820152601f60248201527f45524332303a206d696e7420746f20746865207a65726f2061646472657373006044820152606490fd5b015190503880610118565b601f198216926004600052806000209160005b85811061026e57508360019510610255575b505050811b0160045561012e565b015160001960f88460031b161c19169055388080610247565b91926020600181928685015181550194019201610235565b60046000527f8a35acfbc15ff81a39ae7d344fd709f28e8600b4aa8c65c6b64bfe7fe36bd19b601f830160051c810191602084106102e1575b601f0160051c01905b8181106102d557506100fe565b600081556001016102c8565b90915081906102bf565b634e487b7160e01b600052602260045260246000fd5b90607f16906100ec565b634e487b7160e01b600052604160045260246000fd5b0151905038806100b5565b601f198216936003600052806000209160005b8681106103795750836001959610610360575b505050811b016003556100cb565b015160001960f88460031b161c19169055388080610352565b9192602060018192868501518155019401920161033f565b60036000527fc2575a0e9e593c00f959f8c92f12db2869c3395a3b0502d05e2516446f71f85b601f830160051c810191602084106103ec575b601f0160051c01905b8181106103e0575061009a565b600081556001016103d3565b90915081906103ca565b90607f1690610088565b600080fd5b600580546001600160a01b039283166001600160a01b0319821681179092559091167f8be0079c531659141344cd1fd0a4f28419497f9722a3daafe3b4186f6b6457e0600080a356fe608080604052600436101561001357600080fd5b60003560e01c90816306fdde0314610af957508063095ea7b314610ad357806318160ddd14610ab557806323b872dd146109b6578063313ce5671461099a578063395093511461093a57806340c10f191461090d57806342966c68146107c1578063579158971461072e57806370a08231146106e7578063715018a6146106675780638da5cb5b1461063357806395d89b41146104b0578063a457c2d7146103e4578063a9059cbb146103b3578063d53885221461026b578063dd62ed3e146101f95763f2fde38b146100e557600080fd5b346101f45760206003193601126101f45773ffffffffffffffffffffffffffffffffffffffff610113610c20565b61011b610fa6565b16801561018a5773ffffffffffffffffffffffffffffffffffffffff600554827fffffffffffffffffffffffff0000000000000000000000000000000000000000821617600555167f8be0079c531659141344cd1fd0a4f28419497f9722a3daafe3b4186f6b6457e0600080a3005b608460405162461bcd60e51b815260206004820152602660248201527f4f776e61626c653a206e6577206f776e657220697320746865207a65726f206160448201527f64647265737300000000000000000000000000000000000000000000000000006064820152fd5b600080fd5b346101f45760406003193601126101f457610212610c20565b73ffffffffffffffffffffffffffffffffffffffff61022f610c43565b9116600052600160205273ffffffffffffffffffffffffffffffffffffffff604060002091166000526020526020604060002054604051908152f35b346101f45760406003193601126101f45760043567ffffffffffffffff81116101f457366023820112156101f457806004013567ffffffffffffffff81116101f4573660248260051b840101116101f457602435916402540be400831161031a5760005b8281101561031857600060248260051b840101359073ffffffffffffffffffffffffffffffffffffffff8216820361031557509061030f8560019361100b565b016102cf565b80fd5b005b608460405162461bcd60e51b815260206004820152602760248201527f4d6f636b555344433a204d61782031302c30303020555344432070657220726560448201527f63697069656e74000000000000000000000000000000000000000000000000006064820152fd5b7f4e487b7100000000000000000000000000000000000000000000000000000000600052601160045260246000fd5b346101f45760406003193601126101f4576103d96103cf610c20565b6024359033610dc7565b602060405160018152f35b346101f45760406003193601126101f4576103fd610c20565b60243590336000526001602052604060002073ffffffffffffffffffffffffffffffffffffffff821660005260205260406000205491808310610446576103d992039033610c73565b608460405162461bcd60e51b815260206004820152602560248201527f45524332303a2064656372656173656420616c6c6f77616e63652062656c6f7760448201527f207a65726f0000000000000000000000000000000000000000000000000000006064820152fd5b346101f45760006003193601126101f457604051600090600454918260011c60018416938415610629575b6020821085146105fc57839482855290816000146105ba575060011461055d575b5003601f01601f191681019067ffffffffffffffff82118183101761052e5761052a82918260405282610bd6565b0390f35b7f4e487b7100000000000000000000000000000000000000000000000000000000600052604160045260246000fd5b6004600090815291507f8a35acfbc15ff81a39ae7d344fd709f28e8600b4aa8c65c6b64bfe7fe36bd19b5b81831061059e5750508101602001601f196104fc565b6020919350806001915483858801015201910190918392610588565b7fffffffffffffffffffffffffffffffffffffffffffffffffffffffffffffff001660208581019190915291151560051b84019091019150601f1990506104fc565b6024837f4e487b710000000000000000000000000000000000000000000000000000000081526022600452fd5b90607f16906104db565b346101f45760006003193601126101f457602073ffffffffffffffffffffffffffffffffffffffff60055416604051908152f35b346101f45760006003193601126101f457610680610fa6565b600073ffffffffffffffffffffffffffffffffffffffff6005547fffffffffffffffffffffffff00000000000000000000000000000000000000008116600555167f8be0079c531659141344cd1fd0a4f28419497f9722a3daafe3b4186f6b6457e08280a3005b346101f45760206003193601126101f45773ffffffffffffffffffffffffffffffffffffffff610715610c20565b1660005260006020526020604060002054604051908152f35b346101f45760206003193601126101f4576004356402540be400811161075857610318903361100b565b608460405162461bcd60e51b8152602060048201526024808201527f4d6f636b555344433a204d61782031302c30303020555344432070657220666160448201527f75636574000000000000000000000000000000000000000000000000000000006064820152fd5b346101f45760206003193601126101f45760043533156108a3573360005260006020526040600020549080821061083957806000923384528360205203604083205580600254036002556040519081527fddf252ad1be2c89b69c2b068fc378daa952ba7f163c4a11628f55a4df523b3ef60203392a3005b608460405162461bcd60e51b815260206004820152602260248201527f45524332303a206275726e20616d6f756e7420657863656564732062616c616e60448201527f63650000000000000000000000000000000000000000000000000000000000006064820152fd5b608460405162461bcd60e51b815260206004820152602160248201527f45524332303a206275726e2066726f6d20746865207a65726f2061646472657360448201527f73000000000000000000000000000000000000000000000000000000000000006064820152fd5b346101f45760406003193601126101f457610318610929610c20565b610931610fa6565b6024359061100b565b346101f45760406003193601126101f4576103d9610956610c20565b336000526001602052604060002073ffffffffffffffffffffffffffffffffffffffff821660005260205261099360406000206024359054610c66565b9033610c73565b346101f45760006003193601126101f457602060405160068152f35b346101f45760606003193601126101f4576109cf610c20565b6109d7610c43565b6044359073ffffffffffffffffffffffffffffffffffffffff83166000526001602052604060002073ffffffffffffffffffffffffffffffffffffffff3316600052602052604060002054927fffffffffffffffffffffffffffffffffffffffffffffffffffffffffffffffff8403610a55575b6103d99350610dc7565b828410610a7157610a6c836103d995033383610c73565b610a4b565b606460405162461bcd60e51b815260206004820152601d60248201527f45524332303a20696e73756666696369656e7420616c6c6f77616e63650000006044820152fd5b346101f45760006003193601126101f4576020600254604051908152f35b346101f45760406003193601126101f4576103d9610aef610c20565b6024359033610c73565b346101f45760006003193601126101f457600090600354918260011c60018416938415610bcc575b6020821085146105fc57839482855290816000146105ba5750600114610b6f575003601f01601f191681019067ffffffffffffffff82118183101761052e5761052a82918260405282610bd6565b6003600090815291507fc2575a0e9e593c00f959f8c92f12db2869c3395a3b0502d05e2516446f71f85b5b818310610bb05750508101602001601f196104fc565b6020919350806001915483858801015201910190918392610b9a565b90607f1690610b21565b9190916020815282519283602083015260005b848110610c0a575050601f19601f8460006040809697860101520116010190565b8060208092840101516040828601015201610be9565b6004359073ffffffffffffffffffffffffffffffffffffffff821682036101f457565b6024359073ffffffffffffffffffffffffffffffffffffffff821682036101f457565b9190820180921161038457565b73ffffffffffffffffffffffffffffffffffffffff16908115610d5e5773ffffffffffffffffffffffffffffffffffffffff16918215610cf45760207f8c5be1e5ebec7d5bd14f71427d1e84f3dd0314c0f7b2291e5b200ac8c7c3b925918360005260018252604060002085600052825280604060002055604051908152a3565b608460405162461bcd60e51b815260206004820152602260248201527f45524332303a20617070726f766520746f20746865207a65726f20616464726560448201527f73730000000000000000000000000000000000000000000000000000000000006064820152fd5b608460405162461bcd60e51b8152602060048201526024808201527f45524332303a20617070726f76652066726f6d20746865207a65726f2061646460448201527f72657373000000000000000000000000000000000000000000000000000000006064820152fd5b73ffffffffffffffffffffffffffffffffffffffff16908115610f3c5773ffffffffffffffffffffffffffffffffffffffff16918215610ed257816000526000602052604060002054818110610e6857817fddf252ad1be2c89b69c2b068fc378daa952ba7f163c4a11628f55a4df523b3ef9260209285600052600084520360406000205584600052600082526040600020818154019055604051908152a3565b608460405162461bcd60e51b815260206004820152602660248201527f45524332303a207472616e7366657220616d6f756e742065786365656473206260448201527f616c616e636500000000000000000000000000000000000000000000000000006064820152fd5b608460405162461bcd60e51b815260206004820152602360248201527f45524332303a207472616e7366657220746f20746865207a65726f206164647260448201527f65737300000000000000000000000000000000000000000000000000000000006064820152fd5b608460405162461bcd60e51b815260206004820152602560248201527f45524332303a207472616e736665722066726f6d20746865207a65726f20616460448201527f64726573730000000000000000000000000000000000000000000000000000006064820152fd5b73ffffffffffffffffffffffffffffffffffffffff600554163303610fc757565b606460405162461bcd60e51b815260206004820152602060248201527f4f776e61626c653a2063616c6c6572206973206e6f7420746865206f776e65726044820152fd5b73ffffffffffffffffffffffffffffffffffffffff16908115611076577fddf252ad1be2c89b69c2b068fc378daa952ba7f163c4a11628f55a4df523b3ef60208261105a600094600254610c66565b60025584845283825260408420818154019055604051908152a3565b606460405162461bcd60e51b815260206004820152601f60248201527f45524332303a206d696e7420746f20746865207a65726f2061646472657373006044820152fdfea2646970667358221220c171004dd0518a4032cad5ea1de10766236a22b6780f9e6b518cb76cd695f7c464736f6c634300081c0033",
  "linkReferences": {},
  "deployedLinkReferences": {}
}