{
  "_format": "hh-sol-artifact-1",
  "contractName": "AutoDepositProxy",
  "sourceName": "contracts/core/AutoDepositProxy.sol",
  "abi": [
    {
      "inputs": [
        {
          "internalType": "address",
          "name": "_vault",
          "type": "address"
        },
        {
          "internalType": "address",
          "name": "_token",
          "type": "address"
        },
        {
          "internalType": "address",
          "name": "_beneficiary",
          "type": "address"
        },
        {
          "internalType": "uint256",
          "name": "_minDepositAmount",
          "type": "uint256"
        }
      ],
      "stateMutability": "nonpayable",
      "type": "constructor"
    },
    {
      "inputs": [],
      "name": "InsufficientAmount",
      "type": "error"
    },
    {
      "inputs": [],
      "name": "InvalidBeneficiary",
      "type": "error"
    },
    {
      "inputs": [],
      "name": "InvalidToken",
      "type": "error"
    },
    {
      "inputs": [],
      "name": "InvalidVault",
      "type": "error"
    },
    {
      "anonymous": false,
      "inputs": [
        {
          "indexed": true,
          "internalType": "address",
          "name": "beneficiary",
          "type": "address"
        },
        {
          "indexed": false,
          "internalType": "uint256",
          "name": "tokenAmount",
          "type": "uint256"
        },
        {
          "indexed": false,
          "internalType": "uint256",
          "name": "sharesReceived",
          "type": "uint256"
        }
      ],
      "name": "AutoDeposit",
      "type": "event"
    },
    {
      "anonymous": false,
      "inputs": [
        {
          "indexed": false,
          "internalType": "uint256",
          "name": "amount",
          "type": "uint256"
        },
        {
          "indexed": false,
          "internalType": "string",
          "name": "reason",
          "type": "string"
        }
      ],
      "name": "DepositFailed",
      "type": "event"
    },
    {
      "stateMutability": "nonpayable",
      "type": "fallback"
    },
    {
      "inputs": [],
      "name": "autoDeposit",
      "outputs": [],
      "stateMutability": "nonpayable",
      "type": "function"
    },
    {
      "inputs": [],
      "name": "beneficiary",
      "outputs": [
        {
          "internalType": "address",
          "name": "",
          "type": "address"
        }
      ],
      "stateMutability": "view",
      "type": "function"
    },
    {
      "inputs": [],
      "name": "canAutoDeposit",
      "outputs": [
        {
          "internalType": "bool",
          "name": "",
          "type": "bool"
        }
      ],
      "stateMutability": "view",
      "type": "function"
    },
    {
      "inputs": [
        {
          "internalType": "uint256",
          "name": "amount",
          "type": "uint256"
        }
      ],
      "name": "deposit",
      "outputs": [],
      "stateMutability": "nonpayable",
      "type": "function"
    },
    {
      "inputs": [],
      "name": "emergencyWithdraw",
      "outputs": [],
      "stateMutability": "nonpayable",
      "type": "function"
    },
    {
      "inputs": [],
      "name": "getBalance",
      "outputs": [
        {
          "internalType": "uint256",
          "name": "",
          "type": "uint256"
        }
      ],
      "stateMutability": "view",
      "type": "function"
    },
    {
      "inputs": [],
      "name": "minDepositAmount",
      "outputs": [
        {
          "internalType": "uint256",
          "name": "",
          "type": "uint256"
        }
      ],
      "stateMutability": "view",
      "type": "function"
    },
    {
      "inputs": [],
      "name": "token",
      "outputs": [
        {
          "internalType": "contract IERC20",
          "name": "",
          "type": "address"
        }
      ],
      "stateMutability": "view",
      "type": "function"
    },
    {
      "inputs": [],
      "name": "vault",
      "outputs": [
        {
          "internalType": "contract Vault",
          "name": "",
          "type": "address"
        }
      ],
      "stateMutability": "view",
      "type": "function"
    }
  ],
  "bytecode": "0x61010080604052346102a4576080816114d7803803809161002082856103a8565b8339810103126102a457610033816103cb565b90610040602082016103cb565b91606061004f604084016103cb565b9201516001600160a01b03909116928315610397576001600160a01b0316918215610386576001600160a01b0381161561037557836080528260a05260c05260e052604051636eb1769f60e11b8152306004820152826024820152602081604481855afa90811561036957600091610337575b506102cc57604051602081019263095ea7b360e01b845260248201526000196044820152604481526100f56064826103a8565b60008060409485519361010887866103a8565b602085527f5361666545524332303a206c6f772d6c6576656c2063616c6c206661696c65646020860152519082865af13d156102bf573d906001600160401b0382116102a957845161017994909261016a601f8201601f1916602001856103a8565b83523d6000602085013e6103df565b8051908115918215610281575b50501561022b575161102790816104b082396080518181816101470152818161032a015281816107b80152610b1c015260a051818181605e015281816102d9015281816103b4015281816106f30152818161094801528181610a330152610d66015260c05181818160e9015281816103760152818161075a01528181610abe0152610ceb015260e05181818160920152818161098101528181610a670152610c9b0152f35b5162461bcd60e51b815260206004820152602a60248201527f5361666545524332303a204552433230206f7065726174696f6e20646964206e6044820152691bdd081cdd58d8d9595960b21b6064820152608490fd5b81925090602091810103126102a4576020015180151581036102a4573880610186565b600080fd5b634e487b7160e01b600052604160045260246000fd5b91610179926060916103df565b60405162461bcd60e51b815260206004820152603660248201527f5361666545524332303a20617070726f76652066726f6d206e6f6e2d7a65726f60448201527f20746f206e6f6e2d7a65726f20616c6c6f77616e6365000000000000000000006064820152608490fd5b90506020813d602011610361575b81610352602093836103a8565b810103126102a45751386100c2565b3d9150610345565b6040513d6000823e3d90fd5b631559b7d760e21b60005260046000fd5b63c1ab6dc160e01b60005260046000fd5b630681d31960e51b60005260046000fd5b601f909101601f19168101906001600160401b038211908210176102a957604052565b51906001600160a01b03821682036102a457565b9192901561044157508151156103f3575090565b3b156103fc5790565b60405162461bcd60e51b815260206004820152601d60248201527f416464726573733a2063616c6c20746f206e6f6e2d636f6e74726163740000006044820152606490fd5b8251909150156104545750805190602001fd5b6040519062461bcd60e51b8252602060048301528181519182602483015260005b8381106104975750508160006044809484010152601f80199101168101030190fd5b6020828201810151604487840101528593500161047556fe608080604052600436101561023c575b50346101ee576040517f70a0823100000000000000000000000000000000000000000000000000000000815230600482015260208160248173ffffffffffffffffffffffffffffffffffffffff7f0000000000000000000000000000000000000000000000000000000000000000165afa908115610230576000916101fb575b507f00000000000000000000000000000000000000000000000000000000000000008110156100ba57005b6040517f6e553f65000000000000000000000000000000000000000000000000000000008152600481018290527f000000000000000000000000000000000000000000000000000000000000000073ffffffffffffffffffffffffffffffffffffffff8116602483015260208280604481010381600073ffffffffffffffffffffffffffffffffffffffff7f0000000000000000000000000000000000000000000000000000000000000000165af1600092816101c2575b5061017957005b73ffffffffffffffffffffffffffffffffffffffff6040917f89f2bf211df552a9cddc4f4fb8f63b5d5cd8bfdd5a74eebaf4e2cd143dcaf27393835195865260208601521692a2005b9092506020813d6020116101f3575b816101de60209383610dd4565b810103126101ee57519138610172565b600080fd5b3d91506101d1565b906020823d602011610228575b8161021560209383610dd4565b810103126102255750513861008f565b80fd5b3d9150610208565b6040513d6000823e3d90fd5b60003560e01c90816312065fe014610d0f5750806338af3eed14610cbe578063645006ca14610c8357806375d20a3b146109d957806381d65613146108ee578063b6b55f2514610690578063db2e21bc1461034e578063fbfa77cf146102fd5763fc0c546a146102ac573861000f565b346101ee5760006003193601126101ee57602060405173ffffffffffffffffffffffffffffffffffffffff7f0000000000000000000000000000000000000000000000000000000000000000168152f35b346101ee5760006003193601126101ee57602060405173ffffffffffffffffffffffffffffffffffffffff7f0000000000000000000000000000000000000000000000000000000000000000168152f35b346101ee5760006003193601126101ee5773ffffffffffffffffffffffffffffffffffffffff7f0000000000000000000000000000000000000000000000000000000000000000168033036106325773ffffffffffffffffffffffffffffffffffffffff7f0000000000000000000000000000000000000000000000000000000000000000166040517f70a08231000000000000000000000000000000000000000000000000000000008152306004820152602081602481855afa90811561023057600091610600575b508061042057005b6040519060208201937fa9059cbb0000000000000000000000000000000000000000000000000000000085526024830152604482015260448152610465606482610dd4565b6000806040948551936104788786610dd4565b602085527f5361666545524332303a206c6f772d6c6576656c2063616c6c206661696c65646020860152519082865af13d156105f3573d9067ffffffffffffffff82116105c4576105089360207fffffffffffffffffffffffffffffffffffffffffffffffffffffffffffffffe0601f85011601926104f987519485610dd4565b83523d6000602085013e610f21565b80519081159182156105a1575b50501561051e57005b608490517f08c379a000000000000000000000000000000000000000000000000000000000815260206004820152602a60248201527f5361666545524332303a204552433230206f7065726174696f6e20646964206e60448201527f6f742073756363656564000000000000000000000000000000000000000000006064820152fd5b81925090602091810103126101ee576020015180151581036101ee578280610515565b7f4e487b7100000000000000000000000000000000000000000000000000000000600052604160045260246000fd5b9161050892606091610f21565b906020823d60201161062a575b8161061a60209383610dd4565b8101031261022557505183610418565b3d915061060d565b60646040517f08c379a000000000000000000000000000000000000000000000000000000000815260206004820152601060248201527f4f6e6c792062656e6566696369617279000000000000000000000000000000006044820152fd5b346101ee5760206003193601126101ee57600435801561088f576040517f70a0823100000000000000000000000000000000000000000000000000000000815230600482015260208160248173ffffffffffffffffffffffffffffffffffffffff7f0000000000000000000000000000000000000000000000000000000000000000165afa80156102305782916000916108b9575b501061088f576040517f6e553f65000000000000000000000000000000000000000000000000000000008152600481018290527f000000000000000000000000000000000000000000000000000000000000000073ffffffffffffffffffffffffffffffffffffffff8116602483015260208280604481010381600073ffffffffffffffffffffffffffffffffffffffff7f0000000000000000000000000000000000000000000000000000000000000000165af16000928161085b575b506101795750506001906107f5610e15565b6308c379a014610807575b5061023057005b61080f610e33565b8061081b575b50610800565b7f950447bef0da5552da9fc607508f893a887e273fb3f1da020bd3214041f4589291925060009261085160405192839283610f0a565b0390a18180610815565b9092506020813d602011610887575b8161087760209383610dd4565b810103126101ee575191846107e3565b3d915061086a565b7f5945ea560000000000000000000000000000000000000000000000000000000060005260046000fd5b9150506020813d6020116108e6575b816108d560209383610dd4565b810103126101ee5781905183610725565b3d91506108c8565b346101ee5760006003193601126101ee576040517f70a0823100000000000000000000000000000000000000000000000000000000815230600482015260208160248173ffffffffffffffffffffffffffffffffffffffff7f0000000000000000000000000000000000000000000000000000000000000000165afa8015610230576000906109a6575b602090604051907f000000000000000000000000000000000000000000000000000000000000000011158152f35b506020813d6020116109d1575b816109c060209383610dd4565b810103126101ee5760209051610978565b3d91506109b3565b346101ee5760006003193601126101ee576040517f70a0823100000000000000000000000000000000000000000000000000000000815230600482015260208160248173ffffffffffffffffffffffffffffffffffffffff7f0000000000000000000000000000000000000000000000000000000000000000165afa90811561023057600091610c51575b507f0000000000000000000000000000000000000000000000000000000000000000811015610a8f57005b6040517f6e553f65000000000000000000000000000000000000000000000000000000008152600481018290527f000000000000000000000000000000000000000000000000000000000000000073ffffffffffffffffffffffffffffffffffffffff8116602483015260208280604481010381600073ffffffffffffffffffffffffffffffffffffffff7f0000000000000000000000000000000000000000000000000000000000000000165af160009281610c1d575b506101795750506001610b58610e15565b6308c379a014610bca575b610b6957005b60807f950447bef0da5552da9fc607508f893a887e273fb3f1da020bd3214041f458929160405190815260406020820152600d60408201527f556e6b6e6f776e206572726f72000000000000000000000000000000000000006060820152a1005b610bd2610e33565b80610bde575b50610b63565b90507f950447bef0da5552da9fc607508f893a887e273fb3f1da020bd3214041f45892610c146000926040519182918683610f0a565b0390a182610bd8565b9092506020813d602011610c49575b81610c3960209383610dd4565b810103126101ee57519184610b47565b3d9150610c2c565b906020823d602011610c7b575b81610c6b60209383610dd4565b8101031261022557505181610a64565b3d9150610c5e565b346101ee5760006003193601126101ee5760206040517f00000000000000000000000000000000000000000000000000000000000000008152f35b346101ee5760006003193601126101ee57602060405173ffffffffffffffffffffffffffffffffffffffff7f0000000000000000000000000000000000000000000000000000000000000000168152f35b346101ee5760006003193601126101ee577f70a0823100000000000000000000000000000000000000000000000000000000815230600482015260208160248173ffffffffffffffffffffffffffffffffffffffff7f0000000000000000000000000000000000000000000000000000000000000000165afa801561023057600090610da1575b602090604051908152f35b506020813d602011610dcc575b81610dbb60209383610dd4565b810103126101ee5760209051610d96565b3d9150610dae565b90601f7fffffffffffffffffffffffffffffffffffffffffffffffffffffffffffffffe0910116810190811067ffffffffffffffff8211176105c457604052565b60009060033d11610e2257565b905060046000803e60005160e01c90565b600060443d10610e9a576040516003193d016004823e8051913d602484011167ffffffffffffffff841117610ea5578282019283519167ffffffffffffffff8311610e9d576003193d85010160208487010111610e9d5750610e9a92910160200190610dd4565b90565b949350505050565b92915050565b919082519283825260005b848110610ef55750507fffffffffffffffffffffffffffffffffffffffffffffffffffffffffffffffe0601f8460006020809697860101520116010190565b80602080928401015182828601015201610eb6565b604090610e9a939281528160208201520190610eab565b91929015610f9c5750815115610f35575090565b3b15610f3e5790565b60646040517f08c379a000000000000000000000000000000000000000000000000000000000815260206004820152601d60248201527f416464726573733a2063616c6c20746f206e6f6e2d636f6e74726163740000006044820152fd5b825190915015610faf5750805190602001fd5b610fed906040519182917f08c379a0000000000000000000000000000000000000000000000000000000008352602060048401526024830190610eab565b0390fdfea2646970667358221220ced6bc7e4ef96379430b55e3bbbde9dbae9f566c0e889cbb5615716dd8cf8cfb64736f6c634300081c0033",
  "linkReferences": {},
  "deployedLinkReferences": {}
}