{
  "_format": "hh-sol-artifact-1",
  "contractName": "UnichainDeployment",
  "sourceName": "contracts/deployment/UnichainDeployment.sol",
  "abi": [
    {
      "inputs": [
        {
          "internalType": "string",
          "name": "step",
          "type": "string"
        }
      ],
      "name": "DeploymentFailed",
      "type": "error"
    },
    {
      "inputs": [],
      "name": "InvalidParameters",
      "type": "error"
    },
    {
      "anonymous": false,
      "inputs": [
        {
          "indexed": false,
          "internalType": "string",
          "name": "name",
          "type": "string"
        },
        {
          "indexed": false,
          "internalType": "address",
          "name": "contractAddress",
          "type": "address"
        }
      ],
      "name": "ContractDeployed",
      "type": "event"
    },
    {
      "anonymous": false,
      "inputs": [
        {
          "indexed": true,
          "internalType": "address",
          "name": "deployer",
          "type": "address"
        },
        {
          "indexed": false,
          "internalType": "address",
          "name": "vaultFactory",
          "type": "address"
        },
        {
          "indexed": false,
          "internalType": "address",
          "name": "strategyFactory",
          "type": "address"
        },
        {
          "indexed": false,
          "internalType": "address",
          "name": "usdcVault",
          "type": "address"
        },
        {
          "indexed": false,
          "internalType": "address",
          "name": "wethVault",
          "type": "address"
        },
        {
          "indexed": false,
          "internalType": "address",
          "name": "strategy",
          "type": "address"
        }
      ],
      "name": "SystemDeployed",
      "type": "event"
    },
    {
      "inputs": [],
      "name": "EULER_SWAP_FACTORY",
      "outputs": [
        {
          "internalType": "address",
          "name": "",
          "type": "address"
        }
      ],
      "stateMutability": "view",
      "type": "function"
    },
    {
      "inputs": [],
      "name": "EVAULT_FACTORY",
      "outputs": [
        {
          "internalType": "address",
          "name": "",
          "type": "address"
        }
      ],
      "stateMutability": "view",
      "type": "function"
    },
    {
      "inputs": [],
      "name": "EVC",
      "outputs": [
        {
          "internalType": "address",
          "name": "",
          "type": "address"
        }
      ],
      "stateMutability": "view",
      "type": "function"
    },
    {
      "inputs": [],
      "name": "PROTOCOL_CONFIG",
      "outputs": [
        {
          "internalType": "address",
          "name": "",
          "type": "address"
        }
      ],
      "stateMutability": "view",
      "type": "function"
    },
    {
      "inputs": [
        {
          "internalType": "address",
          "name": "treasury",
          "type": "address"
        },
        {
          "internalType": "address",
          "name": "manager",
          "type": "address"
        },
        {
          "internalType": "address",
          "name": "agent",
          "type": "address"
        },
        {
          "internalType": "address",
          "name": "eVaultUSDC",
          "type": "address"
        },
        {
          "internalType": "address",
          "name": "eVaultWETH",
          "type": "address"
        }
      ],
      "name": "deploySystem",
      "outputs": [
        {
          "components": [
            {
              "internalType": "address",
              "name": "vaultFactory",
              "type": "address"
            },
            {
              "internalType": "address",
              "name": "strategyFactory",
              "type": "address"
            },
            {
              "internalType": "address",
              "name": "mockUSDC",
              "type": "address"
            },
            {
              "internalType": "address",
              "name": "mockWETH",
              "type": "address"
            },
            {
              "internalType": "address",
              "name": "usdcVault",
              "type": "address"
            },
            {
              "internalType": "address",
              "name": "wethVault",
              "type": "address"
            },
            {
              "internalType": "address",
              "name": "usdcWethStrategy",
              "type": "address"
            },
            {
              "internalType": "address",
              "name": "autoDepositProxyUSDC",
              "type": "address"
            },
            {
              "internalType": "address",
              "name": "autoDepositProxyWETH",
              "type": "address"
            },
            {
              "internalType": "uint256",
              "name": "usdcVaultId",
              "type": "uint256"
            },
            {
              "internalType": "uint256",
              "name": "wethVaultId",
              "type": "uint256"
            },
            {
              "internalType": "uint256",
              "name": "strategyId",
              "type": "uint256"
            },
            {
              "components": [
                {
                  "internalType": "address",
                  "name": "deployer",
                  "type": "address"
                },
                {
                  "internalType": "uint256",
                  "name": "deploymentTime",
                  "type": "uint256"
                },
                {
                  "internalType": "uint256",
                  "name": "blockNumber",
                  "type": "uint256"
                },
                {
                  "internalType": "string",
                  "name": "network",
                  "type": "string"
                },
                {
                  "internalType": "address",
                  "name": "treasury",
                  "type": "address"
                },
                {
                  "internalType": "address",
                  "name": "defaultManager",
                  "type": "address"
                },
                {
                  "internalType": "address",
                  "name": "defaultAgent",
                  "type": "address"
                }
              ],
              "internalType": "struct UnichainDeployment.DeploymentInfo",
              "name": "info",
              "type": "tuple"
            }
          ],
          "internalType": "struct UnichainDeployment.DeploymentResult",
          "name": "result",
          "type": "tuple"
        }
      ],
      "stateMutability": "payable",
      "type": "function"
    }
  ],
  "bytecode": "0x6080806040523460155761e223908161001b8239f35b600080fdfe6080604052600436101561001257600080fd5b6000803560e01c80630c76fa7c14610112578063a4a06807146100e3578063a70354a1146100b4578063b72ee162146100855763f4c5c3131461005457600080fd5b3461008257806003193601126100825760206040517345b146bc07c9985589b52df651310e75c6be066a8152f35b80fd5b5034610082578060031936011261008257602060405173bad8b5bdfb2bcbcd78cc9f1573d3aad6e865e7528152f35b50346100825780600319360112610082576020604051732a1176964f5d7cae5406b627bf6166664fe83c608152f35b5034610082578060031936011261008257602060405173dcd02e4ea8cd273498d315ad8c047305f84806568152f35b5060a0600319360112610082576004359073ffffffffffffffffffffffffffffffffffffffff82168203610082576024359173ffffffffffffffffffffffffffffffffffffffff831683036112725760443573ffffffffffffffffffffffffffffffffffffffff8116810361126e576064359173ffffffffffffffffffffffffffffffffffffffff8316830361126a576084359073ffffffffffffffffffffffffffffffffffffffff82168203611266576102206040819052608086905260a086905260c086905260e08690526101008690526101208690526101408690526101608690526101808690526101a08690526101c08690526101e086905261021881611276565b8581528560208201528560408201526060808201528560808201528560a08201528560c08201526101806080015273ffffffffffffffffffffffffffffffffffffffff8116158015611248575b801561122a575b6111e45773ffffffffffffffffffffffffffffffffffffffff841615801561120c575b6111e45760405161029f81611276565b33815242602082015243604082015260405180604081011067ffffffffffffffff6040830111176111b75760408101604052601081527f556e69636861696e204d61696e6e6574000000000000000000000000000000006020820152606082015273ffffffffffffffffffffffffffffffffffffffff8216608082015273ffffffffffffffffffffffffffffffffffffffff871660a082015273ffffffffffffffffffffffffffffffffffffffff841660c0820152610180608001526040518061153f81011067ffffffffffffffff61153f8301111761118a5761153f61133c82398061153f8101039086f080156111525773ffffffffffffffffffffffffffffffffffffffff167f4da8c8e82a6cdcd021dddec73a637b429d2b0a9b303638f1258ff8a35c3e5d86608060405160408152600860408201527f4d6f636b555344430000000000000000000000000000000000000000000000006060820152836020820152a160c05260405167ffffffffffffffff61162e82019081119082111761118a5761162e61287b82398061162e8101039086f080156111525773ffffffffffffffffffffffffffffffffffffffff167f4da8c8e82a6cdcd021dddec73a637b429d2b0a9b303638f1258ff8a35c3e5d86608060405160408152600860408201527f4d6f636b574554480000000000000000000000000000000000000000000000006060820152836020820152a160e0526040519067ffffffffffffffff614e2083019081119083111761118a5773ffffffffffffffffffffffffffffffffffffffff90614e20613ea98439878216614e2084019081528583166020820152911660408201528190036060019085f0801561111d5773ffffffffffffffffffffffffffffffffffffffff167f4da8c8e82a6cdcd021dddec73a637b429d2b0a9b303638f1258ff8a35c3e5d86608060405160408152601060408201527f5661756c74466163746f7279536c696d000000000000000000000000000000006060820152836020820152a1608052604051948561404e81011067ffffffffffffffff61404e8801111761115d57849561404e618cc982398061404e8101039086f080156111525773ffffffffffffffffffffffffffffffffffffffff167f4da8c8e82a6cdcd021dddec73a637b429d2b0a9b303638f1258ff8a35c3e5d86608060405160408152600f60408201527f5374726174656779466163746f727900000000000000000000000000000000006060820152836020820152a160206080015273ffffffffffffffffffffffffffffffffffffffff6080511692604073ffffffffffffffffffffffffffffffffffffffff81608001511681519586917f4f54f0d2000000000000000000000000000000000000000000000000000000008352600483015260a060248301528189846106e760a48401604090600a81527f55534443205661756c740000000000000000000000000000000000000000000060208201520190565b7f76555344430000000000000000000000000000000000000000000000000000006020858303926003198401604488015260058152015273ffffffffffffffffffffffffffffffffffffffff8916606485015273ffffffffffffffffffffffffffffffffffffffff8816608485015201925af19182156111475773ffffffffffffffffffffffffffffffffffffffff9460409388918991611128575b507f4da8c8e82a6cdcd021dddec73a637b429d2b0a9b303638f1258ff8a35c3e5d86855186815280896107e3898301604090600a81527f55534443205661756c740000000000000000000000000000000000000000000060208201520190565b9516948560208301520390a16101a0526101005260805160e05184517f4f54f0d2000000000000000000000000000000000000000000000000000000008152908716600482015260a06024820152600a60a48201527f57455448205661756c740000000000000000000000000000000000000000000060c48201529586939181169284928a928792918160e48701937f7657455448000000000000000000000000000000000000000000000000000000602089870396600319880160448c015260058152015216606487015216608485015201925af191821561111d57604092859186916110fe575b507f4da8c8e82a6cdcd021dddec73a637b429d2b0a9b303638f1258ff8a35c3e5d8684518581528073ffffffffffffffffffffffffffffffffffffffff610940888301604090600a81527f57455448205661756c740000000000000000000000000000000000000000000060208201520190565b9516948560208301520390a16101c0526101205260a05161010051608084015160e05185517f3f668bff00000000000000000000000000000000000000000000000000000000815273ffffffffffffffffffffffffffffffffffffffff938416600482015291831660248301528216604482015294811660648601529182166084850152839160a49183918791165af1801561105157829183916110cd575b507f4da8c8e82a6cdcd021dddec73a637b429d2b0a9b303638f1258ff8a35c3e5d86608073ffffffffffffffffffffffffffffffffffffffff6040519460408652601260408701527f45756c657253776170205374726174656779000000000000000000000000000060608701521693846020820152a16101e0526101408190526101005173ffffffffffffffffffffffffffffffffffffffff1690813b1561107f5782916024839260405195869384927f223e547900000000000000000000000000000000000000000000000000000000845260048401525af18015611083576110bd575b50506101005160c0516040519173ffffffffffffffffffffffffffffffffffffffff918216911667ffffffffffffffff6114d7840190811190841117611090576114d761cd1784396114d7830190815260208101919091523360408201526305f5e10060608201528190036080019082f080156110835773ffffffffffffffffffffffffffffffffffffffff167f4da8c8e82a6cdcd021dddec73a637b429d2b0a9b303638f1258ff8a35c3e5d86608060405160408152601060408201527f4175746f4465706f73697450726f7879000000000000000000000000000000006060820152836020820152a1610160526101205160e0516040519173ffffffffffffffffffffffffffffffffffffffff918216911667ffffffffffffffff6114d7840190811190841117611090576114d761cd1784396114d783019081526020810191909152336040820152662386f26fc1000060608201528190036080019082f080156110835773ffffffffffffffffffffffffffffffffffffffff167f4da8c8e82a6cdcd021dddec73a637b429d2b0a9b303638f1258ff8a35c3e5d86608060405160408152601060408201527f4175746f4465706f73697450726f7879000000000000000000000000000000006060820152836020820152a16101805260c05160e051829173ffffffffffffffffffffffffffffffffffffffff9182169116803b1561107f578280916044604051809481937f40c10f1900000000000000000000000000000000000000000000000000000000835233600484015264174876e80060248401525af190811561107457839161105f575b5050803b1561105c578180916044604051809481937f40c10f190000000000000000000000000000000000000000000000000000000083523360048401526802b5e3af16b188000060248401525af180156110515761103c575b50506080805160a080516101005161012051610140516040805173ffffffffffffffffffffffffffffffffffffffff978816815294871660208601529286169284019290925284166060830152929092169282019290925233917f8e9f7c3ef913cbc2048c0a0e7d5b88c4cfed1f3a94397ccbd1517d529325988a91a2604051906020825273ffffffffffffffffffffffffffffffffffffffff60805116602083015273ffffffffffffffffffffffffffffffffffffffff60206080015116604083015273ffffffffffffffffffffffffffffffffffffffff60406080015116606083015273ffffffffffffffffffffffffffffffffffffffff60606080015116608083015273ffffffffffffffffffffffffffffffffffffffff60808001511660a083015273ffffffffffffffffffffffffffffffffffffffff60a0608001511660c083015273ffffffffffffffffffffffffffffffffffffffff60c0608001511660e083015273ffffffffffffffffffffffffffffffffffffffff60e0608001511661010083015273ffffffffffffffffffffffffffffffffffffffff610100608001511661012083015261012060800151610140830152610140608001516101608301526101606080015161018083015281610180608001516101a08083015273ffffffffffffffffffffffffffffffffffffffff8151166101c083015260208101516101e0830152604081015161020083015260608101519260e0610220840152835193846102a0850152815b8581106110235750508373ffffffffffffffffffffffffffffffffffffffff60c07fffffffffffffffffffffffffffffffffffffffffffffffffffffffffffffffe094601f946102c0809989010152826080820151166102408801528260a08201511661026088015201511661028085015201168101030190f35b60208282018101516102c0898401015287955001610fa8565b81611046916112c1565b610082578038610d77565b6040513d84823e3d90fd5b50fd5b81611069916112c1565b61105c578138610d1d565b6040513d85823e3d90fd5b5050fd5b50604051903d90823e3d90fd5b6024847f4e487b710000000000000000000000000000000000000000000000000000000081526041600452fd5b6110c6916112c1565b3881610ac5565b90506110f1915060403d6040116110f7575b6110e981836112c1565b810190611302565b386109df565b503d6110df565b90506111179150833d85116110f7576110e981836112c1565b386108cc565b6040513d86823e3d90fd5b90506111419150843d86116110f7576110e981836112c1565b38610783565b6040513d88823e3d90fd5b6040513d87823e3d90fd5b6024857f4e487b710000000000000000000000000000000000000000000000000000000081526041600452fd5b6024867f4e487b710000000000000000000000000000000000000000000000000000000081526041600452fd5b6024877f4e487b710000000000000000000000000000000000000000000000000000000081526041600452fd5b6004857fe5239090000000000000000000000000000000000000000000000000000000008152fd5b5073ffffffffffffffffffffffffffffffffffffffff82161561028f565b5073ffffffffffffffffffffffffffffffffffffffff83161561026c565b5073ffffffffffffffffffffffffffffffffffffffff861615610265565b8480fd5b8380fd5b8280fd5b5080fd5b60e0810190811067ffffffffffffffff82111761129257604052565b7f4e487b7100000000000000000000000000000000000000000000000000000000600052604160045260246000fd5b90601f7fffffffffffffffffffffffffffffffffffffffffffffffffffffffffffffffe0910116810190811067ffffffffffffffff82111761129257604052565b919082604091031261133657815173ffffffffffffffffffffffffffffffffffffffff811681036113365760209092015190565b600080fdfe60806040523461040057604080519081016001600160401b0381118282101761030b57604090815260088252672aa9a21021b7b4b760c11b602083015280519081016001600160401b0381118282101761030b5760405260048152635553444360e01b602082015281516001600160401b03811161030b57600354600181811c911680156103f6575b60208210146102eb57601f8111610391575b50602092601f821160011461032c5792819293600092610321575b50508160011b916000199060031b1c1916176003555b80516001600160401b03811161030b57600454600181811c91168015610301575b60208210146102eb57601f8111610286575b50602091601f821160011461022257918192600092610217575b50508160011b916000199060031b1c1916176004555b61013733610405565b61014033610405565b33156101d25760025466038d7ea4c6800081018091116101bc57600255336000526000602052604060002066038d7ea4c68000815401905560405166038d7ea4c68000815260007fddf252ad1be2c89b69c2b068fc378daa952ba7f163c4a11628f55a4df523b3ef60203393a36040516110f0908161044f8239f35b634e487b7160e01b600052601160045260246000fd5b60405162461bcd60e51b815260206004820152601f60248201527f45524332303a206d696e7420746f20746865207a65726f2061646472657373006044820152606490fd5b015190503880610118565b601f198216926004600052806000209160005b85811061026e57508360019510610255575b505050811b0160045561012e565b015160001960f88460031b161c19169055388080610247565b91926020600181928685015181550194019201610235565b60046000527f8a35acfbc15ff81a39ae7d344fd709f28e8600b4aa8c65c6b64bfe7fe36bd19b601f830160051c810191602084106102e1575b601f0160051c01905b8181106102d557506100fe565b600081556001016102c8565b90915081906102bf565b634e487b7160e01b600052602260045260246000fd5b90607f16906100ec565b634e487b7160e01b600052604160045260246000fd5b0151905038806100b5565b601f198216936003600052806000209160005b8681106103795750836001959610610360575b505050811b016003556100cb565b015160001960f88460031b161c19169055388080610352565b9192602060018192868501518155019401920161033f565b60036000527fc2575a0e9e593c00f959f8c92f12db2869c3395a3b0502d05e2516446f71f85b601f830160051c810191602084106103ec575b601f0160051c01905b8181106103e0575061009a565b600081556001016103d3565b90915081906103ca565b90607f1690610088565b600080fd5b600580546001600160a01b039283166001600160a01b0319821681179092559091167f8be0079c531659141344cd1fd0a4f28419497f9722a3daafe3b4186f6b6457e0600080a356fe608080604052600436101561001357600080fd5b60003560e01c90816306fdde0314610af957508063095ea7b314610ad357806318160ddd14610ab557806323b872dd146109b6578063313ce5671461099a578063395093511461093a57806340c10f191461090d57806342966c68146107c1578063579158971461072e57806370a08231146106e7578063715018a6146106675780638da5cb5b1461063357806395d89b41146104b0578063a457c2d7146103e4578063a9059cbb146103b3578063d53885221461026b578063dd62ed3e146101f95763f2fde38b146100e557600080fd5b346101f45760206003193601126101f45773ffffffffffffffffffffffffffffffffffffffff610113610c20565b61011b610fa6565b16801561018a5773ffffffffffffffffffffffffffffffffffffffff600554827fffffffffffffffffffffffff0000000000000000000000000000000000000000821617600555167f8be0079c531659141344cd1fd0a4f28419497f9722a3daafe3b4186f6b6457e0600080a3005b608460405162461bcd60e51b815260206004820152602660248201527f4f776e61626c653a206e6577206f776e657220697320746865207a65726f206160448201527f64647265737300000000000000000000000000000000000000000000000000006064820152fd5b600080fd5b346101f45760406003193601126101f457610212610c20565b73ffffffffffffffffffffffffffffffffffffffff61022f610c43565b9116600052600160205273ffffffffffffffffffffffffffffffffffffffff604060002091166000526020526020604060002054604051908152f35b346101f45760406003193601126101f45760043567ffffffffffffffff81116101f457366023820112156101f457806004013567ffffffffffffffff81116101f4573660248260051b840101116101f457602435916402540be400831161031a5760005b8281101561031857600060248260051b840101359073ffffffffffffffffffffffffffffffffffffffff8216820361031557509061030f8560019361100b565b016102cf565b80fd5b005b608460405162461bcd60e51b815260206004820152602760248201527f4d6f636b555344433a204d61782031302c30303020555344432070657220726560448201527f63697069656e74000000000000000000000000000000000000000000000000006064820152fd5b7f4e487b7100000000000000000000000000000000000000000000000000000000600052601160045260246000fd5b346101f45760406003193601126101f4576103d96103cf610c20565b6024359033610dc7565b602060405160018152f35b346101f45760406003193601126101f4576103fd610c20565b60243590336000526001602052604060002073ffffffffffffffffffffffffffffffffffffffff821660005260205260406000205491808310610446576103d992039033610c73565b608460405162461bcd60e51b815260206004820152602560248201527f45524332303a2064656372656173656420616c6c6f77616e63652062656c6f7760448201527f207a65726f0000000000000000000000000000000000000000000000000000006064820152fd5b346101f45760006003193601126101f457604051600090600454918260011c60018416938415610629575b6020821085146105fc57839482855290816000146105ba575060011461055d575b5003601f01601f191681019067ffffffffffffffff82118183101761052e5761052a82918260405282610bd6565b0390f35b7f4e487b7100000000000000000000000000000000000000000000000000000000600052604160045260246000fd5b6004600090815291507f8a35acfbc15ff81a39ae7d344fd709f28e8600b4aa8c65c6b64bfe7fe36bd19b5b81831061059e5750508101602001601f196104fc565b6020919350806001915483858801015201910190918392610588565b7fffffffffffffffffffffffffffffffffffffffffffffffffffffffffffffff001660208581019190915291151560051b84019091019150601f1990506104fc565b6024837f4e487b710000000000000000000000000000000000000000000000000000000081526022600452fd5b90607f16906104db565b346101f45760006003193601126101f457602073ffffffffffffffffffffffffffffffffffffffff60055416604051908152f35b346101f45760006003193601126101f457610680610fa6565b600073ffffffffffffffffffffffffffffffffffffffff6005547fffffffffffffffffffffffff00000000000000000000000000000000000000008116600555167f8be0079c531659141344cd1fd0a4f28419497f9722a3daafe3b4186f6b6457e08280a3005b346101f45760206003193601126101f45773ffffffffffffffffffffffffffffffffffffffff610715610c20565b1660005260006020526020604060002054604051908152f35b346101f45760206003193601126101f4576004356402540be400811161075857610318903361100b565b608460405162461bcd60e51b8152602060048201526024808201527f4d6f636b555344433a204d61782031302c30303020555344432070657220666160448201527f75636574000000000000000000000000000000000000000000000000000000006064820152fd5b346101f45760206003193601126101f45760043533156108a3573360005260006020526040600020549080821061083957806000923384528360205203604083205580600254036002556040519081527fddf252ad1be2c89b69c2b068fc378daa952ba7f163c4a11628f55a4df523b3ef60203392a3005b608460405162461bcd60e51b815260206004820152602260248201527f45524332303a206275726e20616d6f756e7420657863656564732062616c616e60448201527f63650000000000000000000000000000000000000000000000000000000000006064820152fd5b608460405162461bcd60e51b815260206004820152602160248201527f45524332303a206275726e2066726f6d20746865207a65726f2061646472657360448201527f73000000000000000000000000000000000000000000000000000000000000006064820152fd5b346101f45760406003193601126101f457610318610929610c20565b610931610fa6565b6024359061100b565b346101f45760406003193601126101f4576103d9610956610c20565b336000526001602052604060002073ffffffffffffffffffffffffffffffffffffffff821660005260205261099360406000206024359054610c66565b9033610c73565b346101f45760006003193601126101f457602060405160068152f35b346101f45760606003193601126101f4576109cf610c20565b6109d7610c43565b6044359073ffffffffffffffffffffffffffffffffffffffff83166000526001602052604060002073ffffffffffffffffffffffffffffffffffffffff3316600052602052604060002054927fffffffffffffffffffffffffffffffffffffffffffffffffffffffffffffffff8403610a55575b6103d99350610dc7565b828410610a7157610a6c836103d995033383610c73565b610a4b565b606460405162461bcd60e51b815260206004820152601d60248201527f45524332303a20696e73756666696369656e7420616c6c6f77616e63650000006044820152fd5b346101f45760006003193601126101f4576020600254604051908152f35b346101f45760406003193601126101f4576103d9610aef610c20565b6024359033610c73565b346101f45760006003193601126101f457600090600354918260011c60018416938415610bcc575b6020821085146105fc57839482855290816000146105ba5750600114610b6f575003601f01601f191681019067ffffffffffffffff82118183101761052e5761052a82918260405282610bd6565b6003600090815291507fc2575a0e9e593c00f959f8c92f12db2869c3395a3b0502d05e2516446f71f85b5b818310610bb05750508101602001601f196104fc565b6020919350806001915483858801015201910190918392610b9a565b90607f1690610b21565b9190916020815282519283602083015260005b848110610c0a575050601f19601f8460006040809697860101520116010190565b8060208092840101516040828601015201610be9565b6004359073ffffffffffffffffffffffffffffffffffffffff821682036101f457565b6024359073ffffffffffffffffffffffffffffffffffffffff821682036101f457565b9190820180921161038457565b73ffffffffffffffffffffffffffffffffffffffff16908115610d5e5773ffffffffffffffffffffffffffffffffffffffff16918215610cf45760207f8c5be1e5ebec7d5bd14f71427d1e84f3dd0314c0f7b2291e5b200ac8c7c3b925918360005260018252604060002085600052825280604060002055604051908152a3565b608460405162461bcd60e51b815260206004820152602260248201527f45524332303a20617070726f766520746f20746865207a65726f20616464726560448201527f73730000000000000000000000000000000000000000000000000000000000006064820152fd5b608460405162461bcd60e51b8152602060048201526024808201527f45524332303a20617070726f76652066726f6d20746865207a65726f2061646460448201527f72657373000000000000000000000000000000000000000000000000000000006064820152fd5b73ffffffffffffffffffffffffffffffffffffffff16908115610f3c5773ffffffffffffffffffffffffffffffffffffffff16918215610ed257816000526000602052604060002054818110610e6857817fddf252ad1be2c89b69c2b068fc378daa952ba7f163c4a11628f55a4df523b3ef9260209285600052600084520360406000205584600052600082526040600020818154019055604051908152a3565b608460405162461bcd60e51b815260206004820152602660248201527f45524332303a207472616e7366657220616d6f756e742065786365656473206260448201527f616c616e636500000000000000000000000000000000000000000000000000006064820152fd5b608460405162461bcd60e51b815260206004820152602360248201527f45524332303a207472616e7366657220746f20746865207a65726f206164647260448201527f65737300000000000000000000000000000000000000000000000000000000006064820152fd5b608460405162461bcd60e51b815260206004820152602560248201527f45524332303a207472616e736665722066726f6d20746865207a65726f20616460448201527f64726573730000000000000000000000000000000000000000000000000000006064820152fd5b73ffffffffffffffffffffffffffffffffffffffff600554163303610fc757565b606460405162461bcd60e51b815260206004820152602060248201527f4f776e61626c653a2063616c6c6572206973206e6f7420746865206f776e65726044820152fd5b73ffffffffffffffffffffffffffffffffffffffff16908115611076577fddf252ad1be2c89b69c2b068fc378daa952ba7f163c4a11628f55a4df523b3ef60208261105a600094600254610c66565b60025584845283825260408420818154019055604051908152a3565b606460405162461bcd60e51b815260206004820152601f60248201527f45524332303a206d696e7420746f20746865207a65726f2061646472657373006044820152fdfea2646970667358221220c171004dd0518a4032cad5ea1de10766236a22b6780f9e6b518cb76cd695f7c464736f6c634300081c003360806040523461040e57604080519081016001600160401b03811182821017610319576040908152600d82526c2bb930b83832b21022ba3432b960991b602083015280519081016001600160401b038111828210176103195760405260048152630ae8aa8960e31b602082015281516001600160401b03811161031957600354600181811c91168015610404575b60208210146102f957601f811161039f575b50602092601f821160011461033a579281929360009261032f575b50508160011b916000199060031b1c1916176003555b80516001600160401b03811161031957600454600181811c9116801561030f575b60208210146102f957601f8111610294575b50602091601f821160011461023057918192600092610225575b50508160011b916000199060031b1c1916176004555b61013c33610413565b61014533610413565b33156101e05760025469152d02c7e14af680000081018091116101ca57600255336000526000602052604060002069152d02c7e14af6800000815401905560405169152d02c7e14af6800000815260007fddf252ad1be2c89b69c2b068fc378daa952ba7f163c4a11628f55a4df523b3ef60203393a36040516111d1908161045d8239f35b634e487b7160e01b600052601160045260246000fd5b60405162461bcd60e51b815260206004820152601f60248201527f45524332303a206d696e7420746f20746865207a65726f2061646472657373006044820152606490fd5b01519050388061011d565b601f198216926004600052806000209160005b85811061027c57508360019510610263575b505050811b01600455610133565b015160001960f88460031b161c19169055388080610255565b91926020600181928685015181550194019201610243565b60046000527f8a35acfbc15ff81a39ae7d344fd709f28e8600b4aa8c65c6b64bfe7fe36bd19b601f830160051c810191602084106102ef575b601f0160051c01905b8181106102e35750610103565b600081556001016102d6565b90915081906102cd565b634e487b7160e01b600052602260045260246000fd5b90607f16906100f1565b634e487b7160e01b600052604160045260246000fd5b0151905038806100ba565b601f198216936003600052806000209160005b868110610387575083600195961061036e575b505050811b016003556100d0565b015160001960f88460031b161c19169055388080610360565b9192602060018192868501518155019401920161034d565b60036000527fc2575a0e9e593c00f959f8c92f12db2869c3395a3b0502d05e2516446f71f85b601f830160051c810191602084106103fa575b601f0160051c01905b8181106103ee575061009f565b600081556001016103e1565b90915081906103d8565b90607f169061008d565b600080fd5b600580546001600160a01b039283166001600160a01b0319821681179092559091167f8be0079c531659141344cd1fd0a4f28419497f9722a3daafe3b4186f6b6457e0600080a356fe6080806040526004361015610027575b50361561001b57600080fd5b61002534336110ec565b005b60003560e01c90816306fdde0314610a8e57508063095ea7b314610a6857806318160ddd14610a4a57806323b872dd1461094b5780632e1a7d4d146108a7578063313ce5671461088b578063395093511461082b57806340c10f19146107fe57806342966c68146107e1578063579158971461077057806370a0823114610729578063715018a6146106a95780638da5cb5b1461067557806395d89b41146104f2578063a457c2d714610426578063a9059cbb146103f5578063d0e30db0146103df578063d538852214610296578063dd62ed3e146102245763f2fde38b14610110573861000f565b3461021f57602060031936011261021f5773ffffffffffffffffffffffffffffffffffffffff61013e610bb5565b610146611087565b1680156101b55773ffffffffffffffffffffffffffffffffffffffff600554827fffffffffffffffffffffffff0000000000000000000000000000000000000000821617600555167f8be0079c531659141344cd1fd0a4f28419497f9722a3daafe3b4186f6b6457e0600080a3005b608460405162461bcd60e51b815260206004820152602660248201527f4f776e61626c653a206e6577206f776e657220697320746865207a65726f206160448201527f64647265737300000000000000000000000000000000000000000000000000006064820152fd5b600080fd5b3461021f57604060031936011261021f5761023d610bb5565b73ffffffffffffffffffffffffffffffffffffffff61025a610bd8565b9116600052600160205273ffffffffffffffffffffffffffffffffffffffff604060002091166000526020526020604060002054604051908152f35b3461021f57604060031936011261021f5760043567ffffffffffffffff811161021f573660238201121561021f57806004013567ffffffffffffffff811161021f573660248260051b8401011161021f5760243591678ac7230489e8000083116103465760005b8281101561002557600060248260051b840101359073ffffffffffffffffffffffffffffffffffffffff8216820361034357509061033d856001936110ec565b016102fd565b80fd5b608460405162461bcd60e51b815260206004820152602360248201527f4d6f636b574554483a204d61782031302057455448207065722072656369706960448201527f656e7400000000000000000000000000000000000000000000000000000000006064820152fd5b7f4e487b7100000000000000000000000000000000000000000000000000000000600052601160045260246000fd5b600060031936011261021f5761002534336110ec565b3461021f57604060031936011261021f5761041b610411610bb5565b6024359033610d5c565b602060405160018152f35b3461021f57604060031936011261021f5761043f610bb5565b60243590336000526001602052604060002073ffffffffffffffffffffffffffffffffffffffff8216600052602052604060002054918083106104885761041b92039033610c08565b608460405162461bcd60e51b815260206004820152602560248201527f45524332303a2064656372656173656420616c6c6f77616e63652062656c6f7760448201527f207a65726f0000000000000000000000000000000000000000000000000000006064820152fd5b3461021f57600060031936011261021f57604051600090600454918260011c6001841693841561066b575b60208210851461063e57839482855290816000146105fc575060011461059f575b5003601f01601f191681019067ffffffffffffffff8211818310176105705761056c82918260405282610b6b565b0390f35b7f4e487b7100000000000000000000000000000000000000000000000000000000600052604160045260246000fd5b6004600090815291507f8a35acfbc15ff81a39ae7d344fd709f28e8600b4aa8c65c6b64bfe7fe36bd19b5b8183106105e05750508101602001601f1961053e565b60209193508060019154838588010152019101909183926105ca565b7fffffffffffffffffffffffffffffffffffffffffffffffffffffffffffffff001660208581019190915291151560051b84019091019150601f19905061053e565b6024837f4e487b710000000000000000000000000000000000000000000000000000000081526022600452fd5b90607f169061051d565b3461021f57600060031936011261021f57602073ffffffffffffffffffffffffffffffffffffffff60055416604051908152f35b3461021f57600060031936011261021f576106c2611087565b600073ffffffffffffffffffffffffffffffffffffffff6005547fffffffffffffffffffffffff00000000000000000000000000000000000000008116600555167f8be0079c531659141344cd1fd0a4f28419497f9722a3daafe3b4186f6b6457e08280a3005b3461021f57602060031936011261021f5773ffffffffffffffffffffffffffffffffffffffff610757610bb5565b1660005260006020526020604060002054604051908152f35b3461021f57602060031936011261021f57600435678ac7230489e80000811161079d5761002590336110ec565b606460405162461bcd60e51b815260206004820152602060248201527f4d6f636b574554483a204d6178203130205745544820706572206661756365746044820152fd5b3461021f57602060031936011261021f5761002560043533610f3b565b3461021f57604060031936011261021f5761002561081a610bb5565b610822611087565b602435906110ec565b3461021f57604060031936011261021f5761041b610847610bb5565b336000526001602052604060002073ffffffffffffffffffffffffffffffffffffffff821660005260205261088460406000206024359054610bfb565b9033610c08565b3461021f57600060031936011261021f57602060405160128152f35b3461021f57602060031936011261021f5760043533600052600060205280604060002054106109075760008080836108e0829533610f3b565b8181156108fe575b3390f1156108f257005b6040513d6000823e3d90fd5b506108fc6108e8565b606460405162461bcd60e51b815260206004820152601e60248201527f4d6f636b574554483a20496e73756666696369656e742062616c616e636500006044820152fd5b3461021f57606060031936011261021f57610964610bb5565b61096c610bd8565b6044359073ffffffffffffffffffffffffffffffffffffffff83166000526001602052604060002073ffffffffffffffffffffffffffffffffffffffff3316600052602052604060002054927fffffffffffffffffffffffffffffffffffffffffffffffffffffffffffffffff84036109ea575b61041b9350610d5c565b828410610a0657610a018361041b95033383610c08565b6109e0565b606460405162461bcd60e51b815260206004820152601d60248201527f45524332303a20696e73756666696369656e7420616c6c6f77616e63650000006044820152fd5b3461021f57600060031936011261021f576020600254604051908152f35b3461021f57604060031936011261021f5761041b610a84610bb5565b6024359033610c08565b3461021f57600060031936011261021f57600090600354918260011c60018416938415610b61575b60208210851461063e57839482855290816000146105fc5750600114610b04575003601f01601f191681019067ffffffffffffffff8211818310176105705761056c82918260405282610b6b565b6003600090815291507fc2575a0e9e593c00f959f8c92f12db2869c3395a3b0502d05e2516446f71f85b5b818310610b455750508101602001601f1961053e565b6020919350806001915483858801015201910190918392610b2f565b90607f1690610ab6565b9190916020815282519283602083015260005b848110610b9f575050601f19601f8460006040809697860101520116010190565b8060208092840101516040828601015201610b7e565b6004359073ffffffffffffffffffffffffffffffffffffffff8216820361021f57565b6024359073ffffffffffffffffffffffffffffffffffffffff8216820361021f57565b919082018092116103b057565b73ffffffffffffffffffffffffffffffffffffffff16908115610cf35773ffffffffffffffffffffffffffffffffffffffff16918215610c895760207f8c5be1e5ebec7d5bd14f71427d1e84f3dd0314c0f7b2291e5b200ac8c7c3b925918360005260018252604060002085600052825280604060002055604051908152a3565b608460405162461bcd60e51b815260206004820152602260248201527f45524332303a20617070726f766520746f20746865207a65726f20616464726560448201527f73730000000000000000000000000000000000000000000000000000000000006064820152fd5b608460405162461bcd60e51b8152602060048201526024808201527f45524332303a20617070726f76652066726f6d20746865207a65726f2061646460448201527f72657373000000000000000000000000000000000000000000000000000000006064820152fd5b73ffffffffffffffffffffffffffffffffffffffff16908115610ed15773ffffffffffffffffffffffffffffffffffffffff16918215610e6757816000526000602052604060002054818110610dfd57817fddf252ad1be2c89b69c2b068fc378daa952ba7f163c4a11628f55a4df523b3ef9260209285600052600084520360406000205584600052600082526040600020818154019055604051908152a3565b608460405162461bcd60e51b815260206004820152602660248201527f45524332303a207472616e7366657220616d6f756e742065786365656473206260448201527f616c616e636500000000000000000000000000000000000000000000000000006064820152fd5b608460405162461bcd60e51b815260206004820152602360248201527f45524332303a207472616e7366657220746f20746865207a65726f206164647260448201527f65737300000000000000000000000000000000000000000000000000000000006064820152fd5b608460405162461bcd60e51b815260206004820152602560248201527f45524332303a207472616e736665722066726f6d20746865207a65726f20616460448201527f64726573730000000000000000000000000000000000000000000000000000006064820152fd5b73ffffffffffffffffffffffffffffffffffffffff16801561101d5780600052600060205260406000205491808310610fb3576020817fddf252ad1be2c89b69c2b068fc378daa952ba7f163c4a11628f55a4df523b3ef926000958587528684520360408620558060025403600255604051908152a3565b608460405162461bcd60e51b815260206004820152602260248201527f45524332303a206275726e20616d6f756e7420657863656564732062616c616e60448201527f63650000000000000000000000000000000000000000000000000000000000006064820152fd5b608460405162461bcd60e51b815260206004820152602160248201527f45524332303a206275726e2066726f6d20746865207a65726f2061646472657360448201527f73000000000000000000000000000000000000000000000000000000000000006064820152fd5b73ffffffffffffffffffffffffffffffffffffffff6005541633036110a857565b606460405162461bcd60e51b815260206004820152602060248201527f4f776e61626c653a2063616c6c6572206973206e6f7420746865206f776e65726044820152fd5b73ffffffffffffffffffffffffffffffffffffffff16908115611157577fddf252ad1be2c89b69c2b068fc378daa952ba7f163c4a11628f55a4df523b3ef60208261113b600094600254610bfb565b60025584845283825260408420818154019055604051908152a3565b606460405162461bcd60e51b815260206004820152601f60248201527f45524332303a206d696e7420746f20746865207a65726f2061646472657373006044820152fdfea26469706673582212202276f2ffd35bcd5d9c8b82c58b8ffffdae5f06494c200ac15d7f10926a5e5b8b64736f6c634300081c00336080346100c057601f614e2038819003918201601f19168301916001600160401b038311848410176100c5578084926060946040528339810103126100c057610047816100db565b906100606040610059602084016100db565b92016100db565b9161006a336100ef565b610073336100ef565b600380546001600160a01b03199081166001600160a01b039384161790915560048054821693831693909317909255600580549092169216919091179055604051614ce990816101378239f35b600080fd5b634e487b7160e01b600052604160045260246000fd5b51906001600160a01b03821682036100c057565b600080546001600160a01b039283166001600160a01b03198216811783559216907f8be0079c531659141344cd1fd0a4f28419497f9722a3daafe3b4186f6b6457e09080a356fe608080604052600436101561001357600080fd5b60003560e01c90816318bae6c814610729575080632eb73a88146106c45780634f54f0d21461042057806350474f3a146103bb57806361d027b314610387578063715018a61461030957806374d4e491146102755780638c64ea4a146102c75780638da5cb5b14610293578063ac95804114610275578063c6f9aa0014610241578063f0f44260146101dc5763f2fde38b146100ae57600080fd5b346101d75760206003193601126101d75773ffffffffffffffffffffffffffffffffffffffff6100dc61075a565b6100e4610862565b1680156101535773ffffffffffffffffffffffffffffffffffffffff600054827fffffffffffffffffffffffff0000000000000000000000000000000000000000821617600055167f8be0079c531659141344cd1fd0a4f28419497f9722a3daafe3b4186f6b6457e0600080a3005b60846040517f08c379a000000000000000000000000000000000000000000000000000000000815260206004820152602660248201527f4f776e61626c653a206e6577206f776e657220697320746865207a65726f206160448201527f64647265737300000000000000000000000000000000000000000000000000006064820152fd5b600080fd5b346101d75760206003193601126101d75773ffffffffffffffffffffffffffffffffffffffff61020a61075a565b610212610862565b167fffffffffffffffffffffffff00000000000000000000000000000000000000006005541617600555600080f35b346101d75760006003193601126101d757602073ffffffffffffffffffffffffffffffffffffffff60045416604051908152f35b346101d75760006003193601126101d7576020600154604051908152f35b346101d75760006003193601126101d757602073ffffffffffffffffffffffffffffffffffffffff60005416604051908152f35b346101d75760206003193601126101d7576004356000526002602052602073ffffffffffffffffffffffffffffffffffffffff60406000205416604051908152f35b346101d75760006003193601126101d757610322610862565b600073ffffffffffffffffffffffffffffffffffffffff81547fffffffffffffffffffffffff000000000000000000000000000000000000000081168355167f8be0079c531659141344cd1fd0a4f28419497f9722a3daafe3b4186f6b6457e08280a3005b346101d75760006003193601126101d757602073ffffffffffffffffffffffffffffffffffffffff60055416604051908152f35b346101d75760206003193601126101d75773ffffffffffffffffffffffffffffffffffffffff6103e961075a565b6103f1610862565b167fffffffffffffffffffffffff00000000000000000000000000000000000000006003541617600355600080f35b346101d75760a06003193601126101d75760043573ffffffffffffffffffffffffffffffffffffffff81168091036101d75760243567ffffffffffffffff81116101d75761047290369060040161077d565b9060443567ffffffffffffffff81116101d75761049390369060040161077d565b916064359273ffffffffffffffffffffffffffffffffffffffff8416938481036101d7576084359073ffffffffffffffffffffffffffffffffffffffff8216958683036101d757156106a457945b1561068457935b6001547fffffffffffffffffffffffffffffffffffffffffffffffffffffffffffffffff8114610655576001019485600155604051936143d2938486019286841067ffffffffffffffff8511176106265773ffffffffffffffffffffffffffffffffffffffff61058281936105746080968b9a6108e28c398c895260a060208a015260a0890190610803565b908782036040890152610803565b951660608501521691015203906000f091821561061a5773ffffffffffffffffffffffffffffffffffffffff6040931681600052600260205283600020817fffffffffffffffffffffffff000000000000000000000000000000000000000082541617905583519281837fa8596cc4a052ecc7656e9ca0fb7a10472573699e3aa34ac5659bc37c1b0a44fc600080a482526020820152f35b6040513d6000823e3d90fd5b7f4e487b7100000000000000000000000000000000000000000000000000000000600052604160045260246000fd5b7f4e487b7100000000000000000000000000000000000000000000000000000000600052601160045260246000fd5b5073ffffffffffffffffffffffffffffffffffffffff60045416936104e8565b5073ffffffffffffffffffffffffffffffffffffffff60035416946104e1565b346101d75760206003193601126101d75773ffffffffffffffffffffffffffffffffffffffff6106f261075a565b6106fa610862565b167fffffffffffffffffffffffff00000000000000000000000000000000000000006004541617600455600080f35b346101d75760006003193601126101d75760209073ffffffffffffffffffffffffffffffffffffffff600354168152f35b6004359073ffffffffffffffffffffffffffffffffffffffff821682036101d757565b81601f820112156101d75780359067ffffffffffffffff821161062657604051927fffffffffffffffffffffffffffffffffffffffffffffffffffffffffffffffe0603f81601f8601160116840184811067ffffffffffffffff82111761062657604052828452602083830101116101d757816000926020809301838601378301015290565b919082519283825260005b84811061084d5750507fffffffffffffffffffffffffffffffffffffffffffffffffffffffffffffffe0601f8460006020809697860101520116010190565b8060208092840101518282860101520161080e565b73ffffffffffffffffffffffffffffffffffffffff60005416330361088357565b60646040517f08c379a000000000000000000000000000000000000000000000000000000000815260206004820152602060248201527f4f776e61626c653a2063616c6c6572206973206e6f7420746865206f776e65726044820152fdfe60c0806040523461068e576143d2803803809161001c8285610693565b8339810160a08282031261068e578151916001600160a01b038316830361068e5760208101516001600160401b03811161068e578261005c9183016106d1565b604082015190926001600160401b03821161068e5761007c9183016106d1565b92610095608061008e60608501610731565b9301610731565b9261009f33610745565b8051906001600160401b03821161058b5760045490600182811c92168015610684575b602083101461056b5781601f849311610614575b50602090601f83116001146105ac576000926105a1575b50508160011b916000199060031b1c1916176004555b83516001600160401b03811161058b57600554600181811c91168015610581575b602082101461056b57601f8111610522575b50602094601f82116001146104bb579481929394956000926104b0575b50508160011b916000199060031b1c1916176005555b6101728161078c565b90156104a8575b60a05260805260016007556001600160a01b0316908115610463576001600160a01b031690811561041e576101ad33610745565b3360009081526000805160206143b2833981519152602052604090205460ff16156103de575b600080516020614332833981519152600081815260066020527f6f33ec38532bdfedd8912126adc1f5918b75385d650da7c642efcc94ef3a60f680549082905590917fbd79b86ffe0ab8e8776151514217cd7cacd52c909f66475c3af44e129f0b00ff8380a4600080516020614352833981519152600081815260066020527f4448119502453e295a09f7d4e8a6a0575d3624c233f99f59abf0835bf259780b80549082905590917fbd79b86ffe0ab8e8776151514217cd7cacd52c909f66475c3af44e129f0b00ff8380a46000818152600080516020614392833981519152602052604090205460ff161561038d575b506000818152600080516020614372833981519152602052604090205460ff161561033c575b604051613ade908161083482396080518181816105e30152818161094e015281816114a10152818161171601528181611cab0152818161258701528181612a00015261319e015260a051816118d90152f35b600081815260008051602061437283398151915260205260408120805460ff19166001179055339190600080516020614352833981519152906000805160206143128339815191529080a4386102ea565b600081815260008051602061439283398151915260205260408120805460ff19166001179055339190600080516020614332833981519152906000805160206143128339815191529080a4386102c4565b3360008181526000805160206143b283398151915260205260408120805460ff1916600117905581906000805160206143128339815191528180a46101d3565b60405162461bcd60e51b815260206004820152601c60248201527f4167656e742063616e6e6f74206265207a65726f2061646472657373000000006044820152606490fd5b60405162461bcd60e51b815260206004820152601e60248201527f4d616e616765722063616e6e6f74206265207a65726f206164647265737300006044820152606490fd5b506012610179565b015190503880610153565b601f198216956005600052806000209160005b88811061050a575083600195969798106104f1575b505050811b01600555610169565b015160001960f88460031b161c191690553880806104e3565b919260206001819286850151815501940192016104ce565b60056000526020600020601f830160051c81019160208410610561575b601f0160051c01905b8181106105555750610136565b60008155600101610548565b909150819061053f565b634e487b7160e01b600052602260045260246000fd5b90607f1690610124565b634e487b7160e01b600052604160045260246000fd5b0151905038806100ed565b600460009081528281209350601f198516905b8181106105fc57509084600195949392106105e3575b505050811b01600455610103565b015160001960f88460031b161c191690553880806105d5565b929360206001819287860151815501950193016105bf565b60046000529091507f8a35acfbc15ff81a39ae7d344fd709f28e8600b4aa8c65c6b64bfe7fe36bd19b601f840160051c8101916020851061067a575b90601f859493920160051c01905b81811061066b57506100d6565b6000815584935060010161065e565b9091508190610650565b91607f16916100c2565b600080fd5b601f909101601f19168101906001600160401b0382119082101761058b57604052565b6001600160401b03811161058b57601f01601f191660200190565b81601f8201121561068e578051906106e8826106b6565b926106f66040519485610693565b8284526020838301011161068e5760005b82811061071c57505060206000918301015290565b80602080928401015182828701015201610707565b51906001600160a01b038216820361068e57565b600080546001600160a01b039283166001600160a01b03198216811783559216907f8be0079c531659141344cd1fd0a4f28419497f9722a3daafe3b4186f6b6457e09080a3565b60008091604051602081019063313ce56760e01b8252600481526107b1602482610693565b51916001600160a01b03165afa3d1561082b573d906107cf826106b6565b916107dd6040519384610693565b82523d6000602084013e5b8061081f575b6107fc575b50600090600090565b60208180518101031261068e576020015160ff81116107f3579060ff6001921690565b506020815110156107ee565b6060906107e856fe6080604052600436101561001257600080fd5b60003560e01c806301e1d1141461232d57806301ffc9a71461228c57806306fdde03146121cd57806307a2d13a1461169e578063095ea7b3146121a75780630a28a47714612189578063175188e814611fd657806318160ddd14611fb85780631997db7614611e78578063223e547914611bb457806322459e1814611b7957806323b872dd14611b41578063248a9ca314611b145780632b9b270914611a415780632e8ebaae14611a025780632f2ff15d1461193b578063313ce567146118c457806336568abe14611825578063377e32e61461173a57806338d52e0f146116f657806339509351146116a3578063402d267d1461089457806345f7f249146114365780634cdad5061461169e5780636e553f651461166b57806370a0823114610442578063715018a6146115fa5780637da6ac0d1461150f578063809dab6a1461145457806382299a5c146114365780638da5cb5b1461140f57806391d14854146113c157806394bf804d1461138e57806395d89b411461126d5780639acf5d3414611233578063a03f51c214611233578063a217fddf14611217578063a457c2d714611158578063a9059cbb14611127578063aaf0b34a14611080578063b3d7f6b914611062578063b460af9414610fe6578063b49a60bb14610f1a578063b5eb736014610e9e578063ba08765214610e0e578063bcf685ed14610cdf578063bd07fdac14610899578063c63d75b614610894578063c6e6f592146103aa578063ce96cb7714610871578063d0ebdbe714610742578063d2b3d6ce1461052d578063d547741f146104e6578063d574ea3d146104a5578063d597cf8914610482578063d905777e14610442578063dd62ed3e146103ea578063ec87621c146103af578063ef8b30f7146103aa5763f2fde38b146102b057600080fd5b346103a55760206003193601126103a5576001600160a01b036102d16123b5565b6102d961328e565b16801561033b576001600160a01b03600054827fffffffffffffffffffffffff0000000000000000000000000000000000000000821617600055167f8be0079c531659141344cd1fd0a4f28419497f9722a3daafe3b4186f6b6457e0600080a3005b608460405162461bcd60e51b815260206004820152602660248201527f4f776e61626c653a206e6577206f776e657220697320746865207a65726f206160448201527f64647265737300000000000000000000000000000000000000000000000000006064820152fd5b600080fd5b6124b3565b346103a55760006003193601126103a55760206040517f241ecf16d79d0f8dbfb92cbc07fe17840425976cf0667f022fe9877caa831b088152f35b346103a55760406003193601126103a5576104036123b5565b6001600160a01b036104136123cb565b911660005260026020526001600160a01b03604060002091166000526020526020604060002054604051908152f35b346103a55760206003193601126103a557602061047a6104606123b5565b6001600160a01b0316600052600160205260406000205490565b604051908152f35b346103a55760206003193601126103a557602061047a6104a06123b5565b612767565b346103a55760206003193601126103a5576004356008548110156103a5576001600160a01b036104d66020926124d1565b90549060031b1c16604051908152f35b346103a55760406003193601126103a55761052b6004356105056123cb565b9061052661052182600052600660205260016040600020015490565b613069565b6130b3565b005b346103a5576001600160a01b036105433661246f565b33841660009081527f4448119502453e295a09f7d4e8a6a0575d3624c233f99f59abf0835bf259780a60205260409020549193909290916105869060ff166126c5565b61058e612cb3565b169182600052600960205260ff6040600020541615610718576040517f70a082310000000000000000000000000000000000000000000000000000000081523060048201526020816024816001600160a01b037f0000000000000000000000000000000000000000000000000000000000000000165afa801561070c576106dd575b50823b156103a5577f17729d434965aef6e046626c2c7086b54e96cd3b6bcbee9a0691b55935673e09916040517fce5c7f610000000000000000000000000000000000000000000000000000000081526020600482015260008180610679602482018688612710565b038183895af190816106cc575b506106ad576106a2604051928392602084526020840191612710565b0390a25b6001600755005b6106c4604051928392602084526020840191612710565b0390a26106a6565b60006106d79161251b565b85610686565b6020813d602011610704575b816106f66020938361251b565b810103126103a55751610610565b3d91506106e9565b6040513d6000823e3d90fd5b7f5737b5dd0000000000000000000000000000000000000000000000000000000060005260046000fd5b346103a55760206003193601126103a5576001600160a01b036107636123b5565b61076b612f6b565b16801561082d5760008181527f6f33ec38532bdfedd8912126adc1f5918b75385d650da7c642efcc94ef3a60f5602052604090205460ff16156107aa57005b60008181527f6f33ec38532bdfedd8912126adc1f5918b75385d650da7c642efcc94ef3a60f560205260408120805460ff191660011790553391907f241ecf16d79d0f8dbfb92cbc07fe17840425976cf0667f022fe9877caa831b08907f2f8788117e7eff1d82e926ec794901d17c78024a50270940304540a733656f0d9080a4005b606460405162461bcd60e51b815260206004820152600f60248201527f496e76616c6964206d616e6167657200000000000000000000000000000000006044820152fd5b346103a55760206003193601126103a557602061047a61088f6123b5565b612748565b6123e1565b346103a55760606003193601126103a5576108b26123b5565b6024359060443567ffffffffffffffff81116103a5576108d6903690600401612441565b3360009081527f4448119502453e295a09f7d4e8a6a0575d3624c233f99f59abf0835bf259780a60205260409020549093906109149060ff166126c5565b61091c612cb3565b6001600160a01b0383169384600052600960205260ff6040600020541615610718578115610cb5576001600160a01b037f000000000000000000000000000000000000000000000000000000000000000016936040517f70a08231000000000000000000000000000000000000000000000000000000008152306004820152602081602481895afa801561070c578491600091610c80575b5010610c565760006040517fdd62ed3e0000000000000000000000000000000000000000000000000000000081523060048201528760248201526020816044818a5afa918215610c4a578092610c12575b5050610ba8576040517f095ea7b30000000000000000000000000000000000000000000000000000000060208201526001600160a01b03909116602482015260448101839052610a6c90610a6681606481015b03601f19810183528261251b565b856135a3565b843b156103a5576040517f59efcb1500000000000000000000000000000000000000000000000000000000815260008180610aac85888860048501612731565b0381838a5af19081610b97575b50610b3a576040517f095ea7b30000000000000000000000000000000000000000000000000000000060208201526024810186905260006044808301919091528152610b109085610b0b60648361251b565b6135a3565b7facfdb4440000000000000000000000000000000000000000000000000000000060005260046000fd5b7fde953c60cd81663917dd703d2f498da2604eccfef3edd2260ea19f0f37f749d993506106a29085600052600a6020526040600020610b7a84825461253e565b9055610b8883600b5461253e565b600b5560405193849384612731565b6000610ba29161251b565b86610ab9565b608460405162461bcd60e51b815260206004820152603660248201527f5361666545524332303a20617070726f76652066726f6d206e6f6e2d7a65726f60448201527f20746f206e6f6e2d7a65726f20616c6c6f77616e6365000000000000000000006064820152fd5b9091506020823d602011610c42575b81610c2e6020938361251b565b81010312610c3f5750518780610a05565b80fd5b3d9150610c21565b604051903d90823e3d90fd5b7ff4d678b80000000000000000000000000000000000000000000000000000000060005260046000fd5b9150506020813d602011610cad575b81610c9c6020938361251b565b810103126103a557839051886109b4565b3d9150610c8f565b7f2c5211c60000000000000000000000000000000000000000000000000000000060005260046000fd5b346103a55760206003193601126103a5576001600160a01b03610d006123b5565b610d08612f6b565b168015610dca5760008181527f4448119502453e295a09f7d4e8a6a0575d3624c233f99f59abf0835bf259780a602052604090205460ff1615610d4757005b60008181527f4448119502453e295a09f7d4e8a6a0575d3624c233f99f59abf0835bf259780a60205260408120805460ff191660011790553391907fcab5a0bfe0b79d2c4b1c2e02599fa044d115b7511f9659307cb4276950967709907f2f8788117e7eff1d82e926ec794901d17c78024a50270940304540a733656f0d9080a4005b606460405162461bcd60e51b815260206004820152600d60248201527f496e76616c6964206167656e74000000000000000000000000000000000000006044820152fd5b346103a557610e1c36612407565b90610e3b826001600160a01b0316600052600160205260406000205490565b8311610e5a578261047a91610e51602095612834565b938491336132e6565b606460405162461bcd60e51b815260206004820152601d60248201527f455243343632363a2072656465656d206d6f7265207468616e206d61780000006044820152fd5b346103a557610eac3661246f565b50503360009081527f6f33ec38532bdfedd8912126adc1f5918b75385d650da7c642efcc94ef3a60f56020526040902054610ee99060ff1661266d565b610ef1612cb3565b6001600160a01b038116600052600960205260ff6040600020541615610718576106a6906129f6565b346103a55760006003193601126103a5576040518060206008549283815201809260086000527ff3f7a9fe364faab93b216da50a3214154f22a0a2b415b23a84c8169e8b636ee39060005b818110610fc75750505081610f7b91038261251b565b6040519182916020830190602084525180915260408301919060005b818110610fa5575050500390f35b82516001600160a01b0316845285945060209384019390920191600101610f97565b82546001600160a01b0316845260209093019260019283019201610f65565b346103a557610ff436612407565b9091610fff82612748565b811161101e576020928161101561047a9361299c565b938492336132e6565b606460405162461bcd60e51b815260206004820152601f60248201527f455243343632363a207769746864726177206d6f7265207468616e206d6178006044820152fd5b346103a55760206003193601126103a557602061047a600435612806565b346103a55760006003193601126103a5573360009081527f6f33ec38532bdfedd8912126adc1f5918b75385d650da7c642efcc94ef3a60f560205260409020546110cc9060ff1661266d565b6110d4612cb3565b60005b6008548110156106a657806001600160a01b036110f56001936124d1565b90549060031b1c1680600052600a602052604060002054611118575b50016110d7565b611121906129f6565b82611111565b346103a55760406003193601126103a55761114d6111436123b5565b6024359033612da6565b602060405160018152f35b346103a55760406003193601126103a5576111716123b5565b6024359033600052600260205260406000206001600160a01b038216600052602052604060002054918083106111ad5761114d92039033612862565b608460405162461bcd60e51b815260206004820152602560248201527f45524332303a2064656372656173656420616c6c6f77616e63652062656c6f7760448201527f207a65726f0000000000000000000000000000000000000000000000000000006064820152fd5b346103a55760006003193601126103a557602060405160008152f35b346103a55760206003193601126103a5576001600160a01b036112546123b5565b16600052600a6020526020604060002054604051908152f35b346103a55760006003193601126103a55760405160006005548060011c90600181168015611384575b6020831081146113575782855290811561133357506001146112d3575b6112cf836112c38185038261251b565b6040519182918261236b565b0390f35b91905060056000527f036b6384b5eca791c62761152d0c79bb0604c104a5fb6f4eb0703f3154bb3db0916000905b808210611319575090915081016020016112c36112b3565b919260018160209254838588010152019101909291611301565b60ff191660208086019190915291151560051b840190910191506112c390506112b3565b6024847f4e487b710000000000000000000000000000000000000000000000000000000081526022600452fd5b91607f1691611296565b346103a55760406003193601126103a557602060043561047a6113af6123cb565b916113b981612806565b809333613140565b346103a55760406003193601126103a5576113da6123cb565b60043560005260066020526001600160a01b0360406000209116600052602052602060ff604060002054166040519015158152f35b346103a55760006003193601126103a55760206001600160a01b0360005416604051908152f35b346103a55760006003193601126103a5576020600b54604051908152f35b346103a55760006003193601126103a5576040517f70a082310000000000000000000000000000000000000000000000000000000081523060048201526020816024816001600160a01b037f0000000000000000000000000000000000000000000000000000000000000000165afa801561070c576000906114dc575b602090604051908152f35b506020813d602011611507575b816114f66020938361251b565b810103126103a557602090516114d1565b3d91506114e9565b346103a55760206003193601126103a5576115286123b5565b611530612f6b565b6001600160a01b03811660009081527f4448119502453e295a09f7d4e8a6a0575d3624c233f99f59abf0835bf259780a602052604090205460ff1661157157005b6001600160a01b031660008181527f4448119502453e295a09f7d4e8a6a0575d3624c233f99f59abf0835bf259780a60205260408120805460ff191690553391907fcab5a0bfe0b79d2c4b1c2e02599fa044d115b7511f9659307cb4276950967709907ff6391f5c32d9c69d2a47ea670b442974b53935d1edc7fd64eb21e047a839171b9080a4005b346103a55760006003193601126103a55761161361328e565b60006001600160a01b0381547fffffffffffffffffffffffff000000000000000000000000000000000000000081168355167f8be0079c531659141344cd1fd0a4f28419497f9722a3daafe3b4186f6b6457e08280a3005b346103a55760406003193601126103a557602060043561047a61168c6123cb565b611695836129c8565b92839133613140565b612397565b346103a55760406003193601126103a55761114d6116bf6123b5565b33600052600260205260406000206001600160a01b0382166000526020526116ef6040600020602435905461253e565b9033612862565b346103a55760006003193601126103a55760206040516001600160a01b037f0000000000000000000000000000000000000000000000000000000000000000168152f35b346103a55760206003193601126103a5576117536123b5565b61175b612f6b565b6001600160a01b03811660009081527f6f33ec38532bdfedd8912126adc1f5918b75385d650da7c642efcc94ef3a60f5602052604090205460ff1661179c57005b6001600160a01b031660008181527f6f33ec38532bdfedd8912126adc1f5918b75385d650da7c642efcc94ef3a60f560205260408120805460ff191690553391907f241ecf16d79d0f8dbfb92cbc07fe17840425976cf0667f022fe9877caa831b08907ff6391f5c32d9c69d2a47ea670b442974b53935d1edc7fd64eb21e047a839171b9080a4005b346103a55760406003193601126103a55761183e6123cb565b336001600160a01b0382160361185a5761052b906004356130b3565b608460405162461bcd60e51b815260206004820152602f60248201527f416363657373436f6e74726f6c3a2063616e206f6e6c792072656e6f756e636560448201527f20726f6c657320666f722073656c6600000000000000000000000000000000006064820152fd5b346103a55760006003193601126103a55760ff7f00000000000000000000000000000000000000000000000000000000000000001660ff811161190c57602090604051908152f35b7f4e487b7100000000000000000000000000000000000000000000000000000000600052601160045260246000fd5b346103a55760406003193601126103a5576004356119576123cb565b9061197361052182600052600660205260016040600020015490565b80600052600660205260406000206001600160a01b03831660005260205260ff60406000205416156119a157005b80600052600660205260406000206001600160a01b0383166000526020526040600020600160ff198254161790556001600160a01b03339216907f2f8788117e7eff1d82e926ec794901d17c78024a50270940304540a733656f0d600080a4005b346103a55760206003193601126103a5576001600160a01b03611a236123b5565b166000526009602052602060ff604060002054166040519015158152f35b346103a55760006003193601126103a557600080600854905b818110611a6c57602083604051908152f35b600460206001600160a01b03611a81846124d1565b90549060031b1c16604051928380927f12065fe00000000000000000000000000000000000000000000000000000000082525afa60009181611ae1575b50611acd575b50600101611a5a565b611ada906001929461253e565b9290611ac4565b90916020823d8211611b0c575b81611afb6020938361251b565b81010312610c3f5750519085611abe565b3d9150611aee565b346103a55760206003193601126103a557602061047a600435600052600660205260016040600020015490565b346103a55760606003193601126103a55761114d611b5d6123b5565b611b656123cb565b60443591611b74833383612d08565b612da6565b346103a55760006003193601126103a55760206040517fcab5a0bfe0b79d2c4b1c2e02599fa044d115b7511f9659307cb42769509677098152f35b346103a55760206003193601126103a557611bcd6123b5565b3360009081527f6f33ec38532bdfedd8912126adc1f5918b75385d650da7c642efcc94ef3a60f56020526040902054611c089060ff1661266d565b6001600160a01b038116908115611e4e5781600052600960205260ff60406000205416611e24576040517f2495a599000000000000000000000000000000000000000000000000000000008152602081600481865afa8091600091611dde575b5090611c98577f4e236e9a0000000000000000000000000000000000000000000000000000000060005260046000fd5b6001600160a01b03166001600160a01b037f0000000000000000000000000000000000000000000000000000000000000000168114908115611dd5575b5015611d91578160005260096020526040600020600160ff198254161790556008549068010000000000000000821015611d6257611d1c826001611d3b94016008556124d1565b9091906001600160a01b038084549260031b9316831b921b1916179055565b7f3f008fd510eae7a9e7bee13513d7b83bef8003d488b5a3d0b0da4de71d6846f1600080a2005b7f4e487b7100000000000000000000000000000000000000000000000000000000600052604160045260246000fd5b606460405162461bcd60e51b815260206004820152601760248201527f5374726174656779206173736574206d69736d617463680000000000000000006044820152fd5b90501583611cd5565b6020813d602011611e1c575b81611df76020938361251b565b81010312611e185751906001600160a01b0382168203610c3f575084611c68565b5080fd5b3d9150611dea565b7fc45546f70000000000000000000000000000000000000000000000000000000060005260046000fd5b7fe6c4247b0000000000000000000000000000000000000000000000000000000060005260046000fd5b346103a55760006003193601126103a5573360009081527f4448119502453e295a09f7d4e8a6a0575d3624c233f99f59abf0835bf259780a6020526040902054611ec49060ff166126c5565b611ecc612cb3565b60005b6008548110156106a6576001600160a01b03611eea826124d1565b90549060031b1c169081600052600a602052604060002054611f11575b6001915001611ecf565b813b156103a5576040517fce5c7f610000000000000000000000000000000000000000000000000000000081526020600482015260006024820181905260019391908160448183865af19081611fa7575b50611f6e575b50611f07565b6040805160208082526000908201527f17729d434965aef6e046626c2c7086b54e96cd3b6bcbee9a0691b55935673e099190a282611f68565b6000611fb29161251b565b84611f62565b346103a55760006003193601126103a5576020600354604051908152f35b346103a55760206003193601126103a557611fef6123b5565b3360009081527f6f33ec38532bdfedd8912126adc1f5918b75385d650da7c642efcc94ef3a60f5602052604090205461202a9060ff1661266d565b6001600160a01b0381169081600052600960205260ff60406000205416156107185781600052600a60205260406000205461217a575b50806000526009602052604060002060ff19815416905560005b600854908181101561217357826001600160a01b03612098836124d1565b90549060031b1c16146120af57600191500161207a565b600019820191821161190c57611d1c6001600160a01b036120d26120e0946124d1565b90549060031b1c16916124d1565b600854801561214457600019016120f6816124d1565b6001600160a01b0382549160031b1b191690556008555b80600052600a602052600060408120557f09a1db4b80c32706328728508c941a6b954f31eb5affd32f236c1fd405f8fea4600080a2005b7f4e487b7100000000000000000000000000000000000000000000000000000000600052603160045260246000fd5b505061210d565b612183906129f6565b81612060565b346103a55760206003193601126103a557602061047a60043561299c565b346103a55760406003193601126103a55761114d6121c36123b5565b6024359033612862565b346103a55760006003193601126103a55760405160006004548060011c90600181168015612282575b602083108114611357578285529081156113335750600114612222576112cf836112c38185038261251b565b91905060046000527f8a35acfbc15ff81a39ae7d344fd709f28e8600b4aa8c65c6b64bfe7fe36bd19b916000905b808210612268575090915081016020016112c36112b3565b919260018160209254838588010152019101909291612250565b91607f16916121f6565b346103a55760206003193601126103a5576004357fffffffff0000000000000000000000000000000000000000000000000000000081168091036103a557807f7965db0b0000000000000000000000000000000000000000000000000000000060209214908115612303575b506040519015158152f35b7f01ffc9a700000000000000000000000000000000000000000000000000000000915014826122f8565b346103a55760006003193601126103a557602061047a61254b565b60005b83811061235b5750506000910152565b818101518382015260200161234b565b601f19601f604093602084526123908151809281602088015260208888019101612348565b0116010190565b346103a55760206003193601126103a557602061047a600435612834565b600435906001600160a01b03821682036103a557565b602435906001600160a01b03821682036103a557565b346103a55760206003193601126103a5576123fa6123b5565b5060206040516000198152f35b60031960609101126103a557600435906024356001600160a01b03811681036103a557906044356001600160a01b03811681036103a55790565b9181601f840112156103a55782359167ffffffffffffffff83116103a557602083818601950101116103a557565b9060406003198301126103a5576004356001600160a01b03811681036103a557916024359067ffffffffffffffff82116103a5576124af91600401612441565b9091565b346103a55760206003193601126103a557602061047a6004356129c8565b6008548110156124ec57600860005260206000200190600090565b7f4e487b7100000000000000000000000000000000000000000000000000000000600052603260045260246000fd5b90601f601f19910116810190811067ffffffffffffffff821117611d6257604052565b9190820180921161190c57565b6040517f70a082310000000000000000000000000000000000000000000000000000000081523060048201526020816024816001600160a01b037f0000000000000000000000000000000000000000000000000000000000000000165afa90811561070c5760009161263b575b50604051907f2b9b2709000000000000000000000000000000000000000000000000000000008252602082600481305afa90811561070c57600091612605575b612602925061253e565b90565b90506020823d602011612633575b816126206020938361251b565b810103126103a5576126029151906125f8565b3d9150612613565b90506020813d602011612665575b816126566020938361251b565b810103126103a55751386125b8565b3d9150612649565b1561267457565b606460405162461bcd60e51b815260206004820152601e60248201527f5661756c743a2063616c6c6572206973206e6f742061206d616e6167657200006044820152fd5b9190820391821161190c57565b156126cc57565b606460405162461bcd60e51b815260206004820152601d60248201527f5661756c743a2063616c6c6572206973206e6f7420616e206167656e740000006044820152fd5b601f8260209493601f19938186528686013760008582860101520116010190565b604090612602949281528160208201520191612710565b6001600160a01b03166000526001602052612602604060002054612834565b6001600160a01b031680600052600960205260ff6040600020541615612800576020600491604051928380927f12065fe00000000000000000000000000000000000000000000000000000000082525afa600091816127cc575b506126025750600090565b9091506020813d6020116127f8575b816127e86020938361251b565b810103126103a5575190386127c1565b3d91506127db565b50600090565b61280e61254b565b906001820180921161190c576003546001810180911161190c57612602926001926134db565b61283c61254b565b906001820180921161190c576003546001810180911161190c57612602926000926134db565b6001600160a01b0316908115612933576001600160a01b03169182156128c95760207f8c5be1e5ebec7d5bd14f71427d1e84f3dd0314c0f7b2291e5b200ac8c7c3b925918360005260028252604060002085600052825280604060002055604051908152a3565b608460405162461bcd60e51b815260206004820152602260248201527f45524332303a20617070726f766520746f20746865207a65726f20616464726560448201527f73730000000000000000000000000000000000000000000000000000000000006064820152fd5b608460405162461bcd60e51b8152602060048201526024808201527f45524332303a20617070726f76652066726f6d20746865207a65726f2061646460448201527f72657373000000000000000000000000000000000000000000000000000000006064820152fd5b60035460019081810180911161190c576129b461254b565b9082820180921161190c57612602936134db565b600354906001820180921161190c576129df61254b565b6001810180911161190c57612602926000926134db565b6001600160a01b037f000000000000000000000000000000000000000000000000000000000000000016906040517f70a08231000000000000000000000000000000000000000000000000000000008152600091306004830152602082602481875afa918215612c55578392612c78575b506001600160a01b031692833b15612c74576040517f2c1c12760000000000000000000000000000000000000000000000000000000081526020600482015260248101849052838160448183895af19081612c60575b50612b2e575050602081837f4704e4554d825fe2d5cbb8c929264a85ae533f0946c3798a9fcccd93524e9bea9352600a82526040812054612b02575b604051908152a2565b838152600a8252612b196040822054600b546126b8565b600b55838152600a8252806040812055612af9565b906020602492604051938480927f70a082310000000000000000000000000000000000000000000000000000000082523060048301525afa918215612c55578392612bff575b50916020917f4704e4554d825fe2d5cbb8c929264a85ae533f0946c3798a9fcccd93524e9bea93808211600014612bf757612bae916126b8565b905b848152600a83526040812054612bcb575b50604051908152a2565b848152600a8352612be26040822054600b546126b8565b600b55848152600a8352604081205538612bc1565b505080612bb0565b9150916020823d602011612c4d575b81612c1b6020938361251b565b810103126103a557905190917f4704e4554d825fe2d5cbb8c929264a85ae533f0946c3798a9fcccd93524e9bea612b74565b3d9150612c0e565b6040513d85823e3d90fd5b84612c6d9195929561251b565b9238612abd565b8280fd5b9091506020813d602011612cab575b81612c946020938361251b565b81010312612c745751906001600160a01b03612a67565b3d9150612c87565b600260075414612cc4576002600755565b606460405162461bcd60e51b815260206004820152601f60248201527f5265656e7472616e637947756172643a207265656e7472616e742063616c6c006044820152fd5b906001600160a01b038216600052600260205260406000206001600160a01b038216600052602052604060002054926000198403612d47575b50505050565b808410612d6257612d59930391612862565b38808080612d41565b606460405162461bcd60e51b815260206004820152601d60248201527f45524332303a20696e73756666696369656e7420616c6c6f77616e63650000006044820152fd5b6001600160a01b0316908115612f01576001600160a01b0316918215612e9757816000526001602052604060002054818110612e2d57817fddf252ad1be2c89b69c2b068fc378daa952ba7f163c4a11628f55a4df523b3ef9260209285600052600184520360406000205584600052600182526040600020818154019055604051908152a3565b608460405162461bcd60e51b815260206004820152602660248201527f45524332303a207472616e7366657220616d6f756e742065786365656473206260448201527f616c616e636500000000000000000000000000000000000000000000000000006064820152fd5b608460405162461bcd60e51b815260206004820152602360248201527f45524332303a207472616e7366657220746f20746865207a65726f206164647260448201527f65737300000000000000000000000000000000000000000000000000000000006064820152fd5b608460405162461bcd60e51b815260206004820152602560248201527f45524332303a207472616e736665722066726f6d20746865207a65726f20616460448201527f64726573730000000000000000000000000000000000000000000000000000006064820152fd5b3360009081527f54cdd369e4e8a8515e52ca72ec816c2101831ad1f18bf44102ed171459c9b4f8602052604090205460ff1615612fa457565b613065612fb0336137ae565b61304d6011612fbf600061395f565b9260376040519485927f416363657373436f6e74726f6c3a206163636f756e742000000000000000000060208501526130018151809260208688019101612348565b83017f206973206d697373696e6720726f6c65200000000000000000000000000000008382015261303c825180936020604885019101612348565b01010301601f19810183528261251b565b60405191829162461bcd60e51b83526004830161236b565b0390fd5b80600052600660205260406000206001600160a01b03331660005260205260ff60406000205416156130985750565b6130659061304d6011612fbf6130ad336137ae565b9361395f565b80600052600660205260406000206001600160a01b03831660005260205260ff604060002054166130e2575050565b80600052600660205260406000206001600160a01b038316600052602052604060002060ff1981541690556001600160a01b03339216907ff6391f5c32d9c69d2a47ea670b442974b53935d1edc7fd64eb21e047a839171b600080a4565b91906001600160a01b03906131c282604051957f23b872dd00000000000000000000000000000000000000000000000000000000602088015216948560248201523060448201528460648201526064815261319c60848261251b565b7f00000000000000000000000000000000000000000000000000000000000000006135a3565b1692831561324a577fdcbc1c05240f31ff3ad067ef1ee35ce4997762752e3a095284754544f4c709d791816131fb60409360035461253e565b600355856000526001602052826000208181540190558560007fddf252ad1be2c89b69c2b068fc378daa952ba7f163c4a11628f55a4df523b3ef60208651858152a382519182526020820152a3565b606460405162461bcd60e51b815260206004820152601f60248201527f45524332303a206d696e7420746f20746865207a65726f2061646472657373006044820152fd5b6001600160a01b036000541633036132a257565b606460405162461bcd60e51b815260206004820152602060248201527f4f776e61626c653a2063616c6c6572206973206e6f7420746865206f776e65726044820152fd5b91936001600160a01b03851694816001600160a01b038516948786036134ca575b5050508415613460578460005260016020526040600020548181106133f6577ffbde797d201c681b91056529119e0b02407c7bb96a4a2c75c01fc9667232c8db92826040936001600160a01b039389600052600160205203846000205580600354036003556000887fddf252ad1be2c89b69c2b068fc378daa952ba7f163c4a11628f55a4df523b3ef60208751858152a383517fa9059cbb0000000000000000000000000000000000000000000000000000000060208201526001600160a01b0383166024820152604481018890526133e79061319c8160648101610a58565b835196875260208701521693a4565b608460405162461bcd60e51b815260206004820152602260248201527f45524332303a206275726e20616d6f756e7420657863656564732062616c616e60448201527f63650000000000000000000000000000000000000000000000000000000000006064820152fd5b608460405162461bcd60e51b815260206004820152602160248201527f45524332303a206275726e2066726f6d20746865207a65726f2061646472657360448201527f73000000000000000000000000000000000000000000000000000000000000006064820152fd5b6134d392612d08565b388181613307565b91906134e88282856136d0565b936003811015613558576001149283613514575b5050506135065790565b6001810180911161190c5790565b909180935015613529570915153880806134fc565b7f4e487b7100000000000000000000000000000000000000000000000000000000600052601260045260246000fd5b7f4e487b7100000000000000000000000000000000000000000000000000000000600052602160045260246000fd5b67ffffffffffffffff8111611d6257601f01601f191660200190565b6001600160a01b036136259116916040926000808551936135c4878661251b565b602085527f5361666545524332303a206c6f772d6c6576656c2063616c6c206661696c6564602086015260208151910182855af13d156136c8573d9161360983613587565b926136168751948561251b565b83523d6000602085013e613a18565b80519081159182156136a5575b50501561363c5750565b6084905162461bcd60e51b815260206004820152602a60248201527f5361666545524332303a204552433230206f7065726174696f6e20646964206e60448201527f6f742073756363656564000000000000000000000000000000000000000000006064820152fd5b81925090602091810103126103a5576020015180151581036103a5573880613632565b606091613a18565b91600019828409928281029283808610950394808603951461378f578483111561374b5782910960018219018216809204600281600302188082026002030280820260020302808202600203028082026002030280820260020302809102600203029360018380600003040190848311900302920304170290565b606460405162461bcd60e51b815260206004820152601560248201527f4d6174683a206d756c446976206f766572666c6f7700000000000000000000006044820152fd5b505080925015613529570490565b9081518110156124ec570160200190565b6000906137bb602a613587565b916137c9604051938461251b565b602a83526137d7602a613587565b601f196020850191013682378351156139325760309053825160011015613905576078602184015350602960005b6001821161385a5750506138165790565b606460405162461bcd60e51b815260206004820152602060248201527f537472696e67733a20686578206c656e67746820696e73756666696369656e746044820152fd5b9091600f811660108110156138d8577f3031323334353637383961626364656600000000000000000000000000000000901a613896848661379d565b5360041c9180156138ab576000190190613805565b6024827f4e487b710000000000000000000000000000000000000000000000000000000081526011600452fd5b6024837f4e487b710000000000000000000000000000000000000000000000000000000081526032600452fd5b807f4e487b7100000000000000000000000000000000000000000000000000000000602492526032600452fd5b6024827f4e487b710000000000000000000000000000000000000000000000000000000081526032600452fd5b60009061396c6042613587565b9161397a604051938461251b565b604283526139886042613587565b601f196020850191013682378351156139325760309053825160011015613905576078602184015350604160005b600182116139c75750506138165790565b9091600f811660108110156138d8577f3031323334353637383961626364656600000000000000000000000000000000901a613a03848661379d565b5360041c9180156138ab5760001901906139b6565b91929015613a795750815115613a2c575090565b3b15613a355790565b606460405162461bcd60e51b815260206004820152601d60248201527f416464726573733a2063616c6c20746f206e6f6e2d636f6e74726163740000006044820152fd5b825190915015613a8c5750805190602001fd5b6130659060405191829162461bcd60e51b83526004830161236b56fea264697066735822122055706d3b3f538bea8ffba836b6ccb9802d191ce2b55140f902e3f0fd73e4562f64736f6c634300081c00332f8788117e7eff1d82e926ec794901d17c78024a50270940304540a733656f0d241ecf16d79d0f8dbfb92cbc07fe17840425976cf0667f022fe9877caa831b08cab5a0bfe0b79d2c4b1c2e02599fa044d115b7511f9659307cb42769509677094448119502453e295a09f7d4e8a6a0575d3624c233f99f59abf0835bf259780a6f33ec38532bdfedd8912126adc1f5918b75385d650da7c642efcc94ef3a60f554cdd369e4e8a8515e52ca72ec816c2101831ad1f18bf44102ed171459c9b4f8a2646970667358221220c1717d7e047f1bc83dd556a2781648560e7ce6d8f53fd8e4fb22ab6387542d9364736f6c634300081c0033608080604052346023576010336028565b6017336028565b613fde90816100708239f35b600080fd5b600080546001600160a01b039283166001600160a01b03198216811783559216907f8be0079c531659141344cd1fd0a4f28419497f9722a3daafe3b4186f6b6457e09080a356fe608080604052600436101561001357600080fd5b60003560e01c90816331e19cfa14610520575080633f668bff146102e6578063715018a6146102685780638da5cb5b14610234578063d574ea3d146101f2578063f2fde38b146100c9578063f4c5c3131461009a5763ffb9feb31461007757600080fd5b34610095576000600319360112610095576020600154604051908152f35b600080fd5b346100955760006003193601126100955760206040517345b146bc07c9985589b52df651310e75c6be066a8152f35b346100955760206003193601126100955773ffffffffffffffffffffffffffffffffffffffff6100f761053b565b6100ff61055e565b16801561016e5773ffffffffffffffffffffffffffffffffffffffff600054827fffffffffffffffffffffffff0000000000000000000000000000000000000000821617600055167f8be0079c531659141344cd1fd0a4f28419497f9722a3daafe3b4186f6b6457e0600080a3005b60846040517f08c379a000000000000000000000000000000000000000000000000000000000815260206004820152602660248201527f4f776e61626c653a206e6577206f776e657220697320746865207a65726f206160448201527f64647265737300000000000000000000000000000000000000000000000000006064820152fd5b34610095576020600319360112610095576004356000526002602052602073ffffffffffffffffffffffffffffffffffffffff60406000205416604051908152f35b3461009557600060031936011261009557602073ffffffffffffffffffffffffffffffffffffffff60005416604051908152f35b346100955760006003193601126100955761028161055e565b600073ffffffffffffffffffffffffffffffffffffffff81547fffffffffffffffffffffffff000000000000000000000000000000000000000081168355167f8be0079c531659141344cd1fd0a4f28419497f9722a3daafe3b4186f6b6457e08280a3005b346100955760a0600319360112610095576102ff61053b565b60243573ffffffffffffffffffffffffffffffffffffffff8116809103610095576044359173ffffffffffffffffffffffffffffffffffffffff83168093036100955760643573ffffffffffffffffffffffffffffffffffffffff8116809103610095576084359173ffffffffffffffffffffffffffffffffffffffff8316809303610095576001547fffffffffffffffffffffffffffffffffffffffffffffffffffffffffffffffff81146104f1576001019485600155604051936139cb938486019286841067ffffffffffffffff8511176104c25773ffffffffffffffffffffffffffffffffffffffff879560c0976105de883916978885527345b146bc07c9985589b52df651310e75c6be066a602086015260408501526060840152608083015260a08201520301906000f09182156104b65773ffffffffffffffffffffffffffffffffffffffff6040931681600052600260205283600020817fffffffffffffffffffffffff000000000000000000000000000000000000000082541617905583519281837fdc06bec5361b5f193e2a5f09d0d6b4248a40b282e5ffe462d0ddb44020bbec57600080a482526020820152f35b6040513d6000823e3d90fd5b7f4e487b7100000000000000000000000000000000000000000000000000000000600052604160045260246000fd5b7f4e487b7100000000000000000000000000000000000000000000000000000000600052601160045260246000fd5b34610095576000600319360112610095576020906001548152f35b6004359073ffffffffffffffffffffffffffffffffffffffff8216820361009557565b73ffffffffffffffffffffffffffffffffffffffff60005416330361057f57565b60646040517f08c379a000000000000000000000000000000000000000000000000000000000815260206004820152602060248201527f4f776e61626c653a2063616c6c6572206973206e6f7420746865206f776e65726044820152fdfe60a0806040523461043e5760c0816139cb803803809161001f8285610443565b83398101031261043e576100328161047c565b61003e6020830161047c565b9061004b6040840161047c565b6100576060850161047c565b9161007060a06100696080880161047c565b960161047c565b60016000556001600160a01b03909116938415610409576001600160a01b03169182156103d2576001600160a01b031694851515806103c0575b1561038a576001600160a01b03169283151580610378575b1561034157600280546001600160a01b031990811687179091556004805482169094179093556005805484169096179095556006805483166001600160a01b03968716179055600780548316841790556008805490921694169384179055426080819052600b553360009081527fa6eef7e35abe7026729641147f7915573c7e97b47efa546f5f6e3230263bcb4960209081526040822054919492909160ff1615610305575b6000805160206139ab83398151915285526001825260408520848652825260ff604086205416156102b0575b60055460405163095ea7b360e01b81526004810192909252851960248301529094859160449183916001600160a01b03165af190811561028957600093602092610295575b5060065460405163095ea7b360e01b81526004810192909252841960248301529093849160449183916001600160a01b03165af1908115610289577fe7ae49f883c825b05681b3e00e8be6fdea9ed2a8a45e4c6ecb9390fc44cce6159260209261025e575b50604051908152a16040516134e290816104a98239608051816102870152f35b61027d90833d8511610282575b6102758183610443565b810190610490565b61023e565b503d61026b565b6040513d6000823e3d90fd5b6102ab90833d8511610282576102758183610443565b6101d9565b6000805160206139ab83398151915285526001825260408520848652825260408520600160ff1982541617905533846000805160206139ab83398151915260008051602061398b8339815191528880a4610194565b8480526001808352604080872033808952908552908720805460ff1916909217909155808660008051602061398b8339815191528180a4610168565b60405162461bcd60e51b815260206004820152600f60248201526e496e76616c696420655661756c747360881b6044820152606490fd5b506001600160a01b03821615156100c2565b60405162461bcd60e51b815260206004820152600e60248201526d496e76616c696420746f6b656e7360901b6044820152606490fd5b506001600160a01b03841615156100aa565b60405162461bcd60e51b815260206004820152600f60248201526e496e76616c696420666163746f727960881b6044820152606490fd5b60405162461bcd60e51b815260206004820152600d60248201526c125b9d985b1a59081d985d5b1d609a1b6044820152606490fd5b600080fd5b601f909101601f19168101906001600160401b0382119082101761046657604052565b634e487b7160e01b600052604160045260246000fd5b51906001600160a01b038216820361043e57565b9081602091031261043e5751801515810361043e579056fe608080604052600436101561001357600080fd5b60003560e01c90816301ffc9a7146120d15750806309f99b99146120b35780630dfe168114611ebc57806312065fe01461209857806316c38b3c1461200057806319706b3814611f495780631c03e6cc14611f18578063248a9ca314611ee35780632495a59914611ebc5780632c1c12761461194f5780632c354142146119315780632ede5ad6146116c25780632f2ff15d146115dd57806332872f90146115b657806336568abe146114fd57806338c1d467146114a8578063504ee05a1461146d57806359efcb15146109f05780635c975abb146109ca5780635d2e04701461098f57806360246c88146108b0578063633f14ef146108525780636817031b146106ba578063870240b31461067f578063870e4bef146106445780638b2bf5891461061d5780638ce744261461061d57806391d14854146105cf57806398c4f1ac14610594578063a217fddf14610578578063ce5c7f61146104dd578063d21220a7146104b6578063d547741f1461046f578063e190febc14610383578063ea8ec92a146102aa578063ecda10f51461026f578063ee854b7c14610248578063f131b23514610221578063f1a392da146102035763fbfa77cf146101d757600080fd5b346101fe5760006003193601126101fe5760206001600160a01b0360025416604051908152f35b600080fd5b346101fe5760006003193601126101fe576020600b54604051908152f35b346101fe5760006003193601126101fe5760206001600160a01b0360045416604051908152f35b346101fe5760006003193601126101fe5760206001600160a01b0360085416604051908152f35b346101fe5760006003193601126101fe5760206040517f00000000000000000000000000000000000000000000000000000000000000008152f35b346101fe5760006003193601126101fe576040516102c9606082612249565b600281526020810160403682376001600160a01b03600554168251156103545781526001600160a01b036006541682516001101561035457604083929301526040519182916020830190602084525180915260408301919060005b818110610332575050500390f35b82516001600160a01b0316845285945060209384019390920191600101610324565b7f4e487b7100000000000000000000000000000000000000000000000000000000600052603260045260246000fd5b346101fe5760206003193601126101fe5760043567ffffffffffffffff81116101fe576103b49036906004016121d3565b906001600160a01b036002541633141580610436575b61040c577fac04581c930eefb60cf2509de6e2388cbcde488697b9c13ca8dc5cddc8171860916104076040519283926020845260208401916124e5565b0390a1005b7f8d1af8bd0000000000000000000000000000000000000000000000000000000060005260046000fd5b503360009081527f81ca3e78767fe7984cabec333f0414457dbe87b59d50ac066de98618b846bf81602052604090205460ff16156103ca565b346101fe5760406003193601126101fe576104b460043561048e6121bd565b906104af6104aa82600052600160205260016040600020015490565b612db3565b612ec3565b005b346101fe5760006003193601126101fe5760206001600160a01b0360065416604051908152f35b346101fe5760206003193601126101fe5760043567ffffffffffffffff81116101fe5761050e9036906004016121d3565b6001600160a01b03600254163314158061053f575b61040c5761053891610533612dfd565b612802565b6001600055005b503360009081527f81ca3e78767fe7984cabec333f0414457dbe87b59d50ac066de98618b846bf81602052604090205460ff1615610523565b346101fe5760006003193601126101fe57602060405160008152f35b346101fe5760006003193601126101fe5760206040517f31e0210044b4f6757ce6aa31f9c6e8d4896d24a755014887391a926c5224d9598152f35b346101fe5760406003193601126101fe576105e86121bd565b60043560005260016020526001600160a01b0360406000209116600052602052602060ff604060002054166040519015158152f35b346101fe5760006003193601126101fe5760206001600160a01b0360035416604051908152f35b346101fe5760006003193601126101fe5760206040517f12065fe0000000000000000000000000000000000000000000000000000000008152f35b346101fe5760006003193601126101fe5760206040517fce5c7f61000000000000000000000000000000000000000000000000000000008152f35b346101fe5760206003193601126101fe576001600160a01b036106db6121a7565b6106e3612c93565b16801561082857600280547fffffffffffffffffffffffff0000000000000000000000000000000000000000168217905560008181527f81ca3e78767fe7984cabec333f0414457dbe87b59d50ac066de98618b846bf8160209081526040909120547fe7ae49f883c825b05681b3e00e8be6fdea9ed2a8a45e4c6ecb9390fc44cce615929060ff161561077a575b604051908152a1005b7f31e0210044b4f6757ce6aa31f9c6e8d4896d24a755014887391a926c5224d959600052600182526040600020816000528252604060002060017fffffffffffffffffffffffffffffffffffffffffffffffffffffffffffffff0082541617905533817f31e0210044b4f6757ce6aa31f9c6e8d4896d24a755014887391a926c5224d9597f2f8788117e7eff1d82e926ec794901d17c78024a50270940304540a733656f0d600080a4610771565b7f1eb00b060000000000000000000000000000000000000000000000000000000060005260046000fd5b346101fe5760406003193601126101fe5761086b61216b565b60243567ffffffffffffffff81116101fe576108ac916108926108989236906004016121d3565b9161259e565b604051918291602083526020830190612224565b0390f35b346101fe5760006003193601126101fe5760806000806001600160a01b036003541691826108f9575b6108e16122b7565b91604051938452602084015260408301526060820152f35b6040517f0902f1ac0000000000000000000000000000000000000000000000000000000081529150606082600481865afa8092829361095b575b506109425750506000806108d9565b6dffffffffffffffffffffffffffff80911691166108d9565b909250610980915060603d606011610988575b6109788183612249565b810190612538565b509185610933565b503d61096e565b346101fe5760006003193601126101fe5760206040517f2c1c1276000000000000000000000000000000000000000000000000000000008152f35b346101fe5760006003193601126101fe57602060ff60025460a01c166040519015158152f35b346101fe5760406003193601126101fe5760043560243567ffffffffffffffff81116101fe57610a249036906004016121d3565b916002546001600160a01b03811633141580611434575b61040c5760a01c60ff1661140a57610a51612dfd565b80156113e05760608284810103126101fe5781356020830135610a766040850161219a565b83610a81838561227b565b036113e057821515806113c2575b82151591826113a4575b80611391575b610f14575b6003546001600160a01b031615610d4e576001600160a01b036003541615610d2457610c86575b610b66575b937f38f8a0c92f4c5b0b6877f878cb4c0c8d348a47b76d716c8e78f425043df9515b6040610b5c937f2e733a17851169f232b3859260eb3ad2a086afd54e999eb4ea9afb7791702e419782519182526020820152a15b7f4d6ce1e535dbade1c23defba91e23b8f791ce5edc0cc320257a2b364e4e384266020604051858152a160405193849384612506565b0390a16001600055005b6008546040517f6e553f650000000000000000000000000000000000000000000000000000000081526004810183905230602482015290602090829060449082906000906001600160a01b03165af18015610c7a57610c26575b50937f38f8a0c92f4c5b0b6877f878cb4c0c8d348a47b76d716c8e78f425043df9515b6040610b5c9387610c177f2e733a17851169f232b3859260eb3ad2a086afd54e999eb4ea9afb7791702e4199600a5461227b565b600a5593975093505050610ad0565b94906020863d602011610c72575b81610c4160209383612249565b810103126101fe579094507f38f8a0c92f4c5b0b6877f878cb4c0c8d348a47b76d716c8e78f425043df9515b610bc0565b3d9150610c34565b6040513d6000823e3d90fd5b6007546040517f6e553f650000000000000000000000000000000000000000000000000000000081526004810185905230602482015290602090829060449082906000906001600160a01b03165af18015610c7a57610cf5575b50610ced8360095461227b565b600955610acb565b6020813d602011610d1c575b81610d0e60209383612249565b810103126101fe5751610ce0565b3d9150610d01565b7f76ecffc00000000000000000000000000000000000000000000000000000000060005260046000fd5b92909192610e70575b50610d88575b50610b5c7f2e733a17851169f232b3859260eb3ad2a086afd54e999eb4ea9afb7791702e4193610b26565b6008546040517f6e553f650000000000000000000000000000000000000000000000000000000081526004810183905230602482015290602090829060449082906000906001600160a01b03165af18015610c7a57610e1e575b507f2e733a17851169f232b3859260eb3ad2a086afd54e999eb4ea9afb7791702e4193610e14610b5c92600a5461227b565b600a559350610d5d565b936020853d602011610e68575b81610e3860209383612249565b810103126101fe5793507f2e733a17851169f232b3859260eb3ad2a086afd54e999eb4ea9afb7791702e41610de2565b3d9150610e2b565b6007546040517f6e553f65000000000000000000000000000000000000000000000000000000008152600481018390523060248201529190602090839060449082906000906001600160a01b03165af18015610c7a57610ee1575b610ed8915060095461227b565b60095585610d57565b6020823d602011610f0c575b81610efa60209383612249565b810103126101fe57610ed89150610ecb565b3d9150610eed565b6001600160a01b0360035416611367576001600160a01b03600754166001600160a01b03600854166dffffffffffffffffffffffffffff8616906dffffffffffffffffffffffffffff861692604051610180810181811067ffffffffffffffff8211176113385760009161016091604052838152846020820152306040820152856060820152866080820152670de0b6b3a764000060a0820152670de0b6b3a764000060c0820152670de0b6b3a764000060e0820152670de0b6b3a7640000610100820152610bb86101208201528261014082015201527fffffffffffffffffffffffff0000000000000000000000000000000000000000600c541617600c557fffffffffffffffffffffffff0000000000000000000000000000000000000000600d541617600d55307fffffffffffffffffffffffff0000000000000000000000000000000000000000600e541617600e55600f54817fffffffff000000000000000000000000000000000000000000000000000000007bffffffffffffffffffffffffffff00000000000000000000000000008860701b1692161717600f55670de0b6b3a7640000601055670de0b6b3a7640000601155670de0b6b3a7640000601255670de0b6b3a7640000601355610bb860145560006015557fffffffffffffffffffffffff000000000000000000000000000000000000000060165416601655604051906040820182811067ffffffffffffffff821117611338576020926dffffffffffffffffffffffffffff926101e492604052815283810194855260006001600160a01b0360045416604051868101903060601b825242603482015260348152611185605482612249565b5190208560405198899788967fa5c1bb460000000000000000000000000000000000000000000000000000000088526001600160a01b03600c541660048901526001600160a01b03600d541660248901526001600160a01b03600e5416604489015281600f5481811660648b015260701c16608489015260105460a489015260115460c489015260125460e48901526013546101048901526014546101248901526015546101448901526001600160a01b0360165416610164890152511661018487015251166101a48501526101c48401525af180916000916112ef575b5090611270575b50610aa4565b6001600160a01b0316807fffffffffffffffffffffffff000000000000000000000000000000000000000060035416176003557f9c5d829b9b23efc461f9aeef91979ec04bb903feb3bee4f26d22114abfc7335b60406001600160a01b03600554166001600160a01b036006541682519182526020820152a28761126a565b6020813d602011611330575b8161130860209383612249565b8101031261132c5751906001600160a01b0382168203611329575089611263565b80fd5b5080fd5b3d91506112fb565b7f4e487b7100000000000000000000000000000000000000000000000000000000600052604160045260246000fd5b7f031193220000000000000000000000000000000000000000000000000000000060005260046000fd5b506001600160a01b036003541615610a9f565b6113bd846001600160a01b036006541630903390612f6e565b610a99565b6113db846001600160a01b036005541630903390612f6e565b610a8f565b7f2c5211c60000000000000000000000000000000000000000000000000000000060005260046000fd5b7fe628b9490000000000000000000000000000000000000000000000000000000060005260046000fd5b503360009081527f81ca3e78767fe7984cabec333f0414457dbe87b59d50ac066de98618b846bf81602052604090205460ff1615610a3b565b346101fe5760006003193601126101fe5760206040517f59efcb15000000000000000000000000000000000000000000000000000000008152f35b346101fe5760206003193601126101fe5760206114c36121a7565b6001600160a01b03806005541691169081149081156114e8575b506040519015158152f35b90506001600160a01b036006541614826114dd565b346101fe5760406003193601126101fe576115166121bd565b336001600160a01b03821603611532576104b490600435612ec3565b60846040517f08c379a000000000000000000000000000000000000000000000000000000000815260206004820152602f60248201527f416363657373436f6e74726f6c3a2063616e206f6e6c792072656e6f756e636560448201527f20726f6c657320666f722073656c6600000000000000000000000000000000006064820152fd5b346101fe5760006003193601126101fe5760206001600160a01b0360075416604051908152f35b346101fe5760406003193601126101fe576004356115f96121bd565b906116156104aa82600052600160205260016040600020015490565b80600052600160205260406000206001600160a01b03831660005260205260ff604060002054161561164357005b80600052600160205260406000206001600160a01b038316600052602052604060002060017fffffffffffffffffffffffffffffffffffffffffffffffffffffffffffffff008254161790556001600160a01b03339216907f2f8788117e7eff1d82e926ec794901d17c78024a50270940304540a733656f0d600080a4005b346101fe5760006003193601126101fe57600954600a54906001600160a01b0360075416916040517f70a08231000000000000000000000000000000000000000000000000000000008152306004820152602081602481875afa908115610c7a576000916118ff575b506001600160a01b036008541693604051917f70a08231000000000000000000000000000000000000000000000000000000008352306004840152602083602481895afa928315610c7a576000936118cb575b5080156118c1576020906024604051809481937f07a2d13a00000000000000000000000000000000000000000000000000000000835260048301525afa908115610c7a5760009161188f575b50905b8015611883576020906024604051809781937f07a2d13a00000000000000000000000000000000000000000000000000000000835260048301525afa8015610c7a57600090611850575b60c094505b600b54916001600160a01b0360035416151593604051958652602086015260408501526060840152608083015260a0820152f35b506020843d60201161187b575b8161186a60209383612249565b810103126101fe5760c09351611817565b3d915061185d565b5060c09350600061181c565b90506020813d6020116118b9575b816118aa60209383612249565b810103126101fe5751856117ca565b3d915061189d565b50506000906117cd565b90926020823d6020116118f7575b816118e660209383612249565b81010312611329575051918661177e565b3d91506118d9565b906020823d602011611929575b8161191960209383612249565b810103126113295750518461172b565b3d915061190c565b346101fe5760006003193601126101fe576020600a54604051908152f35b346101fe5760206003193601126101fe5760043567ffffffffffffffff81116101fe576119809036906004016121d3565b906001600160a01b036002541633141580611e83575b61040c576119a2612dfd565b6001600160a01b036007541691604051927f70a08231000000000000000000000000000000000000000000000000000000008452306004850152602084602481845afa938415610c7a57600094611e4c575b509260249360206001600160a01b0360085416604051968780927f70a082310000000000000000000000000000000000000000000000000000000082523060048301525afa948515610c7a57600095611e18575b5081611d1d575b5083611c00575b6001600160a01b03600554166040517f70a08231000000000000000000000000000000000000000000000000000000008152306004820152602081602481855afa908115610c7a57600091611bcd575b509060249160206001600160a01b0360065416604051948580927f70a082310000000000000000000000000000000000000000000000000000000082523060048301525afa928315610c7a57600093611b97575b5092611b45927f33707543538a74978cfbe255a9a187ce79ed7695a03a48d36b5a3cf8b569aa52979285610b5c96611b7a575b505080611b52575b5060006009556000600a5561227b565b9160405193849384612506565b611b74906001600160a01b03600654166001600160a01b036002541690612e6c565b87611b35565b611b90916001600160a01b036002541690612e6c565b8880611b2d565b90926020823d602011611bc5575b81611bb260209383612249565b8101031261132957505191610b5c611afa565b3d9150611ba5565b906020823d602011611bf8575b81611be760209383612249565b810103126113295750516024611aa6565b3d9150611bda565b6001600160a01b03600854166040517f07a2d13a000000000000000000000000000000000000000000000000000000008152856004820152602081602481855afa908115610c7a57600091611ce9575b506002546040517fb460af9400000000000000000000000000000000000000000000000000000000815260048101929092526001600160a01b0316602482015230604482015290602090829081600081606481015b03925af18015610c7a57611cba575b50611a56565b611cdb9060203d602011611ce2575b611cd38183612249565b81019061226c565b5084611cb4565b503d611cc9565b90506020813d602011611d15575b81611d0460209383612249565b810103126101fe5751611ca5611c50565b3d9150611cf7565b6040517f07a2d13a000000000000000000000000000000000000000000000000000000008152826004820152602081602481855afa908115610c7a57600091611de4575b506002546040517fb460af9400000000000000000000000000000000000000000000000000000000815260048101929092526001600160a01b0316602482015230604482015290602090829081600081606481015b03925af18015610c7a5715611a4f57611ddd9060203d602011611ce257611cd38183612249565b5084611a4f565b90506020813d602011611e10575b81611dff60209383612249565b810103126101fe5751611db6611d61565b3d9150611df2565b90946020823d602011611e44575b81611e3360209383612249565b810103126113295750519385611a48565b3d9150611e26565b6020813d602011611e7b575b81611e6560209383612249565b81010312611e775751935060246119f4565b8480fd5b3d9150611e58565b503360009081527f81ca3e78767fe7984cabec333f0414457dbe87b59d50ac066de98618b846bf81602052604090205460ff1615611996565b346101fe5760006003193601126101fe5760206001600160a01b0360055416604051908152f35b346101fe5760206003193601126101fe576020611f10600435600052600160205260016040600020015490565b604051908152f35b346101fe5760206003193601126101fe576001600160a01b03611f396121a7565b611f41612c93565b161561082857005b346101fe5760006003193601126101fe576101806001600160a01b03600c54166001600160a01b03600d54166001600160a01b03600e5416600f5460105460115460125490601354926dffffffffffffffffffffffffffff60145495601554976001600160a01b0360165416996040519b8c5260208c015260408b015281811660608b015260701c16608089015260a088015260c087015260e0860152610100850152610120840152610140830152610160820152f35b346101fe5760206003193601126101fe576004358015158091036101fe5760207f6c44c1c6e888a23752ec9c1d8f194bfb0ea295ccdb49b3da95d5be50c9db97699161204a612c93565b6002547fffffffffffffffffffffff00ffffffffffffffffffffffffffffffffffffffff74ff00000000000000000000000000000000000000008360a01b16911617600255604051908152a1005b346101fe5760006003193601126101fe576020611f106122b7565b346101fe5760006003193601126101fe576020600954604051908152f35b346101fe5760206003193601126101fe576020907fffffffff0000000000000000000000000000000000000000000000000000000061210e61216b565b167f7965db0b000000000000000000000000000000000000000000000000000000008114908115612141575b5015158152f35b7f01ffc9a7000000000000000000000000000000000000000000000000000000009150148361213a565b600435907fffffffff00000000000000000000000000000000000000000000000000000000821682036101fe57565b359081151582036101fe57565b600435906001600160a01b03821682036101fe57565b602435906001600160a01b03821682036101fe57565b9181601f840112156101fe5782359167ffffffffffffffff83116101fe57602083818601950101116101fe57565b60005b8381106122145750506000910152565b8181015183820152602001612204565b90601f19601f60209361224281518092818752878088019101612201565b0116010190565b90601f601f19910116810190811067ffffffffffffffff82111761133857604052565b908160209103126101fe575190565b9190820180921161228857565b7f4e487b7100000000000000000000000000000000000000000000000000000000600052601160045260246000fd5b6001600160a01b03600754166040517f70a08231000000000000000000000000000000000000000000000000000000008152306004820152602081602481855afa908115610c7a576000916124b3575b506001600160a01b036008541691604051917f70a08231000000000000000000000000000000000000000000000000000000008352306004840152602083602481875afa928315610c7a5760009361247f575b508015612475576020906024604051809481937f07a2d13a00000000000000000000000000000000000000000000000000000000835260048301525afa908115610c7a57600091612443575b50905b8015612435576020906024604051809581937f07a2d13a00000000000000000000000000000000000000000000000000000000835260048301525afa8015610c7a57600090612401575b6123fe92509061227b565b90565b506020823d60201161242d575b8161241b60209383612249565b810103126101fe576123fe91516123f3565b3d915061240e565b506123fe915060009061227b565b90506020813d60201161246d575b8161245e60209383612249565b810103126101fe5751386123a6565b3d9150612451565b50506000906123a9565b90926020823d6020116124ab575b8161249a60209383612249565b81010312611329575051913861235a565b3d915061248d565b906020823d6020116124dd575b816124cd60209383612249565b8101031261132957505138612307565b3d91506124c0565b601f8260209493601f19938186528686013760008582860101520116010190565b6040906123fe9492815281602082015201916124e5565b51906dffffffffffffffffffffffffffff821682036101fe57565b908160609103126101fe5761254c8161251d565b91604061255b6020840161251d565b92015163ffffffff811681036101fe5790565b67ffffffffffffffff811161133857601f01601f191660200190565b35906001600160a01b03821682036101fe57565b90916001600160a01b03600354169182156127e3577fffffffff00000000000000000000000000000000000000000000000000000000167f0902f1ac000000000000000000000000000000000000000000000000000000008114612728577f8e0dc28d000000000000000000000000000000000000000000000000000000001461263a57505050604051612633602082612249565b6000815290565b82608091810103126101fe576001600160a01b03608460209261265c8561258a565b9061266885870161258a565b9560406126776060830161219a565b91868251998a9889977f8e0dc28d00000000000000000000000000000000000000000000000000000000895216600488015216602486015201356044840152151560648301525afa600091816126f4575b506126dc5750604051612633602082612249565b604051906020820152602081526123fe604082612249565b9091506020813d602011612720575b8161271060209383612249565b810103126101fe575190386126c8565b3d9150612703565b505060049150606090604051928380927f0902f1ac0000000000000000000000000000000000000000000000000000000082525afa60009182918291816127bb575b5061278057505050604051612633602082612249565b6dffffffffffffffffffffffffffff63ffffffff928160405195166020860152166040840152166060820152606081526123fe608082612249565b915092506127d8915060603d606011610988576109788183612249565b91929091903861276a565b50505050604051612633602082612249565b9190820391821161228857565b6001600160a01b036003541615612c8f576001600160a01b0360075416916040517f70a08231000000000000000000000000000000000000000000000000000000008152306004820152602081602481875afa908115610c7a57600091612c5d575b506001600160a01b0360085416604051917f70a08231000000000000000000000000000000000000000000000000000000008352306004840152602083602481855afa928315610c7a57600093612c29575b508015612c2057604051907f07a2d13a0000000000000000000000000000000000000000000000000000000082526004820152602081602481895afa908115610c7a57600091612bee575b50915b8015612be4576020906024604051809481937f07a2d13a00000000000000000000000000000000000000000000000000000000835260048301525afa908115610c7a57600091612bb2575b50905b60095460009181811115612baa5761296a92506127f5565b905b600a5460009181811115612ba25761298492506127f5565b935b811580158091612b99575b6129d8575b5050507fac04581c930eefb60cf2509de6e2388cbcde488697b9c13ca8dc5cddc817186092506129d36040519283926020845260208401916124e5565b0390a1565b612b19575b5083612a41575b60407f49d512bf9cb224241c05691e73eb9fab078cf350c7dbcbcf66788f1fc0cc8b0b917fac04581c930eefb60cf2509de6e2388cbcde488697b9c13ca8dc5cddc81718609542600b5582519182526020820152a1388080612996565b6008546002546040517fb460af94000000000000000000000000000000000000000000000000000000008152600481018790526001600160a01b039182166024820152306044820152929160209184916064918391600091165af1908115610c7a577fac04581c930eefb60cf2509de6e2388cbcde488697b9c13ca8dc5cddc8171860957f49d512bf9cb224241c05691e73eb9fab078cf350c7dbcbcf66788f1fc0cc8b0b93604093612afa575b5095509150506129e4565b612b129060203d602011611ce257611cd38183612249565b5038612aef565b6002546040517fb460af94000000000000000000000000000000000000000000000000000000008152600481018490526001600160a01b03909116602482015230604482015290602090829060649082906000905af18015610c7a57156129dd57612b929060203d602011611ce257611cd38183612249565b50386129dd565b50851515612991565b505093612986565b50509061296c565b90506020813d602011612bdc575b81612bcd60209383612249565b810103126101fe57513861294f565b3d9150612bc0565b5050600090612952565b90506020813d602011612c18575b81612c0960209383612249565b810103126101fe575138612901565b3d9150612bfc565b50600091612904565b90926020823d602011612c55575b81612c4460209383612249565b8101031261132957505191386128b6565b3d9150612c37565b906020823d602011612c87575b81612c7760209383612249565b8101031261132957505138612864565b3d9150612c6a565b5050565b3360009081527fa6eef7e35abe7026729641147f7915573c7e97b47efa546f5f6e3230263bcb49602052604090205460ff1615612ccc57565b612daf612cd833613120565b612d756011612ce76000613309565b9260376040519485927f416363657373436f6e74726f6c3a206163636f756e74200000000000000000006020850152612d298151809260208688019101612201565b83017f206973206d697373696e6720726f6c652000000000000000000000000000000083820152612d64825180936020604885019101612201565b01010301601f198101835282612249565b6040519182917f08c379a0000000000000000000000000000000000000000000000000000000008352602060048401526024830190612224565b0390fd5b80600052600160205260406000206001600160a01b03331660005260205260ff6040600020541615612de25750565b612daf90612d756011612ce7612df733613120565b93613309565b600260005414612e0e576002600055565b60646040517f08c379a000000000000000000000000000000000000000000000000000000000815260206004820152601f60248201527f5265656e7472616e637947756172643a207265656e7472616e742063616c6c006044820152fd5b612ec1926001600160a01b03604051937fa9059cbb000000000000000000000000000000000000000000000000000000006020860152166024840152604483015260448252612ebc606483612249565b612fc8565b565b80600052600160205260406000206001600160a01b03831660005260205260ff60406000205416612ef2575050565b80600052600160205260406000206001600160a01b03831660005260205260406000207fffffffffffffffffffffffffffffffffffffffffffffffffffffffffffffff0081541690556001600160a01b03339216907ff6391f5c32d9c69d2a47ea670b442974b53935d1edc7fd64eb21e047a839171b600080a4565b9091926001600160a01b03612ec19481604051957f23b872dd000000000000000000000000000000000000000000000000000000006020880152166024860152166044840152606483015260648252612ebc608483612249565b6001600160a01b0361304a911691604092600080855193612fe98786612249565b602085527f5361666545524332303a206c6f772d6c6576656c2063616c6c206661696c6564602086015260208151910182855af13d15613107573d9161302e8361256e565b9261303b87519485612249565b83523d6000602085013e6133e0565b80519081159182156130e4575b5050156130615750565b608490517f08c379a000000000000000000000000000000000000000000000000000000000815260206004820152602a60248201527f5361666545524332303a204552433230206f7065726174696f6e20646964206e60448201527f6f742073756363656564000000000000000000000000000000000000000000006064820152fd5b81925090602091810103126101fe576020015180151581036101fe573880613057565b6060916133e0565b908151811015610354570160200190565b60009061312d602a61256e565b9161313b6040519384612249565b602a8352613149602a61256e565b601f196020850191013682378351156132dc57603090538251600110156132af576078602184015350602960005b600182116131e65750506131885790565b60646040517f08c379a000000000000000000000000000000000000000000000000000000000815260206004820152602060248201527f537472696e67733a20686578206c656e67746820696e73756666696369656e746044820152fd5b9091600f81166010811015613282577f3031323334353637383961626364656600000000000000000000000000000000901a613222848661310f565b5360041c918015613255577fffffffffffffffffffffffffffffffffffffffffffffffffffffffffffffffff0190613177565b6024827f4e487b710000000000000000000000000000000000000000000000000000000081526011600452fd5b6024837f4e487b710000000000000000000000000000000000000000000000000000000081526032600452fd5b807f4e487b7100000000000000000000000000000000000000000000000000000000602492526032600452fd5b6024827f4e487b710000000000000000000000000000000000000000000000000000000081526032600452fd5b600090613316604261256e565b916133246040519384612249565b60428352613332604261256e565b601f196020850191013682378351156132dc57603090538251600110156132af576078602184015350604160005b600182116133715750506131885790565b9091600f81166010811015613282577f3031323334353637383961626364656600000000000000000000000000000000901a6133ad848661310f565b5360041c918015613255577fffffffffffffffffffffffffffffffffffffffffffffffffffffffffffffffff0190613360565b9192901561345b57508151156133f4575090565b3b156133fd5790565b60646040517f08c379a000000000000000000000000000000000000000000000000000000000815260206004820152601d60248201527f416464726573733a2063616c6c20746f206e6f6e2d636f6e74726163740000006044820152fd5b82519091501561346e5750805190602001fd5b612daf906040519182917f08c379a000000000000000000000000000000000000000000000000000000000835260206004840152602483019061222456fea2646970667358221220cb87d339febc618a7241191a885b2a71d5eb062778c192824be6998539d0547a64736f6c634300081c00332f8788117e7eff1d82e926ec794901d17c78024a50270940304540a733656f0d31e0210044b4f6757ce6aa31f9c6e8d4896d24a755014887391a926c5224d959a2646970667358221220f4e2f2cd26f706734b12408055ccaa9bceffa2e374d516ca9b42e9b1feb21ed564736f6c634300081c003361010080604052346102a4576080816114d7803803809161002082856103a8565b8339810103126102a457610033816103cb565b90610040602082016103cb565b91606061004f604084016103cb565b9201516001600160a01b03909116928315610397576001600160a01b0316918215610386576001600160a01b0381161561037557836080528260a05260c05260e052604051636eb1769f60e11b8152306004820152826024820152602081604481855afa90811561036957600091610337575b506102cc57604051602081019263095ea7b360e01b845260248201526000196044820152604481526100f56064826103a8565b60008060409485519361010887866103a8565b602085527f5361666545524332303a206c6f772d6c6576656c2063616c6c206661696c65646020860152519082865af13d156102bf573d906001600160401b0382116102a957845161017994909261016a601f8201601f1916602001856103a8565b83523d6000602085013e6103df565b8051908115918215610281575b50501561022b575161102790816104b082396080518181816101470152818161032a015281816107b80152610b1c015260a051818181605e015281816102d9015281816103b4015281816106f30152818161094801528181610a330152610d66015260c05181818160e9015281816103760152818161075a01528181610abe0152610ceb015260e05181818160920152818161098101528181610a670152610c9b0152f35b5162461bcd60e51b815260206004820152602a60248201527f5361666545524332303a204552433230206f7065726174696f6e20646964206e6044820152691bdd081cdd58d8d9595960b21b6064820152608490fd5b81925090602091810103126102a4576020015180151581036102a4573880610186565b600080fd5b634e487b7160e01b600052604160045260246000fd5b91610179926060916103df565b60405162461bcd60e51b815260206004820152603660248201527f5361666545524332303a20617070726f76652066726f6d206e6f6e2d7a65726f60448201527f20746f206e6f6e2d7a65726f20616c6c6f77616e6365000000000000000000006064820152608490fd5b90506020813d602011610361575b81610352602093836103a8565b810103126102a45751386100c2565b3d9150610345565b6040513d6000823e3d90fd5b631559b7d760e21b60005260046000fd5b63c1ab6dc160e01b60005260046000fd5b630681d31960e51b60005260046000fd5b601f909101601f19168101906001600160401b038211908210176102a957604052565b51906001600160a01b03821682036102a457565b9192901561044157508151156103f3575090565b3b156103fc5790565b60405162461bcd60e51b815260206004820152601d60248201527f416464726573733a2063616c6c20746f206e6f6e2d636f6e74726163740000006044820152606490fd5b8251909150156104545750805190602001fd5b6040519062461bcd60e51b8252602060048301528181519182602483015260005b8381106104975750508160006044809484010152601f80199101168101030190fd5b6020828201810151604487840101528593500161047556fe608080604052600436101561023c575b50346101ee576040517f70a0823100000000000000000000000000000000000000000000000000000000815230600482015260208160248173ffffffffffffffffffffffffffffffffffffffff7f0000000000000000000000000000000000000000000000000000000000000000165afa908115610230576000916101fb575b507f00000000000000000000000000000000000000000000000000000000000000008110156100ba57005b6040517f6e553f65000000000000000000000000000000000000000000000000000000008152600481018290527f000000000000000000000000000000000000000000000000000000000000000073ffffffffffffffffffffffffffffffffffffffff8116602483015260208280604481010381600073ffffffffffffffffffffffffffffffffffffffff7f0000000000000000000000000000000000000000000000000000000000000000165af1600092816101c2575b5061017957005b73ffffffffffffffffffffffffffffffffffffffff6040917f89f2bf211df552a9cddc4f4fb8f63b5d5cd8bfdd5a74eebaf4e2cd143dcaf27393835195865260208601521692a2005b9092506020813d6020116101f3575b816101de60209383610dd4565b810103126101ee57519138610172565b600080fd5b3d91506101d1565b906020823d602011610228575b8161021560209383610dd4565b810103126102255750513861008f565b80fd5b3d9150610208565b6040513d6000823e3d90fd5b60003560e01c90816312065fe014610d0f5750806338af3eed14610cbe578063645006ca14610c8357806375d20a3b146109d957806381d65613146108ee578063b6b55f2514610690578063db2e21bc1461034e578063fbfa77cf146102fd5763fc0c546a146102ac573861000f565b346101ee5760006003193601126101ee57602060405173ffffffffffffffffffffffffffffffffffffffff7f0000000000000000000000000000000000000000000000000000000000000000168152f35b346101ee5760006003193601126101ee57602060405173ffffffffffffffffffffffffffffffffffffffff7f0000000000000000000000000000000000000000000000000000000000000000168152f35b346101ee5760006003193601126101ee5773ffffffffffffffffffffffffffffffffffffffff7f0000000000000000000000000000000000000000000000000000000000000000168033036106325773ffffffffffffffffffffffffffffffffffffffff7f0000000000000000000000000000000000000000000000000000000000000000166040517f70a08231000000000000000000000000000000000000000000000000000000008152306004820152602081602481855afa90811561023057600091610600575b508061042057005b6040519060208201937fa9059cbb0000000000000000000000000000000000000000000000000000000085526024830152604482015260448152610465606482610dd4565b6000806040948551936104788786610dd4565b602085527f5361666545524332303a206c6f772d6c6576656c2063616c6c206661696c65646020860152519082865af13d156105f3573d9067ffffffffffffffff82116105c4576105089360207fffffffffffffffffffffffffffffffffffffffffffffffffffffffffffffffe0601f85011601926104f987519485610dd4565b83523d6000602085013e610f21565b80519081159182156105a1575b50501561051e57005b608490517f08c379a000000000000000000000000000000000000000000000000000000000815260206004820152602a60248201527f5361666545524332303a204552433230206f7065726174696f6e20646964206e60448201527f6f742073756363656564000000000000000000000000000000000000000000006064820152fd5b81925090602091810103126101ee576020015180151581036101ee578280610515565b7f4e487b7100000000000000000000000000000000000000000000000000000000600052604160045260246000fd5b9161050892606091610f21565b906020823d60201161062a575b8161061a60209383610dd4565b8101031261022557505183610418565b3d915061060d565b60646040517f08c379a000000000000000000000000000000000000000000000000000000000815260206004820152601060248201527f4f6e6c792062656e6566696369617279000000000000000000000000000000006044820152fd5b346101ee5760206003193601126101ee57600435801561088f576040517f70a0823100000000000000000000000000000000000000000000000000000000815230600482015260208160248173ffffffffffffffffffffffffffffffffffffffff7f0000000000000000000000000000000000000000000000000000000000000000165afa80156102305782916000916108b9575b501061088f576040517f6e553f65000000000000000000000000000000000000000000000000000000008152600481018290527f000000000000000000000000000000000000000000000000000000000000000073ffffffffffffffffffffffffffffffffffffffff8116602483015260208280604481010381600073ffffffffffffffffffffffffffffffffffffffff7f0000000000000000000000000000000000000000000000000000000000000000165af16000928161085b575b506101795750506001906107f5610e15565b6308c379a014610807575b5061023057005b61080f610e33565b8061081b575b50610800565b7f950447bef0da5552da9fc607508f893a887e273fb3f1da020bd3214041f4589291925060009261085160405192839283610f0a565b0390a18180610815565b9092506020813d602011610887575b8161087760209383610dd4565b810103126101ee575191846107e3565b3d915061086a565b7f5945ea560000000000000000000000000000000000000000000000000000000060005260046000fd5b9150506020813d6020116108e6575b816108d560209383610dd4565b810103126101ee5781905183610725565b3d91506108c8565b346101ee5760006003193601126101ee576040517f70a0823100000000000000000000000000000000000000000000000000000000815230600482015260208160248173ffffffffffffffffffffffffffffffffffffffff7f0000000000000000000000000000000000000000000000000000000000000000165afa8015610230576000906109a6575b602090604051907f000000000000000000000000000000000000000000000000000000000000000011158152f35b506020813d6020116109d1575b816109c060209383610dd4565b810103126101ee5760209051610978565b3d91506109b3565b346101ee5760006003193601126101ee576040517f70a0823100000000000000000000000000000000000000000000000000000000815230600482015260208160248173ffffffffffffffffffffffffffffffffffffffff7f0000000000000000000000000000000000000000000000000000000000000000165afa90811561023057600091610c51575b507f0000000000000000000000000000000000000000000000000000000000000000811015610a8f57005b6040517f6e553f65000000000000000000000000000000000000000000000000000000008152600481018290527f000000000000000000000000000000000000000000000000000000000000000073ffffffffffffffffffffffffffffffffffffffff8116602483015260208280604481010381600073ffffffffffffffffffffffffffffffffffffffff7f0000000000000000000000000000000000000000000000000000000000000000165af160009281610c1d575b506101795750506001610b58610e15565b6308c379a014610bca575b610b6957005b60807f950447bef0da5552da9fc607508f893a887e273fb3f1da020bd3214041f458929160405190815260406020820152600d60408201527f556e6b6e6f776e206572726f72000000000000000000000000000000000000006060820152a1005b610bd2610e33565b80610bde575b50610b63565b90507f950447bef0da5552da9fc607508f893a887e273fb3f1da020bd3214041f45892610c146000926040519182918683610f0a565b0390a182610bd8565b9092506020813d602011610c49575b81610c3960209383610dd4565b810103126101ee57519184610b47565b3d9150610c2c565b906020823d602011610c7b575b81610c6b60209383610dd4565b8101031261022557505181610a64565b3d9150610c5e565b346101ee5760006003193601126101ee5760206040517f00000000000000000000000000000000000000000000000000000000000000008152f35b346101ee5760006003193601126101ee57602060405173ffffffffffffffffffffffffffffffffffffffff7f0000000000000000000000000000000000000000000000000000000000000000168152f35b346101ee5760006003193601126101ee577f70a0823100000000000000000000000000000000000000000000000000000000815230600482015260208160248173ffffffffffffffffffffffffffffffffffffffff7f0000000000000000000000000000000000000000000000000000000000000000165afa801561023057600090610da1575b602090604051908152f35b506020813d602011610dcc575b81610dbb60209383610dd4565b810103126101ee5760209051610d96565b3d9150610dae565b90601f7fffffffffffffffffffffffffffffffffffffffffffffffffffffffffffffffe0910116810190811067ffffffffffffffff8211176105c457604052565b60009060033d11610e2257565b905060046000803e60005160e01c90565b600060443d10610e9a576040516003193d016004823e8051913d602484011167ffffffffffffffff841117610ea5578282019283519167ffffffffffffffff8311610e9d576003193d85010160208487010111610e9d5750610e9a92910160200190610dd4565b90565b949350505050565b92915050565b919082519283825260005b848110610ef55750507fffffffffffffffffffffffffffffffffffffffffffffffffffffffffffffffe0601f8460006020809697860101520116010190565b80602080928401015182828601015201610eb6565b604090610e9a939281528160208201520190610eab565b91929015610f9c5750815115610f35575090565b3b15610f3e5790565b60646040517f08c379a000000000000000000000000000000000000000000000000000000000815260206004820152601d60248201527f416464726573733a2063616c6c20746f206e6f6e2d636f6e74726163740000006044820152fd5b825190915015610faf5750805190602001fd5b610fed906040519182917f08c379a0000000000000000000000000000000000000000000000000000000008352602060048401526024830190610eab565b0390fdfea2646970667358221220ced6bc7e4ef96379430b55e3bbbde9dbae9f566c0e889cbb5615716dd8cf8cfb64736f6c634300081c0033a264697066735822122092a480222a337c87baf8b73ea7404ecb4e6a4a8b21e45f694115e223571e140764736f6c634300081c0033",
  "linkReferences": {},
  "deployedLinkReferences": {}
}